:020000040800F2
:1000000000280020950500081D05000825050008AA
:100010002D050008350500083D050008000000001A
:10002000000000000000000000000000450500087E
:1000300051050008000000005D0500086905000882
:10004000DD050008DD050008DD050008DD05000808
:10005000DD050008DD050008DD050008DD050008F8
:10006000DD050008DD050008DD0500087505000850
:10007000DD050008DD050008DD050008DD050008D8
:10008000DD050008DD050008DD050008DD050008C8
:10009000DD050008DD050008DD050008DD050008B8
:1000A000DD050008DD050008DD050008DD050008A8
:1000B000DD050008DD05000800000000DD05000882
:1000C000DD0500080000000000000000DD0500085C
:1000D00000000000DD050008DD050008000000004C
:1000E000DD050008DD050008DD0500080000000052
:1000F0000000000000000000000000000000000000
:0C01000000000000000000005FF808F1A3
:10010C0010B5054C237833B9044B13B10448AFF345
:10011C0000800123237010BD0C00002000000000A3
:10012C00C41C000808B5034B1BB103490348AFF3CB
:10013C00008008BD0000000010000020C41C000856
:10014C0080B500AF00F046FA00F04AF800F0F4F881
:10015C0000F0D4F800F094F802211D4801F0BCF82E
:10016C000346002B16D11B4B1B78062B04D8194BBE
:10017C001B780133DBB200E00023164A1370154BD9
:10018C001B781A46144B9A5C144BDA60642000F00E
:10019C0083FAE1E704210E4801F09EF80346002B98
:1001AC00DAD10C4B1B78002B04D00A4B1B78013B8B
:1001BC00DBB200E00723074A1370064B1B781A4684
:1001CC00054B9A5C054BDA60642000F065FAC3E7D6
:1001DC000008014028000020DC1C0008000C014035
:1001EC0080B594B000AF07F12803282200211846EF
:1001FC0001F036FD07F1140300221A605A609A6070
:10020C00DA601A613B1D00221A605A609A60DA604B
:10021C000223BB620123BB631023FB6300237B64BB
:10022C0007F12803184601F087F80346002B01D08C
:10023C0000F0CEF80F237B610023BB610023FB6130
:10024C0000233B6200237B6207F114030021184654
:10025C0001F0F4FA0346002B01D000F0B9F80223A8
:10026C007B600023FB603B1D184601F043FC0346FA
:10027C00002B01D000F0ACF800BF5037BD4680BD5C
:10028C0080B584B000AF3B1D00221A605A609A60A2
:10029C00184B194A1A60174B00229A60154B002212
:1002AC001A73144B00221A75124B4FF46022DA6148
:1002BC00104B00225A600F4B01221A610D4800F0BE
:1002CC000FFA0346002B01D000F082F804237B6068
:1002DC000123BB600023FB603B1D1946054800F061
:1002EC00D7FA0346002B01D000F072F800BF10378C
:1002FC00BD4680BD2C0000200024014080B582B09A
:10030C0000AF0C4B5B690B4A43F001035361094B83
:10031C005B6903F001037B607B68002200210B20EA
:10032C0000F0C7FC0B2000F0E0FC00BF0837BD4616
:10033C0080BD00BF0010024080B586B000AF07F151
:10034C00080300221A605A609A60DA601D4B9B69A0
:10035C001C4A43F0040393611A4B9B6903F004039A
:10036C007B607B68174B9B69164A43F008039361CB
:10037C00144B9B6903F008033B603B6800220F2180
:10038C00114800F0C0FF0623BB600023FB60012373
:10039C003B6107F1080319460C4800F021FE0F23BE
:1003AC00BB600123FB6000233B6102237B6107F1EF
:1003BC0008031946044800F013FE00BF1837BD4669
:1003CC0080BD00BF00100240000C0140000801403D
:1003DC0080B400AF72B600BF00BFFDE780B485B03B
:1003EC0000AF154B9B69144A43F001039361124B08
:1003FC009B6903F00103BB60BB680F4BDB690E4AC2
:10040C0043F08053D3610C4BDB6903F080537B606A
:10041C007B680A4B5B68FB60FB6823F0E063FB6066
:10042C00FB6843F08063FB60044AFB68536000BFC9
:10043C001437BD4680BC70470010024000000140DC
:10044C0080B588B000AF786007F1100300221A6005
:10045C005A609A60DA607B681B68284A934249D1DB
:10046C00274B9B69264A43F400739361244B9B6989
:10047C0003F40073FB60FB68214B9B69204A43F03B
:10048C00040393611E4B9B6903F00403BB60BB68C0
:10049C0010233B6103237B6107F1100319461948B4
:1004AC0000F09EFD184B194A1A60174B00225A6037
:1004BC00154B00229A60144B8022DA60124B4FF4D9
:1004CC0080721A61104B4FF480625A610E4B2022DD
:1004DC009A610D4B0022DA610B4800F021FC0346B7
:1004EC00002B01D0FFF774FF7B68074A1A62064A9B
:1004FC007B68536200BF2037BD4680BD002401409D
:10050C0000100240000801405C000020080002407E
:10051C0080B400AF00BFFDE780B400AF00BFFDE7C3
:10052C0080B400AF00BFFDE780B400AF00BFFDE7B3
:10053C0080B400AF00BFFDE780B400AF00BFBD4684
:10054C0080BC704780B400AF00BFBD4680BC704714
:10055C0080B400AF00BFBD4680BC704780B500AF13
:10056C0000F07EF800BF80BD80B500AF024800F0FF
:10057C0031FC00BF80BD00BF5C00002080B400AF28
:10058C0000BFBD4680BC7047FFF7F8FF0B480C4915
:10059C000C4A002302E0D458C4500433C4188C42D3
:1005AC00F9D3094A094C002301E013600432A2423A
:1005BC00FBD301F05DFBFFF7C3FD7047000000208B
:1005CC000C000020101D00080C000020A4000020CE
:1005DC00FEE7000080B500AF084B1B68074A43F0EC
:1005EC0010031360032000F059FB0F2000F008F8F3
:1005FC00FFF7F4FE0023184680BD00BF0020024028
:10060C0080B582B000AF7860124B1A68124B1B7821
:10061C0019464FF47A73B3FBF1F3B2FBF3F31846BC
:10062C0000F071FB0346002B01D001230EE07B6828
:10063C000F2B0AD8002279684FF0FF3000F039FBFD
:10064C00064A7B681360002300E001231846083734
:10065C00BD4680BD000000200800002004000020E2
:10066C0080B400AF054B1B781A46054B1B6813442E
:10067C00034A136000BFBD4680BC704708000020D1
:10068C00A000002080B400AF024B1B681846BD468A
:10069C0080BC7047A000002080B584B000AF7860AB
:1006AC00FFF7F0FFB8607B68FB60FB68B3F1FF3FBE
:1006BC0005D00A4B1B781A46FB681344FB6000BF3D
:1006CC00FFF7E0FF0246BB68D31AFA689A42F7D8E4
:1006DC0000BF00BF1037BD4680BD00BF0800002022
:1006EC0080B586B000AF78600023FB7500233B61BA
:1006FC000023BB600023FB607B68002B01D101232E
:10070C00BEE07B689B68002B7B689B6A002B09D141
:10071C007B680022DA627B68002283F824207868E8
:10072C00FFF78EFE786800F0ABF90346FB757B682B
:10073C009B6A03F01003002B40F09980FB7D002B8B
:10074C0040F095807B689B6A23F4885323F0020366
:10075C0043F002027B689A627B685A687B68DB69AB
:10076C001A437B681B7B5B001343BA681343BB6063
:10077C007B689B68B3F5807F03D07B689B68012BFB
:10078C0002D14FF4807300E000233A6913433B61BC
:10079C007B681B7D012B19D17B681B7B002B09D13E
:1007AC007B689B69013B5A033B69134343F4006329
:1007BC003B610BE07B689B6A43F020027B689A628A
:1007CC007B68DB6A43F001027B68DA627B681B683A
:1007DC005B6823F469417B681B683A690A435A6079
:1007EC007B681B689A68284B13407A681268B96852
:1007FC000B4393607B689B68B3F5807F03D07B6869
:10080C009B68012B04D17B681B69013B1B05FB60BA
:10081C007B681B68DB6A23F470017B681B68FA68D1
:10082C000A43DA627B681B689A68184B1340BA68F3
:10083C009A420BD17B680022DA627B689B6A23F0B8
:10084C00030343F001027B689A6218E07B689B6AA1
:10085C0023F0120343F010027B689A627B68DB6A18
:10086C0043F001027B68DA620123FB7507E07B68C9
:10087C009B6A43F010027B689A620123FB75FB7D37
:10088C0018461837BD4680BDFDF7E1FFFE0E1FFF71
:10089C0080B485B000AF786039600023FB7300230F
:1008AC00BB607B6893F82430012B01D10223DCE080
:1008BC007B68012283F824203B685B68062B1CD8DC
:1008CC007B681B68596B3B685A6813469B00134442
:1008DC00053B1F2202FA03F3DB4319403B681868FF
:1008EC003B685A6813469B001344053B00FA03F21D
:1008FC007B681B680A435A633CE03B685B680C2BC3
:10090C001CD87B681B68196B3B685A6813469B00A4
:10091C001344233B1F2202FA03F3DB4319403B68C9
:10092C0018683B685A6813469B001344233B00FA33
:10093C0003F27B681B680A431A631BE07B681B6825
:10094C00D96A3B685A6813469B001344413B1F22EB
:10095C0002FA03F3DB4319403B6818683B685A689A
:10096C0013469B001344413B00FA03F27B681B685F
:10097C000A43DA623B681B68092B1CD97B681B682D
:10098C00D9683B681A6813465B0013441E3B072268
:10099C0002FA03F3DB4319403B6898683B681A681A
:1009AC0013465B0013441E3B00FA03F27B681B6882
:1009BC000A43DA6019E07B681B6819693B681A689E
:1009CC0013465B001344072202FA03F3DB4319407E
:1009DC003B6898683B681A6813465B00134400FA3E
:1009EC0003F27B681B680A431A613B681B68102B77
:1009FC0003D03B681B68112B32D17B681B681D4AE6
:100A0C00934225D17B681B689B6803F40003002B81
:100A1C0026D17B681B689A687B681B6842F40002CD
:100A2C009A603B681B68102B1AD1134B1B68134A36
:100A3C00A2FB03239A0C13469B0013445B00BB6080
:100A4C0002E0BB68013BBB60BB68002BF9D107E03F
:100A5C007B689B6A43F020027B689A620123FB73DC
:100A6C007B68002283F82420FB7B18461437BD4694
:100A7C0080BC7047002401400000002083DE1B4333
:100A8C0080B584B000AF78600023FB607B681B6886
:100A9C009B6803F00103012B2ED17B681B689A68BD
:100AAC007B681B6822F001029A60FFF7EBFDF8608F
:100ABC001BE0FFF7E7FD0246FB68D31A022B14D9A3
:100ACC007B681B689B6803F00103012B0DD17B68CD
:100ADC009B6A43F010027B689A627B68DB6A43F086
:100AEC0001027B68DA62012307E07B681B689B6864
:100AFC0003F00103012BDCD0002318461037BD4650
:100B0C0080BD000080B485B000AF78607B6803F0D6
:100B1C000703FB600C4BDB68BB60BA684FF6FF0346
:100B2C001340BB60FB681A02BB68134343F0BF63FE
:100B3C0043F40033BB60044ABB68D36000BF143776
:100B4C00BD4680BC704700BF00ED00E080B400AF34
:100B5C00044BDB681B0A03F007031846BD4680BC38
:100B6C00704700BF00ED00E080B483B000AF0346D7
:100B7C00FB7197F90730002B0BDBFB7903F01F029D
:100B8C00064997F907305B09012000FA02F241F897
:100B9C00232000BF0C37BD4680BC704700E100E04D
:100BAC0080B483B000AF03463960FB7197F907300E
:100BBC00002B0ADB3B68DAB20C4997F907301201BB
:100BCC00D2B20B4483F800230AE03B68DAB208493E
:100BDC00FB7903F00F03043B1201D2B20B441A76DB
:100BEC0000BF0C37BD4680BC704700BF00E100E081
:100BFC0000ED00E080B489B000AFF860B9607A60B5
:100C0C00FB6803F00703FB61FB69C3F10703042BCB
:100C1C0028BF0423BB61FB690433062B02D9FB6993
:100C2C00033B00E000237B614FF0FF32BB6902FA0B
:100C3C0003F3DA43BB681A407B699A404FF0FF31EB
:100C4C007B6901FA03F3D9437B680B4013431846C5
:100C5C002437BD4680BC704780B582B000AF786049
:100C6C007B68013BB3F1807F01D301230FE00A4A7B
:100C7C007B68013B53600F214FF0FF30FFF790FF73
:100C8C00054B00229A60044B07221A600023184679
:100C9C000837BD4680BD00BF10E000E080B582B0D3
:100CAC0000AF78607868FFF72DFF00BF0837BD46AE
:100CBC0080BD80B586B000AF0346B9607A60FB7327
:100CCC0000237B61FFF742FF78617A68B968786925
:100CDC00FFF790FF024697F90F3011461846FFF7C1
:100CEC005FFF00BF1837BD4680BD80B582B000AF36
:100CFC000346FB7197F907301846FFF735FF00BF25
:100D0C000837BD4680BD80B582B000AF786078688A
:100D1C00FFF7A2FF034618460837BD4680BD00000A
:100D2C0080B485B000AF78600023FB607B68002B3B
:100D3C0001D1012343E07B681B681A46224B134404
:100D4C00224AA2FB03231B099A007B681A647B6866
:100D5C001F4ADA637B68022283F821207B681B68B8
:100D6C001B68FB60FB6823F47F5323F03003FB60AC
:100D7C007B685A687B689B681A437B68DB681A43FC
:100D8C007B681B691A437B685B691A437B689B69A8
:100D9C001A437B68DB691343FA681343FB607B6877
:100DAC001B68FA681A607B6800229A637B680122D0
:100DBC0083F821207B68002283F82020002318462A
:100DCC001437BD4680BC7047F8FFFDBFCDCCCCCCF2
:100DDC000000024080B584B000AF78607B68DB6BAC
:100DEC001B68FB607B681B681B68BB607B681B6CAB
:100DFC0004229A40FB681340002B4FD0BB6803F0D1
:100E0C000403002B4AD07B681B681B6803F020038B
:100E1C00002B07D17B681B681A687B681B6822F063
:100E2C0004021A607B681B68664A934229D07B686F
:100E3C001B68654A934222D07B681B68634A9342C5
:100E4C001AD07B681B68624A934212D07B681B687D
:100E5C00604A93420AD07B681B685F4A934202D176
:100E6C004FF480030EE04FF080630BE04FF48023CF
:100E7C0008E04FF4804305E04FF4806302E0402328
:100E8C0000E00423554A53607B68DB6A002B00F0BA
:100E9C0094807B68DB6A786898478EE07B681B6C73
:100EAC0002229A40FB681340002B56D0BB6803F01B
:100EBC000203002B51D07B681B681B6803F02003D6
:100ECC00002B0BD17B681B681A687B681B6822F0AF
:100EDC000A021A607B68012283F821207B681B6858
:100EEC00384A934229D07B681B68374A934222D0F8
:100EFC007B681B68354A93421AD07B681B68344A5E
:100F0C00934212D07B681B68324A93420AD07B68AA
:100F1C001B68314A934202D14FF400130EE04FF09C
:100F2C0000730BE04FF4003308E04FF4005305E07E
:100F3C004FF4007302E0202300E00223274A5360A1
:100F4C007B68002283F820207B689B6A002B34D0BE
:100F5C007B689B6A786898472FE07B681B6C08223B
:100F6C009A40FB681340002B28D0BB6803F00803A1
:100F7C00002B23D07B681B681A687B681B6822F0E7
:100F8C000E021A607B681A6C7B68DB6B012101FA1C
:100F9C0002F25A607B6801229A637B68012283F813
:100FAC0021207B68002283F820207B681B6B002BA0
:100FBC0004D07B681B6B7868984700BF00BF103764
:100FCC00BD4680BD080002401C00024030000240BB
:100FDC0044000240580002406C00024000000240F5
:100FEC0080B48BB000AF7860396000237B62002343
:100FFC003B6261E101227B6A02FA03F3FB613B680D
:10100C001B68FA691340BB61BA69FB699A4240F0EC
:10101C0050813B685B68974A93425ED0954A9342F5
:10102C0075D8954A934258D0934A93426FD8934AB5
:10103C00934252D0914A934269D8914A93424CD0F0
:10104C008F4A934263D88F4A934246D08D4A93423B
:10105C005DD8122B2AD8122B59D801A252F823F0A2
:10106C00E7100008C1100008D31000081511000883
:10107C001B1100081B1100081B1100081B11000894
:10108C001B1100081B1100081B1100081B11000884
:10109C001B1100081B1100081B1100081B11000874
:1010AC001B110008C9100008DD100008764A934295
:1010BC0013D02CE03B68DB683B6229E03B68DB68C3
:1010CC0004333B6224E03B68DB6808333B621FE07F
:1010DC003B68DB680C333B621AE03B689B68002B77
:1010EC0002D104233B6213E03B689B68012B05D1C2
:1010FC0008233B627B68FA691A6109E008233B62AA
:10110C007B68FA695A6103E000233B6200E000BF90
:10111C00BB69FF2B01D87B6801E07B6804337B61E2
:10112C00BB69FF2B02D87B6A9B0002E07B6A083B01
:10113C009B003B617B691A680F213B6901FA03F341
:10114C00DB431A40396A3B6901FA03F31A437B69A2
:10115C001A603B685B6803F08053002B00F0A98099
:10116C004A4B9B69494A43F001039361474B9B6986
:10117C0003F00103BB60BB68454A7B6A9B080233E2
:10118C0052F82330FB607B6A03F003039B000F22B1
:10119C0002FA03F3DB43FA681340FB607B683D4AB9
:1011AC0093420DD07B683C4A934207D07B683B4A04
:1011BC00934201D1022304E0032302E0012300E067
:1011CC0000237A6A02F0030292009340FA681343F8
:1011DC00FB602F497B6A9B080233FA6841F8232095
:1011EC003B685B6803F48013002B06D02C4B9A6889
:1011FC002B49BB6913438B6006E0294B9A68BB698A
:10120C00DB43274913408B603B685B6803F4001396
:10121C00002B06D0224BDA682149BB691343CB6003
:10122C0006E01F4BDA68BB69DB431D491340CB60FA
:10123C003B685B6803F40033002B06D0184B5A68EC
:10124C001749BB6913434B6006E0154B5A68BB69E1
:10125C00DB43134913404B603B685B6803F48033FA
:10126C00002B1FD00E4B1A680D49BB6913430B6042
:10127C001FE000BF000032100000311000002210EF
:10128C00000021100000121000001110001002408C
:10129C000000014000080140000C0140001001401A
:1012AC00000401400B4B1A68BB69DB43094913402E
:1012BC000B607B6A01337B623B681A687B6A22FA9B
:1012CC0003F3002B7FF496AE00BF00BF2C37BD4656
:1012DC0080BC70470004014080B485B000AF7860DA
:1012EC000B467B807B689A687B881340002B02D06E
:1012FC000123FB7301E00023FB73FB7B18461437BF
:10130C00BD4680BC704780B483B000AF78600B469C
:10131C007B8013467B707B78002B03D07A887B68AC
:10132C001A6103E07B881A047B681A6100BF0C37D2
:10133C00BD4680BC7047000080B586B000AF7860B9
:10134C007B68002B01D1012372E27B681B6803F0E0
:10135C000103002B00F08780924B5B6803F00C03B9
:10136C00042B0CD08F4B5B6803F00C03082B12D1B1
:10137C008C4B5B6803F48033B3F5803F0BD1894B06
:10138C001B6803F40033002B6CD07B685B68002B6C
:10139C0068D101234CE27B685B68B3F5803F06D1D2
:1013AC00804B1B687F4A43F4803313602EE07B68CC
:1013BC005B68002B0CD17B4B1B687A4A23F480337F
:1013CC001360784B1B68774A23F4802313601DE06D
:1013DC007B685B68B3F5A02F0CD1724B1B68714A0C
:1013EC0043F4802313606F4B1B686E4A43F48033C5
:1013FC0013600BE06B4B1B686A4A23F48033136059
:10140C00684B1B68674A23F4802313607B685B6816
:10141C00002B13D0FFF736F9386108E0FFF732F9EB
:10142C0002463B69D31A642B01D9032300E25D4BBE
:10143C001B6803F40033002BF0D014E0FFF722F903
:10144C00386108E0FFF71EF902463B69D31A642B9A
:10145C0001D90323ECE1534B1B6803F40033002B3D
:10146C00F0D100E000BF7B681B6803F00203002B87
:10147C0063D04C4B5B6803F00C03002B0BD0494B37
:10148C005B6803F00C03082B1CD1464B5B6803F420
:10149C008033002B16D1434B1B6803F00203002B47
:1014AC0005D07B681B69012B01D00123C0E13D4BAA
:1014BC001B6823F0F8027B685B69DB003949134336
:1014CC000B603AE07B681B69002B20D0364B012265
:1014DC001A60FFF7D7F8386108E0FFF7D3F8024637
:1014EC003B69D31A022B01D90323A1E12D4B1B68B5
:1014FC0003F00203002BF0D02A4B1B6823F0F802F8
:10150C007B685B69DB00274913430B6015E0264BB6
:10151C0000221A60FFF7B6F8386108E0FFF7B2F85E
:10152C0002463B69D31A022B01D9032380E11D4BE0
:10153C001B6803F00203002BF0D17B681B6803F0DF
:10154C000803002B3AD07B689B69002B19D0174BF2
:10155C0001221A60FFF796F8386108E0FFF792F85D
:10156C0002463B69D31A022B01D9032360E10D4BD0
:10157C005B6A03F00203002BF0D0012000F09CFA10
:10158C001CE00A4B00221A60FFF77CF838610FE070
:10159C00FFF778F802463B69D31A022B08D90323CC
:1015AC0046E100BF0010024000004242800442426B
:1015BC00924B5B6A03F00203002BE9D17B681B683A
:1015CC0003F00403002B00F0A6800023FB758B4B6B
:1015DC00DB6903F08053002B0DD1884BDB69874A04
:1015EC0043F08053D361854BDB6903F08053BB60C0
:1015FC00BB680123FB75824B1B6803F48073002BC3
:10160C0018D17F4B1B687E4A43F480731360FFF73D
:10161C0039F8386108E0FFF735F802463B69D31A10
:10162C00642B01D9032303E1754B1B6803F480730E
:10163C00002BF0D07B68DB68012B06D16F4B1B6A4B
:10164C006E4A43F0010313622DE07B68DB68002BCC
:10165C000CD16A4B1B6A694A23F001031362674B76
:10166C001B6A664A23F0040313621CE07B68DB6888
:10167C00052B0CD1614B1B6A604A43F004031362C7
:10168C005E4B1B6A5D4A43F0010313620BE05B4B3C
:10169C001B6A5A4A23F001031362584B1B6A574AC0
:1016AC0023F0040313627B68DB68002B15D0FEF774
:1016BC00E9FF38610AE0FEF7E5FF02463B69D31A01
:1016CC0041F28832934201D90323B1E04B4B1B6AA0
:1016DC0003F00203002BEED014E0FEF7D3FF3861C9
:1016EC000AE0FEF7CFFF02463B69D31A41F288327B
:1016FC00934201D903239BE0404B1B6A03F0020386
:10170C00002BEED1FB7D012B05D13C4BDB693B4A19
:10171C0023F08053D3617B68DB69002B00F087805A
:10172C00364B5B6803F00C03082B61D07B68DB69DC
:10173C00022B46D1334B00221A60FEF7A3FF38610F
:10174C0008E0FEF79FFF02463B69D31A022B01D932
:10175C0003236DE0294B1B6803F00073002BF0D1C1
:10176C007B681B6AB3F5803F08D1244B5B6823F47C
:10177C0000327B689B68214913434B601F4B5B68AD
:10178C0023F474127B68196A7B685B6A0B431B49F0
:10179C0013434B601B4B01221A60FEF773FF386139
:1017AC0008E0FEF76FFF02463B69D31A022B01D902
:1017BC0003233DE0114B1B6803F00073002BF0D0AA
:1017CC0035E0104B00221A60FEF75CFF386108E030
:1017DC00FEF758FF02463B69D31A022B01D90323AB
:1017EC0026E0064B1B6803F00073002BF0D11EE0C3
:1017FC007B68DB69012B07D1012319E00010024043
:10180C0000700040600042420B4B5B68FB60FB6861
:10181C0003F480327B681B6A9A4206D1FB6803F49E
:10182C0070127B685B6A9A4201D0012300E00023AE
:10183C0018461837BD4680BD0010024080B584B0F4
:10184C0000AF786039607B68002B01D10123D0E0B8
:10185C006A4B1B6803F007033A689A4210D9674B2E
:10186C001B6823F0070265493B6813430B60634B0D
:10187C001B6803F007033A689A4201D00123B8E0D1
:10188C007B681B6803F00203002B20D07B681B686D
:10189C0003F00403002B05D0594B5B68584A43F402
:1018AC00E06353607B681B6803F00803002B05D0D2
:1018BC00534B5B68524A43F460535360504B5B6824
:1018CC0023F0F0027B689B684D4913434B607B68A7
:1018DC001B6803F00103002B40D07B685B68012B75
:1018EC0007D1474B1B6803F40033002B15D10123A0
:1018FC007FE07B685B68022B07D1414B1B6803F0D0
:10190C000073002B09D1012373E03D4B1B6803F0DE
:10191C000203002B01D101236BE0394B5B6823F0F0
:10192C0003027B685B68364913434B60FEF7AAFEE3
:10193C00F8600AE0FEF7A6FE0246FB68D31A41F2F5
:10194C008832934201D9032353E02D4B5B6803F09B
:10195C000C027B685B689B009A42EBD1274B1B689F
:10196C0003F007033A689A4210D2244B1B6823F009
:10197C00070222493B6813430B60204B1B6803F0A2
:10198C0007033A689A4201D0012332E07B681B6856
:10199C0003F00403002B08D0194B5B6823F4E062BE
:1019AC007B68DB68164913434B607B681B6803F04C
:1019BC000803002B09D0124B5B6823F460527B6840
:1019CC001B69DB000E4913434B6000F021F8024603
:1019DC000B4B5B681B0903F00F030A49CB5C22FA23
:1019EC0003F3094A1360094B1B681846FEF708FEFF
:1019FC00002318461037BD4680BD00BF00200240B2
:101A0C0000100240E41C000800000020040000202C
:101A1C0080B487B000AF0023FB600023BB600023C1
:101A2C007B6100237B6000233B611E4B5B68FB608A
:101A3C00FB6803F00C03042B02D0082B03D027E027
:101A4C00194B3B6127E0FB689B0C03F00F03174A13
:101A5C00D35C7B60FB6803F48033002B10D0114BFC
:101A6C005B685B0C03F00103114AD35CBB607B68C1
:101A7C000D4A03FB02F2BB68B2FBF3F37B6104E09B
:101A8C007B680C4A02FB03F37B617B693B6102E0E0
:101A9C00054B3B6100BF3B6918461C37BD4680BCFB
:101AAC00704700BF0010024000127A00F41C0008BE
:101ABC00041D000800093D0080B485B000AF7860BB
:101ACC000A4B1B680A4AA2FB03235B0A7A6802FBD7
:101ADC0003F3FB6000BFFB685A1EFA60002BF9D1C0
:101AEC0000BF00BF1437BD4680BC7047000000200B
:101AFC00D34D621080B586B000AF786000233B6197
:101B0C000023FB607B681B6803F00103002B7DD076
:101B1C000023FB754F4BDB6903F08053002B0DD179
:101B2C004C4BDB694B4A43F08053D361494BDB6927
:101B3C0003F08053BB60BB680123FB75464B1B68ED
:101B4C0003F48073002B18D1434B1B68424A43F4B7
:101B5C0080731360FEF796FD386108E0FEF792FD86
:101B6C0002463B69D31A642B01D903236DE03A4B2F
:101B7C001B6803F48073002BF0D0364B1B6A03F404
:101B8C004073FB60FB68002B2ED07B685B6803F412
:101B9C004073FA689A4227D02E4B1B6A23F4407389
:101BAC00FB602E4B01221A602C4B00221A60294A32
:101BBC00FB681362FB6803F00103002B14D0FEF7E3
:101BCC0061FD38610AE0FEF75DFD02463B69D31A00
:101BDC0041F28832934201D9032336E01D4B1B6A34
:101BEC0003F00203002BEED01A4B1B6A23F4407255
:101BFC007B685B68174913430B62FB7D012B05D196
:101C0C00144BDB69134A23F08053D3617B681B6848
:101C1C0003F00203002B08D00E4B5B6823F4404208
:101C2C007B689B680B4913434B607B681B6803F014
:101C3C001003002B08D0074B5B6823F480027B68F1
:101C4C00DB68044913434B60002318461837BD4624
:101C5C0080BD00BF001002400070004040044242B2
:101C6C0003460244934200D1704703F8011BF9E785
:101C7C0070B500260C4D0D4C641BA410A64209D166
:101C8C0000F01AF800260A4D0A4C641BA410A64258
:101C9C0005D170BD55F8043B98470136EEE755F871
:101CAC00043B98470136F2E7081D0008081D0008A0
:101CBC00081D00080C1D0008F8B500BFF8BC08BCD6
:101CCC009E467047F8B500BFF8BC08BC9E467047EE
:101CDC000206040C080901030000000000000000CB
:101CEC000102030406070809020304050607080994
:0C1CFC000A0B0C0D0E0F1010010200006E
:041D0800310100089D
:041D0C000D010008BD
:0C1D10000024F40010000000010000009E
:040000050800059555
:00000001FF
