:020000040800F2
:100000000028002035140008D1130008D913000877
:10001000E1130008E9130008F113000800000000D4
:10002000000000000000000000000000F9130008BC
:100030000514000800000000111400081D14000839
:100040007D1400087D1400087D1400087D1400084C
:100050007D1400087D1400087D1400087D1400083C
:100060007D1400087D1400087D1400087D1400082C
:100070007D1400087D1400087D1400087D1400081C
:100080007D1400087D1400087D1400087D1400080C
:100090007D1400087D1400087D1400087D140008FC
:1000A0007D1400087D1400087D1400087D140008EC
:1000B0007D1400087D140008000000007D14000875
:1000C0007D14000800000000000000007D140008FE
:1000D000000000007D1400087D14000800000000EE
:1000E0007D1400087D1400087D1400080000000045
:1000F0000000000000000000000000000000000000
:0C01000000000000000000005FF808F1A3
:1001100010B5054C237833B9044B13B10448AFF341
:1001200000800123237010BD0C000020000000009F
:10013000B033000808B5034B1BB103490348AFF3C4
:10014000008008BD0000000010000020B03300084F
:1001500081F0004102E000BF83F0004330B54FEA78
:1001600041044FEA430594EA050F08BF90EA020FE5
:100170001FBF54EA000C55EA020C7FEA645C7FEA78
:10018000655C00F0E2804FEA5454D4EB5555B8BF9B
:100190006D420CDD2C4480EA020281EA030382EA0C
:1001A000000083EA010180EA020281EA0303362D9E
:1001B00088BF30BD11F0004F4FEA01314FF4801C71
:1001C0004CEA113102D0404261EB410113F0004F83
:1001D0004FEA03334CEA133302D0524263EB43033A
:1001E00094EA050F00F0A780A4F10104D5F1200ED8
:1001F0000DDB02FA0EFC22FA05F2801841F1000133
:1002000003FA0EF2801843FA05F359410EE0A5F106
:1002100020050EF1200E012A03FA0EFC28BF4CF037
:10022000020C43FA05F3C01851EBE37101F00045ED
:1002300007D54FF0000EDCF1000C7EEB00006EEBFA
:100240000101B1F5801F1BD3B1F5001F0CD3490884
:100250005FEA30004FEA3C0C04F101044FEA4452DB
:1002600012F5800F80F09A80BCF1004F08BF5FEA62
:10027000500C50F1000041EB045141EA050130BD42
:100280005FEA4C0C404141EB0101013C28BFB1F554
:10029000801FE9D291F0000F04BF01460020B1FA9F
:1002A00081F308BF2033A3F10B03B3F120020CDA72
:1002B0000C3208DD02F1140CC2F10C0201FA0CF050
:1002C00021FA02F10CE002F11402D8BFC2F1200CB5
:1002D00001FA02F120FA0CFCDCBF41EA0C0190406B
:1002E000E41AA2BF01EB0451294330BD6FEA0404B4
:1002F0001F3C1CDA0C340EDC04F11404C4F120029F
:1003000020FA04F001FA02F340EA030021FA04F3B0
:1003100045EA030130BDC4F10C04C4F1200220FA07
:1003200002F001FA04F340EA0300294630BD21FA45
:1003300004F0294630BD94F0000F83F4801306BF0B
:1003400081F480110134013D4EE77FEA645C18BFFF
:100350007FEA655C29D094EA050F08BF90EA020F96
:1003600005D054EA000C04BF1946104630BD91EA8E
:10037000030F1EBF0021002030BD5FEA545C05D191
:100380004000494128BF41F0004130BD14F58004D0
:100390003CBF01F5801130BD01F0004545F0FE4144
:1003A00041F470014FF0000030BD7FEA645C1ABF79
:1003B000194610467FEA655C1CBF0B46024650EAB0
:1003C000013406BF52EA033591EA030F41F40021DC
:1003D00030BD00BF90F0000F04BF0021704730B562
:1003E0004FF4806404F132044FF000054FF0000137
:1003F00050E700BF90F0000F04BF0021704730B5F8
:100400004FF4806404F1320410F0004548BF4042CC
:100410004FF000013EE700BF42004FEAE2014FEA21
:1004200031014FEA02701FBF12F07F4393F07F4FFC
:1004300081F06051704732F07F4208BF704793F0FF
:100440007F4F04BF41F40021704730B54FF4607412
:1004500001F0004521F000411CE700BF50EA010215
:1004600008BF704730B54FF000050AE050EA0102BE
:1004700008BF704730B511F0004502D5404261EB2E
:1004800041014FF4806404F132045FEA915C3FF46F
:10049000D8AE4FF003025FEADC0C18BF03325FEA0C
:1004A000DC0C18BF033202EBDC02C2F1200300FABD
:1004B00003FC20FA02F001FA03FE40EA0E0021FAE2
:1004C00002F11444BDE600BF70B54FF0FF0C4CF4D0
:1004D000E06C1CEA11541DBF1CEA135594EA0C0F82
:1004E00095EA0C0F00F0DEF82C4481EA030621EABD
:1004F0004C5123EA4C5350EA013518BF52EA0335F8
:1005000041F4801143F4801338D0A0FB02CE4FF0A9
:100510000005E1FB02E506F00042E0FB03E54FF0D9
:100520000006E1FB03569CF0000F18BF4EF0010ED1
:10053000A4F1FF04B6F5007F64F5407404D25FEACD
:100540004E0E6D4146EB060642EAC62141EA555180
:100550004FEAC52040EA5E504FEACE2EB4F1FD0CC2
:1005600088BFBCF5E06F1ED8BEF1004F08BF5FEA40
:10057000500E50F1000041EB045170BD06F00046F2
:1005800046EA010140EA020081EA0301B4EB5C049F
:10059000C2BFD4EB0C0541EA045170BD41F4801197
:1005A0004FF0000E013C00F3AB8014F1360FDEBFBC
:1005B000002001F0004170BDC4F10004203C35DA98
:1005C0000C341BDC04F11404C4F1200500FA05F31B
:1005D00020FA04F001FA05F240EA020001F00042BC
:1005E00021F0004110EBD37021FA04F642EB060132
:1005F0005EEA430E08BF20EAD37070BDC4F10C045C
:10060000C4F1200500FA04F320FA05F001FA04F21F
:1006100040EA020001F0004110EBD37041F100010B
:100620005EEA430E08BF20EAD37070BDC4F1200516
:1006300000FA05F24EEA020E20FA04F301FA05F27E
:1006400043EA020321FA04F001F0004121FA04F226
:1006500020EA020000EBD3705EEA430E08BF20EAF6
:10066000D37070BD94F0000F0FD101F00046400030
:1006700041EB010111F4801F08BF013CF7D041EAB2
:10068000060195F0000F18BF704703F000465200B6
:1006900043EB030313F4801F08BF013DF7D043EA87
:1006A0000603704794EA0C0F0CEA135518BF95EA3D
:1006B0000C0F0CD050EA410618BF52EA4306D1D1C4
:1006C00081EA030101F000414FF0000070BD50EAE3
:1006D000410606BF1046194652EA430619D094EA6D
:1006E0000C0F02D150EA013613D195EA0C0F05D157
:1006F00052EA03361CBF104619460AD181EA0301AB
:1007000001F0004141F0FE4141F470014FF0000062
:1007100070BD41F0FE4141F4780170BD70B54FF0FD
:10072000FF0C4CF4E06C1CEA11541DBF1CEA13557D
:1007300094EA0C0F95EA0C0F00F0A7F8A4EB05045F
:1007400081EA030E52EA03354FEA013100F0888056
:100750004FEA03334FF0805545EA131343EA12631F
:100760004FEA022245EA111545EA10654FEA0026D4
:100770000EF000419D4208BF964244F1FD0404F58D
:10078000407402D25B084FEA3202B61A65EB0305E9
:100790005B084FEA32024FF480104FF4002CB6EBA6
:1007A000020E75EB030E22BFB61A754640EA0C0026
:1007B0005B084FEA3202B6EB020E75EB030E22BF66
:1007C000B61A754640EA5C005B084FEA3202B6EBA7
:1007D000020E75EB030E22BFB61A754640EA9C0066
:1007E0005B084FEA3202B6EB020E75EB030E22BF36
:1007F000B61A754640EADC0055EA060E18D04FEAF4
:10080000051545EA16754FEA06164FEAC30343EA93
:1008100052734FEAC2025FEA1C1CC0D111F4801F60
:100820000BD141EA00014FF000004FF0004CB6E759
:1008300011F4801F04BF01430020B4F1FD0C88BFF8
:10084000BCF5E06F3FF6AFAEB5EB030C04BFB6EB03
:10085000020C5FEA500C50F1000041EB045170BDF6
:100860000EF0004E4EEA113114EB5C04C2BFD4EB23
:100870000C0541EA045170BD41F480114FF0000EA7
:10088000013C90E645EA060E8DE60CEA135594EA23
:100890000C0F08BF95EA0C0F3FF43BAF94EA0C0F26
:1008A0000AD150EA01347FF434AF95EA0C0F7FF49B
:1008B00025AF104619462CE795EA0C0F06D152EAEF
:1008C00003353FF4FDAE1046194622E750EA4106D3
:1008D00018BF52EA43067FF4C5AE50EA41047FF4E4
:1008E0000DAF52EA43057FF4EBAE12E74A0011D296
:1008F00012F5001211D20DD56FF47873B3EB62527A
:100900000ED44FEAC12343F0004343EA505323FA85
:1009100002F070474FF00000704750EA013002D1FA
:100920004FF0FF3070474FF0000070474FEA410230
:10093000B2F1E04324BFB3F5001CDCF1FE5C0DD93D
:1009400001F0004C4FEAC0024CEA5070B2F1004F87
:1009500040EB830008BF20F00100704711F0804F8A
:1009600021D113F13872BCBF01F00040704741F44F
:1009700080114FEA5252C2F11802C2F1200C10FA53
:100980000CF320FA02F018BF40F001004FEAC12337
:100990004FEAD32303FA0CFC40EA0C0023FA02F3DB
:1009A0004FEA4303CCE77FEA625307D150EA0133B1
:1009B0001EBF4FF0FE4040F44000704701F0004081
:1009C00040F0FE4040F40000704700BF80F000405F
:1009D00002E000BF81F0004142001FBF5FEA410317
:1009E00092EA030F7FEA226C7FEA236C6AD04FEA17
:1009F0001262D2EB1363C1BFD2184140484041405C
:100A0000B8BF5B42192B88BF704710F0004F40F40D
:100A1000000020F07F4018BF404211F0004F41F429
:100A2000000121F07F4118BF494292EA030F3FD0F5
:100A3000A2F1010241FA03FC10EB0C00C3F1200308
:100A400001FA03F100F0004302D5494260EB400097
:100A5000B0F5000F13D3B0F1807F06D340084FEA02
:100A6000310102F10102FE2A51D2B1F1004F40EBF7
:100A7000C25008BF20F0010040EA0300704749005F
:100A800040EB0000013A28BFB0F5000FEDD2B0FAFC
:100A900080FCACF1080CB2EB0C0200FA0CF0AABF1F
:100AA00000EBC25052421843BCBFD04018437047BD
:100AB00092F0000F81F4000106BF80F400000132C3
:100AC000013BB5E74FEA41037FEA226C18BF7FEA9A
:100AD000236C21D092EA030F04D092F0000F08BFDC
:100AE0000846704790EA010F1CBF0020704712F0C3
:100AF0007F4F04D1400028BF40F00040704712F102
:100B000000723CBF00F50000704700F0004343F066
:100B1000FE4040F4000070477FEA226216BF08469C
:100B20007FEA23630146420206BF5FEA412390EA5F
:100B3000010F40F4800070474FF0000304E000BF55
:100B400010F0004348BF40425FEA000C08BF704706
:100B500043F0964301464FF000001CE050EA0102CA
:100B600008BF70474FF000030AE000BF50EA0102DF
:100B700008BF704711F0004302D5404261EB4101CC
:100B80005FEA010C02BF84460146002043F0B643F1
:100B900008BFA3F18053A3F50003BCFA8CF2083A16
:100BA000A3EBC25310DB01FA02FC634400FA02FC1F
:100BB000C2F12002BCF1004F20FA02F243EB020026
:100BC00008BF20F00100704702F1200201FA02FC88
:100BD000C2F1200250EA4C0021FA02F243EB02007B
:100BE00008BF20EADC7070474FF0FF0C1CEAD052BF
:100BF0001EBF1CEAD15392EA0C0F93EA0C0F6FD080
:100C00001A4480EA010C400218BF5FEA41211ED05D
:100C10004FF0006343EA501043EA5111A0FB013149
:100C20000CF00040B1F5000F3EBF490041EAD3711E
:100C30005B0040EA010062F17F02FD2A1DD8B3F19A
:100C4000004F40EBC25008BF20F00100704790F009
:100C5000000F0CF0004C08BF49024CEA502040EA5B
:100C600051207F3AC2BFD2F1FF0340EAC250704721
:100C700040F400004FF00003013A5DDC12F1190F5F
:100C8000DCBF00F000407047C2F10002410021FAD1
:100C900002F1C2F1200200FA02FC5FEA310040F1E9
:100CA000000053EA4C0308BF20EADC70704792F062
:100CB000000F00F0004C02BF400010F4000F013A9A
:100CC000F9D040EA0C0093F0000F01F0004C02BF95
:100CD000490011F4000F013BF9D041EA0C018FE704
:100CE0000CEAD15392EA0C0F18BF93EA0C0F0AD00A
:100CF00030F0004C18BF31F0004CD8D180EA010030
:100D000000F00040704790F0000F17BF90F0004FC8
:100D1000084691F0000F91F0004F14D092EA0C0FAA
:100D200001D142020FD193EA0C0F03D14B0218BF3D
:100D3000084608D180EA010000F0004040F0FE4083
:100D400040F40000704740F0FE4040F4400070471F
:100D50004FF0FF0C1CEAD0521EBF1CEAD15392EA9E
:100D60000C0F93EA0C0F69D0A2EB030280EA010C8E
:100D700049024FEA402037D04FF0805343EA111127
:100D800043EA10130CF000408B4238BF5B0042F185
:100D90007D024FF4000C8B4224BF5B1A40EA0C002A
:100DA000B3EB510F24BFA3EB510340EA5C00B3EB5C
:100DB000910F24BFA3EB910340EA9C00B3EBD10F4A
:100DC00024BFA3EBD10340EADC001B0118BF5FEA9C
:100DD0001C1CE0D1FD2A3FF650AF8B4240EBC250C5
:100DE00008BF20F0010070470CF0004C4CEA502086
:100DF0007F32C2BFD2F1FF0340EAC250704740F4D5
:100E000000004FF00003013A37E792F0000F00F0C6
:100E1000004C02BF400010F4000F013AF9D040EA44
:100E20000C0093F0000F01F0004C02BF490011F4D8
:100E3000000F013BF9D041EA0C0195E70CEAD153D0
:100E400092EA0C0F08D142027FF47DAF93EA0C0FB7
:100E50007FF470AF084676E793EA0C0F04D14B029B
:100E60003FF44CAF08466EE730F0004C18BF31F04D
:100E7000004CCAD130F000427FF45CAF31F0004347
:100E80007FF43CAF5FE700BF4FF0FF3C06E000BFE0
:100E90004FF0010C02E000BF4FF0010C4DF804CD03
:100EA0004FEA40024FEA41037FEA226C18BF7FEA13
:100EB000236C11D001B052EA530C18BF90EA010F15
:100EC00058BFB2EB030088BFC81738BF6FEAE170A4
:100ED00018BF40F0010070477FEA226C02D15FEA40
:100EE000402C05D17FEA236CE4D15FEA412CE1D0AC
:100EF0005DF8040B704700BF844608466146FFE773
:100F00000FB5FFF7C9FF002848BF10F1000F0FBD54
:100F10004DF808EDFFF7F4FF0CBF012000205DF84D
:100F200008FB00BF4DF808EDFFF7EAFF34BF0120D2
:100F300000205DF808FB00BF4DF808EDFFF7E0FF6B
:100F400094BF012000205DF808FB00BF4DF808EDBC
:100F5000FFF7D2FF94BF012000205DF808FB00BF1F
:100F60004DF808EDFFF7C8FF34BF012000205DF801
:100F700008FB00BF4FEA4002B2F1FE4F0FD34FF023
:100F80009E03B3EB12620DD94FEA002343F00043F6
:100F900010F0004F23FA02F018BF404270474FF0A4
:100FA0000000704712F1610F01D1420205D110F02B
:100FB000004008BF6FF0004070474FF000007047DE
:100FC00080B485B000AFF8600B467A607B81074A39
:100FD000FB681360064A7B891380064A7B681360AE
:100FE00000BF1437BD4680BC704700BF28000020FA
:100FF0002C0000203000002080B582B000AF0346F6
:10100000FB800E4B1B680E4A11880022184600F028
:101010001DFD0C4B1868B91D4FF47A73012201F0C5
:101020008FF9064B1B68064A11880122184600F00A
:101030000DFD00BF0837BD4680BD00BF3000002059
:101040002C00002028000020B0B584B000AF7860EC
:101050000B467B800023FB6053E0F868FFF770FDD0
:10106000034619461846FFF7B7FC03461846FFF734
:10107000D3F929A3D3E90023FFF726FA02460B464A
:1010800014461D467B881846FFF7B4F902460B4606
:1010900020462946FFF742FB02460B4610461946FA
:1010A000FFF744FC0346BB60B86801F073FB0346DE
:1010B0004FF07E511846FFF78FFC0346184918463B
:1010C000FFF792FD034617491846FFF741FE034616
:1010D0001846FFF7A1F902460B461046194601F0E3
:1010E00093FB02460B46F96849007868441810469D
:1010F0001946FFF7FBFB03469BB22380FB680133D5
:10110000FB607B88FA689A42A7DB00BF00BF1037FC
:10111000BD46B0BDAFF30080182D4454FB210940FB
:1011200000FF7F470000204180B582B000AF00F093
:10113000A7F900F02DF800F0A3F800F069F8114AC3
:1011400010211148FFF73CFF4FF4B47319460F48C4
:10115000FFF77AFF00237B600CE00C4A7B6832F8D3
:1011600013301846FFF748FF012000F0EBF97B68C9
:1011700001337B604FF4B4731A467B689342ECDB17
:10118000E8E700BF00080140340000208C00002088
:1011900080B590B000AF07F118032822002118464F
:1011A00001F0CBFA3B1D00221A605A609A60DA60A7
:1011B0001A610223BB610123BB621023FB6202237D
:1011C0007B630023BB634FF40023FB6307F1180329
:1011D000184600F053FC0346002B01D000F082F8C3
:1011E0000F237B600223BB600023FB6000233B6175
:1011F00000237B613B1D0021184600F0C1FE034621
:10120000002B01D000F06EF800BF4037BD4680BD16
:1012100080B500AF184B194A1A60174B4FF4827211
:101220005A60154B00229A60134B4FF40062DA604B
:10123000114B00221A61104B00225A610E4B4FF4E1
:1012400000729A610C4B0022DA610B4B00221A6289
:10125000094B00225A62084B00229A62064B0A226E
:10126000DA62054800F0E8FF0346002B01D000F0E9
:1012700039F800BF80BD00BF3400002000300140BD
:1012800080B586B000AF07F1080300221A605A60EB
:101290009A60DA60114B9B69104A43F00403936132
:1012A0000E4B9B6903F004037B607B6800221021D6
:1012B0000B4800F0CBFB1023BB600123FB60002335
:1012C0003B6102237B6107F108031946044800F0E3
:1012D00041FA00BF1837BD4680BD00BF0010024074
:1012E0000008014080B400AF72B600BF00BFFDE748
:1012F00080B485B000AF154B9B69144A43F00103DD
:101300009361124B9B6903F00103BB60BB680F4BF9
:10131000DB690E4A43F08053D3610C4BDB6903F069
:1013200080537B607B680A4B5B68FB60FB6823F043
:10133000E063FB60FB6843F08063FB60044AFB688A
:10134000536000BF1437BD4680BC70470010024098
:101350000000014080B588B000AF786007F110034D
:1013600000221A605A609A60DA607B681B68154A2E
:10137000934223D1144B9B69134A43F480539361E6
:10138000114B9B6903F48053FB60FB680E4B9B6918
:101390000D4A43F0040393610B4B9B6903F0040374
:1013A000BB60BB68A0233B6102237B610323FB611D
:1013B00007F110031946054800F0CCF900BF2037AB
:1013C000BD4680BD003001400010024000080140D1
:1013D00080B400AF00BFFDE780B400AF00BFFDE701
:1013E00080B400AF00BFFDE780B400AF00BFFDE7F1
:1013F00080B400AF00BFFDE780B400AF00BFBD46C2
:1014000080BC704780B400AF00BFBD4680BC704751
:1014100080B400AF00BFBD4680BC704780B500AF50
:1014200000F074F800BF80BD80B400AF00BFBD46BF
:1014300080BC7047FFF7F8FF0B480C490C4A0023AB
:1014400002E0D458C4500433C4188C42F9D3094A7A
:10145000094C002301E013600432A242FBD301F0E7
:1014600075F9FFF761FE7047000000200C000020B6
:10147000C43700080C00002060030020FEE70000D5
:1014800080B500AF084B1B68074A43F01003136098
:10149000032000F02BF90F2000F008F8FFF728FFD9
:1014A0000023184680BD00BF0020024080B582B0F6
:1014B00000AF7860124B1A68124B1B7819464FF434
:1014C0007A73B3FBF1F3B2FBF3F3184600F035F98E
:1014D0000346002B01D001230EE07B680F2B0AD8B6
:1014E000002279684FF0FF3000F00BF9064A7B6864
:1014F0001360002300E0012318460837BD4680BD75
:1015000000000020080000200400002080B400AF8C
:10151000054B1B781A46054B1B681344034A13609E
:1015200000BFBD4680BC7047080000205C0300205F
:1015300080B400AF024B1B681846BD4680BC7047A4
:101540005C03002080B584B000AF7860FFF7F0FF47
:10155000B8607B68FB60FB68B3F1FF3F05D00A4BC6
:101560001B781A46FB681344FB6000BFFFF7E0FFDF
:101570000246BB68D31AFA689A42F7D800BF00BF88
:101580001037BD4680BD00BF0800002080B485B084
:1015900000AF78607B6803F00703FB600C4BDB68EF
:1015A000BB60BA684FF6FF031340BB60FB681A02CA
:1015B000BB68134343F0BF6343F40033BB60044A8A
:1015C000BB68D36000BF1437BD4680BC704700BF06
:1015D00000ED00E080B400AF044BDB681B0A03F0B1
:1015E00007031846BD4680BC704700BF00ED00E011
:1015F00080B483B000AF03463960FB7197F90730C0
:10160000002B0ADB3B68DAB20C4997F9073012016C
:10161000D2B20B4483F800230AE03B68DAB20849EF
:10162000FB7903F00F03043B1201D2B20B441A768C
:1016300000BF0C37BD4680BC704700BF00E100E032
:1016400000ED00E080B489B000AFF860B9607A6066
:10165000FB6803F00703FB61FB69C3F10703042B7D
:1016600028BF0423BB61FB690433062B02D9FB6945
:10167000033B00E000237B614FF0FF32BB6902FABD
:1016800003F3DA43BB681A407B699A404FF0FF319D
:101690007B6901FA03F3D9437B680B401343184677
:1016A0002437BD4680BC704780B582B000AF7860FB
:1016B0007B68013BB3F1807F01D301230FE00A4A2D
:1016C0007B68013B53600F214FF0FF30FFF790FF25
:1016D000054B00229A60044B07221A60002318462B
:1016E0000837BD4680BD00BF10E000E080B582B085
:1016F00000AF78607868FFF749FF00BF0837BD4644
:1017000080BD80B586B000AF0346B9607A60FB73D8
:1017100000237B61FFF75EFF78617A68B9687869BA
:10172000FFF790FF024697F90F3011461846FFF772
:101730005FFF00BF1837BD4680BD80B582B000AFE7
:1017400078607868FFF7B0FF034618460837BD4653
:1017500080BD000080B48BB000AF7860396000239A
:101760007B6200233B6261E101227B6A02FA03F3A0
:10177000FB613B681B68FA691340BB61BA69FB698E
:101780009A4240F050813B685B68974A93425ED032
:10179000954A934275D8954A934258D0934A9342BA
:1017A0006FD8934A934252D0914A934269D8914A52
:1017B00093424CD08F4A934263D88F4A934246D08B
:1017C0008D4A93425DD8122B2AD8122B59D801A2E8
:1017D00052F823F04F180008291800083B18000899
:1017E0007D18000883180008831800088318000873
:1017F000831800088318000883180008831800085D
:10180000831800088318000883180008831800084C
:1018100083180008831800083118000845180008CC
:10182000764A934213D02CE03B68DB683B6229E0A8
:101830003B68DB6804333B6224E03B68DB680833C9
:101840003B621FE03B68DB680C333B621AE03B689D
:101850009B68002B02D104233B6213E03B689B682A
:10186000012B05D108233B627B68FA691A6109E004
:1018700008233B627B68FA695A6103E000233B62FC
:1018800000E000BFBB69FF2B01D87B6801E07B68EB
:1018900004337B61BB69FF2B02D87B6A9B0002E0AB
:1018A0007B6A083B9B003B617B691A680F213B699F
:1018B00001FA03F3DB431A40396A3B6901FA03F387
:1018C0001A437B691A603B685B6803F08053002B06
:1018D00000F0A9804A4B9B69494A43F00103936198
:1018E000474B9B6903F00103BB60BB68454A7B6AB9
:1018F0009B08023352F82330FB607B6A03F003033A
:101900009B000F2202FA03F3DB43FA681340FB60EB
:101910007B683D4A93420DD07B683C4A934207D096
:101920007B683B4A934201D1022304E0032302E097
:10193000012300E000237A6A02F003029200934040
:10194000FA681343FB602F497B6A9B080233FA68ED
:1019500041F823203B685B6803F48013002B06D01A
:101960002C4B9A682B49BB6913438B6006E0294BCB
:101970009A68BB69DB43274913408B603B685B680F
:1019800003F40013002B06D0224BDA682149BB690F
:101990001343CB6006E01F4BDA68BB69DB431D498C
:1019A0001340CB603B685B6803F40033002B06D028
:1019B000184B5A681749BB6913434B6006E0154B37
:1019C0005A68BB69DB43134913404B603B685B6853
:1019D00003F48033002B1FD00E4B1A680D49BB69EE
:1019E00013430B601FE000BF0000321000003110F5
:1019F0000000221000002110000012100000111041
:101A0000001002400000014000080140000C0140AD
:101A100000100140000401400B4B1A68BB69DB4316
:101A2000094913400B607B6A01337B623B681A688B
:101A30007B6A22FA03F3002B7FF496AE00BF00BF4F
:101A40002C37BD4680BC70470004014080B483B091
:101A500000AF78600B467B8013467B707B78002B51
:101A600003D07A887B681A6103E07B881A047B685C
:101A70001A6100BF0C37BD4680BC704780B586B088
:101A800000AF78607B68002B01D1012372E27B6894
:101A90001B6803F00103002B00F08780924B5B680A
:101AA00003F00C03042B0CD08F4B5B6803F00C038A
:101AB000082B12D18C4B5B6803F48033B3F5803F65
:101AC0000BD1894B1B6803F40033002B6CD07B686F
:101AD0005B68002B68D101234CE27B685B68B3F53F
:101AE000803F06D1804B1B687F4A43F480331360EC
:101AF0002EE07B685B68002B0CD17B4B1B687A4A1D
:101B000023F480331360784B1B68774A23F48023D7
:101B100013601DE07B685B68B3F5A02F0CD1724B9E
:101B20001B68714A43F4802313606F4B1B686E4A35
:101B300043F4803313600BE06B4B1B686A4A23F459
:101B400080331360684B1B68674A23F4802313605B
:101B50007B685B68002B13D0FFF7EAFC386108E074
:101B6000FFF7E6FC02463B69D31A642B01D9032335
:101B700000E25D4B1B6803F40033002BF0D014E04F
:101B8000FFF7D6FC386108E0FFF7D2FC02463B695C
:101B9000D31A642B01D90323ECE1534B1B6803F4E4
:101BA0000033002BF0D100E000BF7B681B6803F01E
:101BB0000203002B63D04C4B5B6803F00C03002B3B
:101BC0000BD0494B5B6803F00C03082B1CD1464B30
:101BD0005B6803F48033002B16D1434B1B6803F082
:101BE0000203002B05D07B681B69012B01D0012368
:101BF000C0E13D4B1B6823F0F8027B685B69DB00AA
:101C0000394913430B603AE07B681B69002B20D0F5
:101C1000364B01221A60FFF78BFC386108E0FFF7B2
:101C200087FC02463B69D31A022B01D90323A1E1A9
:101C30002D4B1B6803F00203002BF0D02A4B1B68CE
:101C400023F0F8027B685B69DB00274913430B60D4
:101C500015E0264B00221A60FFF76AFC386108E0A5
:101C6000FFF766FC02463B69D31A022B01D9032316
:101C700080E11D4B1B6803F00203002BF0D17B6851
:101C80001B6803F00803002B3AD07B689B69002B8C
:101C900019D0174B01221A60FFF74AFC386108E09F
:101CA000FFF746FC02463B69D31A022B01D90323F6
:101CB00060E10D4B5B6A03F00203002BF0D00120C2
:101CC00000F09CFA1CE00A4B00221A60FFF730FC7F
:101CD00038610FE0FFF72CFC02463B69D31A022B58
:101CE00008D9032346E100BF001002400000424231
:101CF00080044242924B5B6A03F00203002BE9D15D
:101D00007B681B6803F00403002B00F0A68000230F
:101D1000FB758B4BDB6903F08053002B0DD1884B97
:101D2000DB69874A43F08053D361854BDB6903F05D
:101D30008053BB60BB680123FB75824B1B6803F4B7
:101D40008073002B18D17F4B1B687E4A43F480734D
:101D50001360FFF7EDFB386108E0FFF7E9FB02468F
:101D60003B69D31A642B01D9032303E1754B1B682C
:101D700003F48073002BF0D07B68DB68012B06D165
:101D80006F4B1B6A6E4A43F0010313622DE07B68C0
:101D9000DB68002B0CD16A4B1B6A694A23F00103F4
:101DA0001362674B1B6A664A23F0040313621CE04C
:101DB0007B68DB68052B0CD1614B1B6A604A43F0E2
:101DC000040313625E4B1B6A5D4A43F00103136216
:101DD0000BE05B4B1B6A5A4A23F001031362584B1A
:101DE0001B6A574A23F0040313627B68DB68002BED
:101DF00015D0FFF79DFB38610AE0FFF799FB02461B
:101E00003B69D31A41F28832934201D90323B1E0EE
:101E10004B4B1B6A03F00203002BEED014E0FFF7DC
:101E200087FB38610AE0FFF783FB02463B69D31A60
:101E300041F28832934201D903239BE0404B1B6A55
:101E400003F00203002BEED1FB7D012B05D13C4BAF
:101E5000DB693B4A23F08053D3617B68DB69002B4D
:101E600000F08780364B5B6803F00C03082B61D0D1
:101E70007B68DB69022B46D1334B00221A60FFF7E7
:101E800057FB386108E0FFF753FB02463B69D31A62
:101E9000022B01D903236DE0294B1B6803F000736B
:101EA000002BF0D17B681B6AB3F5803F08D1244B2F
:101EB0005B6823F400327B689B68214913434B60C5
:101EC0001F4B5B6823F474127B68196A7B685B6A3A
:101ED0000B431B4913434B601B4B01221A60FFF756
:101EE00027FB386108E0FFF723FB02463B69D31A62
:101EF000022B01D903233DE0114B1B6803F0007353
:101F0000002BF0D035E0104B00221A60FFF710FBD9
:101F1000386108E0FFF70CFB02463B69D31A022B3D
:101F200001D9032326E0064B1B6803F00073002B46
:101F3000F0D11EE07B68DB69012B07D1012319E09A
:101F40000010024000700040600042420B4B5B6892
:101F5000FB60FB6803F480327B681B6A9A4206D1FF
:101F6000FB6803F470127B685B6A9A4201D001231C
:101F700000E0002318461837BD4680BD001002401F
:101F800080B584B000AF786039607B68002B01D1E8
:101F90000123D0E06A4B1B6803F007033A689A42BA
:101FA00010D9674B1B6823F0070265493B68134350
:101FB0000B60634B1B6803F007033A689A4201D039
:101FC0000123B8E07B681B6803F00203002B20D0DC
:101FD0007B681B6803F00403002B05D0594B5B683A
:101FE000584A43F4E06353607B681B6803F00803BE
:101FF000002B05D0534B5B68524A43F46053536047
:10200000504B5B6823F0F0027B689B684D4913439B
:102010004B607B681B6803F00103002B40D07B689A
:102020005B68012B07D1474B1B6803F40033002B7F
:1020300015D101237FE07B685B68022B07D1414B00
:102040001B6803F00073002B09D1012373E03D4BA3
:102050001B6803F00203002B01D101236BE0394B15
:102060005B6823F003027B685B68364913434B606F
:10207000FFF75EFAF8600AE0FFF75AFA0246FB68DB
:10208000D31A41F28832934201D9032353E02D4BF6
:102090005B6803F00C027B685B689B009A42EBD1A3
:1020A000274B1B6803F007033A689A4210D2244B6F
:1020B0001B6823F0070222493B6813430B60204B47
:1020C0001B6803F007033A689A4201D0012332E00B
:1020D0007B681B6803F00403002B08D0194B5B6876
:1020E00023F4E0627B68DB68164913434B607B682E
:1020F0001B6803F00803002B09D0124B5B6823F424
:1021000060527B681B69DB000E4913434B6000F093
:1021100021F802460B4B5B681B0903F00F030A49C9
:10212000CB5C22FA03F3094A1360094B1B6818467B
:10213000FFF7BCF9002318461037BD4680BD00BF2D
:102140000020024000100240C833000800000020B8
:102150000400002080B487B000AF0023FB600023A0
:10216000BB6000237B6100237B6000233B611E4B2F
:102170005B68FB60FB6803F00C03042B02D0082BA8
:1021800003D027E0194B3B6127E0FB689B0C03F071
:102190000F03174AD35C7B60FB6803F48033002B8A
:1021A00010D0114B5B685B0C03F00103114AD35C48
:1021B000BB607B680D4A03FB02F2BB68B2FBF3F322
:1021C0007B6104E07B680C4A02FB03F37B617B6963
:1021D0003B6102E0054B3B6100BF3B6918461C3781
:1021E000BD4680BC704700BF0010024000127A005C
:1021F000D8330008E833000800093D0080B485B0FA
:1022000000AF78600A4B1B680A4AA2FB03235B0AF3
:102210007A6802FB03F3FB6000BFFB685A1EFA609A
:10222000002BF9D100BF00BF1437BD4680BC7047FA
:1022300000000020D34D621080B582B000AF7860FE
:102240007B68002B01D1012376E07B685B6A002B61
:1022500008D17B685B68B3F5827F09D07B68002278
:10226000DA6105E07B6800221A617B6800225A610E
:102270007B6800229A627B6893F85130DBB2002BB6
:1022800006D17B68002283F850207868FFF762F857
:102290007B68022283F851207B681B681A687B6880
:1022A0001B6822F040021A607B685B6803F482724C
:1022B0007B689B6803F404431A437B68DB6803F480
:1022C00000631A437B681B6903F002031A437B68AF
:1022D0005B6903F001031A437B689B6903F4007395
:1022E0001A437B68DB6903F038031A437B681B6A77
:1022F00003F0800342EA03017B689B6A03F4005207
:102300007B681B680A431A607B689B691A0C7B68B0
:102310001B6802F004025A607B681B68DA697B68FC
:102320001B6822F40062DA617B6800225A657B68D0
:10233000012283F85120002318460837BD4680BD8E
:1023400080B588B000AFF860B9603B601346FB8091
:10235000FFF7EEF8F861FB887B83FB6893F8513058
:10236000DBB2012B01D002232AE1BB68002B02D093
:10237000FB88002B01D1012322E1FB6893F8503048
:10238000012B01D102231BE1FB68012283F85020BD
:10239000FB68032283F85120FB6800225A65FB6822
:1023A000BA681A63FB68FA889A86FB68FA88DA8644
:1023B000FB6800229A63FB6800229A87FB68002270
:1023C000DA87FB6800225A64FB6800221A64FB6803
:1023D0009B68B3F5004F0FD1FB681B681A68FB6858
:1023E0001B6822F040021A60FB681B681A68FB68D1
:1023F0001B6842F480421A60FB681B681B6803F08C
:102400004003402B07D0FB681B681A68FB681B68F9
:1024100042F040021A60FB68DB68B3F5006F52D1EE
:10242000FB685B68002B02D07B8B012B45D1FB68DE
:102430001B6B1A88FB681B68DA60FB681B6B9A1CB5
:10244000FB681A63FB68DB8E9BB2013B9AB2FB68A8
:10245000DA8632E0FB681B689B6803F00203022BFC
:1024600012D1FB681B6B1A88FB681B68DA60FB687B
:102470001B6B9A1CFB681A63FB68DB8E9BB2013BEB
:102480009AB2FB68DA8618E0FFF752F80246FB6959
:10249000D31A3A689A4203D83B68B3F1FF3F02D19E
:1024A0003B68002B09D1FB68012283F85120FB68AF
:1024B000002283F85020032382E0FB68DB8E9BB26E
:1024C000002BC7D153E0FB685B68002B02D07B8BED
:1024D000012B47D1FB681A6BFB681B680C33127821
:1024E0001A70FB681B6B5A1CFB681A63FB68DB8E57
:1024F0009BB2013B9AB2FB68DA8633E0FB681B684B
:102500009B6803F00203022B13D1FB681A6BFB6874
:102510001B680C3312781A70FB681B6B5A1CFB6823
:102520001A63FB68DB8E9BB2013B9AB2FB68DA86CA
:1025300018E0FEF7FDFF0246FB69D31A3A689A429B
:1025400003D83B68B3F1FF3F02D13B68002B09D1B0
:10255000FB68012283F85120FB68002283F8502099
:1025600003232DE0FB68DB8E9BB2002BC6D1FA69FA
:102570003968F86800F0B0F80346002B02D0FB6819
:1025800020225A65FB689B68002B0AD100237B61DF
:10259000FB681B68DB687B61FB681B689B687B6171
:1025A0007B69FB68012283F85120FB68002283F8D5
:1025B0005020FB685B6D002B01D0012300E000235D
:1025C00018462037BD4680BD80B588B000AFF860A2
:1025D000B9603B601346FB71FEF7AAFF0246BB6A77
:1025E0009B1A3A681344FB61FEF7A2FFB861394BAE
:1025F0001B685B011B0DFA6902FB03F37B6154E06E
:102600003B68B3F1FF3F50D0FEF792FF0246BB6933
:10261000D31AFA699A4202D9FB69002B3DD1FB68B3
:102620001B685A68FB681B6822F0E0025A60FB686E
:102630005B68B3F5827F11D1FB689B68B3F5004FEF
:1026400004D0FB689B68B3F5806F07D1FB681B68FB
:102650001A68FB681B6822F040021A60FB689B6ADC
:10266000B3F5005F0FD1FB681B681A68FB681B6835
:1026700022F400521A60FB681B681A68FB681B682A
:1026800042F400521A60FB68012283F85120FB6873
:10269000002283F85020032317E07B69002B01D12F
:1026A0000023FB617B69013B7B61FB681B689A68C7
:1026B000BB681340BA689A420CBF01230023DBB207
:1026C0001A46FB799A429BD1002318462037BD4613
:1026D00080BD00BF0000002080B586B002AFF8606A
:1026E000B9607A607B680093BB6801220221F868B8
:1026F000FFF76AFF0346002B07D0FB685B6D43F0D2
:102700002002FB685A65032313E07B680093BB68D3
:1027100000228021F868FFF757FF0346002B07D0FF
:10272000FB685B6D43F02002FB685A65032300E001
:10273000002318461037BD4680BD0346024493422D
:1027400000D1704703F8011BF9E7000070B50026BF
:102750000C4D0D4C641BA410A64209D100F028FEBC
:1027600000260A4D0A4C641BA410A64205D170BD78
:1027700055F8043B98470136EEE755F8043B984777
:102780000136F2E7BC370008BC370008BC37000848
:10279000C037000807B51B4A20F0004393420146AA
:1027A00006D80022002103B05DF804EB00F0F2B877
:1027B000B3F1FF4F04D3FEF70DF903B05DF804FB4E
:1027C000694600F05DF900F00300012808D00228F6
:1027D0000BD090B901220199009800F0DBF8ECE7EA
:1027E0000199009800F056F8E7E701220199009856
:1027F00000F0D0F800F10040DFE70199009800F008
:1028000049F8F7E7D80F493FF8B5C1F30A57A7F2DF
:10281000FF32132A04460D460B461ADC002A0BDA57
:1028200001F00043013204BF43F07F5343F44013EF
:1028300000221D46144616E0154810410140214370
:1028400011D04FF4002141FA02F2134423EA0003AD
:10285000EEE7332A0ADDB2F5806F04D10246FDF7B8
:102860007DFC04460D4620462946F8BD4FF0FF305A
:10287000A7F21347F8402042F5D0C2F133010122FC
:102880008A40121928BF013322EA0002D1E700BFB3
:10289000FFFF0F002DE9F04120F00045B5F1485F42
:1028A0000646884603D2FEF765FB00285CD0314619
:1028B0003046FEF799F94FF07C510446FEF794F943
:1028C0002B4907462046FEF78FF92A49FEF784F880
:1028D0002146FEF789F92849FEF77CF82146FEF7E4
:1028E00083F92649FEF778F82146FEF77DF9244959
:1028F000FEF770F82146FEF777F92249FEF76CF8EB
:102900002146FEF771F92146FEF76EF9414604466D
:102910003046FEF769F901462046FEF75BF81A4B90
:1029200004469D420AD801463846FEF753F8014650
:102930004FF07E50FEF74EF8BDE8F081134B4FF09C
:102940007E509D428CBF124D05F17F452946FEF712
:1029500041F8294606463846FEF73CF82146FEF780
:1029600039F801463046E5E74FF07E50E4E700BF16
:102970004ED747ADF6740F317CF29334010DD0374A
:10298000610BB63AABAA2A3D9999993E0000483F9F
:102990000000903E2DE9F84320F00043B3F1485F7A
:1029A00004460F46914603D2FEF7E4FA002835D0DC
:1029B00021462046FEF718F9054601462046FEF757
:1029C00013F9294906462846FEF70EF92749FEF76E
:1029D00001F82946FEF708F92549FDF7FDFF2946CC
:1029E000FEF702F92349FDF7F5FF2946FEF7FCF84B
:1029F0002149FDF7F1FF8046B9F1000F11D10146E1
:102A00002846FEF7F1F81D49FDF7E4FF3146FEF7D1
:102A1000EBF801462046FDF7DFFF04462046BDE8FF
:102A2000F8834FF07C513846FEF7DEF84146814688
:102A30003046FEF7D9F801464846FDF7CBFF294658
:102A4000FEF7D2F83946FDF7C5FF0C49054630467A
:102A5000FEF7CAF801462846FDF7BEFF01462046AC
:102A6000FDF7B8FFD9E700BFD3C92E2F342FD732D7
:102A70001BEF3836010D50398988083CABAA2A3E35
:102A80002DE9F04FA44A20F0004890450C468246BC
:102A900087B004D8002308604B6000251DE09F4AE2
:102AA00090454FD820F0004500289D499D4F25F0C6
:102AB0000F0524DDFDF78EFFBD42064611D09A4971
:102AC000FDF788FF014605463046FDF783FF96492E
:102AD000FDF780FF256001256060284607B0BDE84E
:102AE000F08F9249FDF776FF91490646FDF772FF98
:102AF000014605463046FDF76DFF8D49E8E7FDF7D5
:102B00006BFFBD4206460FD08749FDF765FF0146C2
:102B100005463046FDF75EFF8349FDF75DFF256002
:102B200060604FF0FF35D8E78049FDF755FF8049D9
:102B30000646FDF751FF014605463046FDF74AFFC0
:102B40007B49EAE77B4A904500F2958000F0FEF869
:102B500079490646FEF748F84FF07C51FDF73CFFF7
:102B6000FEF708FA0546FDF7EBFF6D498146FEF7D3
:102B70003BF801463046FDF72DFF6B4907464846B6
:102B8000FEF732F81F2D06460EDC6C4A691E52F81D
:102B900021202AF0004323F0FF03934204D0314662
:102BA0003846FDF717FF0BE031463846FDF712FFB8
:102BB000C0F3C753C3EBD853082B4FEAE85B01DCE3
:102BC000206026E059494846FEF70EF806460146C1
:102BD0003846FDF7FFFE014680463846FDF7FAFE0F
:102BE0003146FDF7F7FE064651494846FDF7FCFF22
:102BF0003146FDF7EFFE014606464046FDF7EAFE88
:102C0000C0F3C753ABEB030BBBF1190F18DC4746FE
:102C10002060D4F8008038464146FDF7DBFE31469F
:102C2000FDF7D8FEBAF1000F6060BFF656AF08F1AD
:102C3000004800F10040C4F8008060606D424CE73D
:102C40003F494846FDF7D0FF064601464046FDF79E
:102C5000C1FE014607464046FDF7BCFE3146FDF782
:102C6000B9FE064637494846FDF7BEFF3146FDF737
:102C7000B1FE064693E7B8F1FF4F05D30146FDF7D5
:102C8000A9FE6060206008E74FEAE856863EA8EBA0
:102C9000C6584046FEF76EF9FDF752FF0146039015
:102CA0004046FDF797FE4FF08741FDF79DFF074631
:102CB000FEF760F9FDF744FF0146049005463846EB
:102CC000FDF788FE4FF08741FDF78EFF002105904C
:102CD000FEF71EF9F0B100212846FEF719F9002889
:102CE00014BF01230223184A21460192022203A89D
:102CF0000092324600F02EF8BAF1000F0546BFF6FA
:102D0000ECAE236803F100432360636803F10043E2
:102D1000636093E70323E6E7D80F493FE3CB164010
:102D2000800FC93FD00FC93F434435370044353782
:102D300008A3852E800F494384F9223FEC33000815
:102D400000A3852E32318D246C34000820F0004021
:102D5000704700002DE9F04FDBB002920493649AB3
:102D6000AD4B059053F8223000910193049B013B39
:102D70000393029B1A1DC0F29980DC1E48BF1C1DE4
:102D8000E41000254FF0000B671CFB000693029B2C
:102D9000039AA3EBC707019BA4EB020803EB02090C
:102DA000659B1EAE03EB880A4D4540F38180049A73
:102DB0001EAB03EB82054FF0000900230DF58C7B61
:102DC000019A914540F39C8013460AAA02EB8303C3
:102DD0000893659B03EB8403019C07930DF128087E
:102DE000464625464FF087495AAB03EB840353F818
:102DF00050BC0DF58C7A002D00F38780394658467B
:102E000000F048FA4FF078510546FDF7EDFE00F06E
:102E10008DFA4FF08241FDF7E7FE01462846FDF7A7
:102E2000D9FD0546FEF7A6F80646FDF789FE0146E0
:102E30002846FDF7CFFD002F814640F38380621EB8
:102E40000AAB53F82250C7F1080145FA01F31E44BA
:102E50008B40ED1A0AAB43F82250C7F107031D411E
:102E6000002D7CDD002292460136944200F3AC80B6
:102E7000002F05DD012F00F0B880022F00F0BF8089
:102E8000022D6CD149464FF07E50FDF7A3FD8146DF
:102E9000BAF1000F63D039464FF07E5000F0FAF9D6
:102EA00001464846FDF796FD814658E0002468E754
:102EB00018EB050F07D45AF82500FDF741FE46F838
:102EC000040B013570E75846F9E70793059BDAF8DC
:102ED000001053F82800FDF787FE01463046FDF745
:102EE0007BFD0646079B08F10108039AAAF1040A34
:102EF0009045EADD4BF8046B09F1010904355FE701
:102F0000AA461E464FF00008EFE74FF06E515846B4
:102F1000FDF76AFEFEF72EF8FDF712FE494609900E
:102F2000FDF762FE01465846FDF754FDFEF722F814
:102F3000013D46F8040B5AF825100998FDF74CFDA1
:102F4000834658E705D1631E0AAA52F82350ED11B3
:102F500086E74FF07C51FDF7F9FF054690BB002155
:102F60004846FDF7D5FF002800F090800022631E40
:102F700001998B424ADA002A76D0013C0AAB53F819
:102F80002430083F002BF8D039464FF07E5000F037
:102F900081F9A24607464FF06E590DF58C78BAF1CB
:102FA000000F80F2A18027460022002FC0F2CB80C4
:102FB00046A990464FF0000A184B01EB870BA4EB93
:102FC0000709B4E002254DE758F8043BBAF1000FB9
:102FD00008D123B1C3F5807348F8043C01239A4615
:102FE000013242E7C3F1FF03F6E7621E0AAB53F872
:102FF000223003F07F030AA941F8223040E7621E25
:103000000AAB53F8223003F03F03F4E70AA951F862
:103010002310013B0A43ABE7B037000884370008B0
:10302000013352F8041D0029FAD0049A1EA9A218EF
:10303000661C01EB82051C440DF58C79B442FFF649
:10304000CDAE079BAB4653F82600FDF779FD4FF058
:10305000000A4FF000082860039B9A4507DD49F8F5
:10306000268004350136E9E70123089AD9E7059B54
:103070005BF8040953F82A10FDF7B6FD01464046F7
:10308000FDF7AAFC0AF1010A8046E5E7069B029AD1
:103090004846991A00F0FEF84FF087418046FDF748
:1030A00055FFF8B14FF06E514046FDF79DFDFDF71D
:1030B00061FFFDF745FD4FF087418146FDF794FD27
:1030C00001464046FDF786FCFDF754FF0AAB43F886
:1030D0002400484601340837FDF74CFF0AAB43F89B
:1030E000240051E74046F7E70AAB53F82A00FDF702
:1030F00027FD3946FDF778FD494648F82A0038464D
:10310000FDF772FD0AF1FF3A074648E753F8040B52
:103110005BF8041B03920293FDF766FD01464046EF
:10312000FDF75AFCDDE9023280460AF1010A0199F5
:103130008A4501DCD145E9DA5AAB03EB890949F844
:10314000A08C013F31E7649B022B07DC002B4EDC97
:103150002ED006F007005BB0BDE8F08F649B032B18
:10316000F7D10DF1C80B0BEB8407B846A246BAF1B4
:10317000000F49DCA146B9F1010F60DC0020012CF1
:1031800076DC329A339B002D78D100990A600A468A
:103190004B609060DDE757F82410FDF71DFC013C03
:1031A000002CF8DA0DB100F10040009B1860D0E768
:1031B000002032AFF4E757F82810FDF70DFC08F1B6
:1031C000FF38B8F1000FF6DAADB100F10043009A14
:1031D000014613603298FDF7FDFB4FF001084445AE
:1031E0000BDA0DB100F10040009B5860B1E7A0463A
:1031F000002032AFE5E70346E9E757F8041FFDF783
:10320000EBFB08F10108EAE7D8F8003058F8042C85
:103210001946104602930192FDF7DEFB019A014622
:1032200081461046FDF7D6FB029B0AF1FF3A19468C
:10323000FDF7D2FB48F80409C8F8009097E757F863
:10324000043CD7F800A0184651460193FDF7C4FB93
:10325000019B014680461846FDF7BCFB5146FDF731
:10326000BBFB47F8040909F1FF39C7F8008082E782
:103270005BF82410FDF7B0FB013C80E7009902F1F8
:10328000004203F100430A604B600A4600F100402F
:103290007FE700BF30F0004238B503460D460446D4
:1032A0002ED0B2F1FF4F04D30146FDF795FB034644
:1032B00026E010F0FF4F18D14FF09841FDF794FC35
:1032C000174A034695420CDB0446C0F3C752193A2D
:1032D0004CF250318D420ADD1249184661F31E004E
:1032E00000E01149FDF780FCE1E7D20DF0E751194C
:1032F000FE29F1DC002905DD24F0FF4444EAC15336
:10330000184638BD11F1160F01DA0749E5E701F15A
:10331000190024F0FF444FF04C5144EAC050E1E75B
:10332000B03CFFFFCAF249716042A20D70B5C0F314
:10333000C7557F3D162D0146044620F0004626DC89
:10334000002D0FDA1749FDF747FB0021FDF708FEB6
:1033500030B1002C23DA002E134C08BF4FF000448C
:1033600021461AE0114E2E41304216D00D49FDF78C
:1033700033FB0021FDF7F4FD0028F1D0002CBEBF87
:103380004FF400032B41E41824EA0604E8E7B6F101
:10339000FF4F02D3FDF720FB0146084670BD002415
:1033A000DEE700BFCAF24971000080BFFFFF7F0067
:1033B000F8B500BFF8BC08BC9E467047F8B500BF22
:0833C000F8BC08BC9E467047F2
:1033C80000000000000000000102030406070809CD
:1033D80002030405060708090A0B0C0D0E0F10104E
:1033E80001020000000FC93F000F494000CB964082
:1033F800000FC9400053FB4000CB164100ED2F41A0
:10340800000F49410031624100537B41003A8A4133
:1034180000CB9641005CA34100EDAF41007EBC416A
:10342800000FC94100A0D5410031E24100C2EE4180
:103438000053FB4100F20342003A0A420083104263
:1034480000CB164200141D42005C234200A529420D
:1034580000ED2F4200363642007E3C4200C7424211
:10346800000F4942A2000000F9000000830000009C
:103478006E0000004E00000044000000150000002F
:1034880029000000FC000000270000005700000091
:10349800D1000000F500000034000000DD0000004D
:1034A800C0000000DB000000620000009500000082
:1034B800990000003C00000043000000900000005C
:1034C80041000000FE000000510000006300000001
:1034D800AB000000DE000000BB000000C5000000DB
:1034E80061000000B7000000240000006E0000002A
:1034F8003A000000420000004D000000D200000029
:10350800E000000006000000490000002E00000056
:10351800EA00000009000000D1000000920000004D
:103528001C000000FE0000001D000000EB00000071
:103538001C000000B100000029000000A7000000E6
:103548003E000000E8000000820000003500000096
:10355800F50000002E000000BB0000004400000041
:1035680084000000E90000009C00000070000000DA
:1035780026000000B40000005F0000007E0000008C
:10358800410000003900000091000000D600000052
:1035980039000000830000005300000039000000DB
:1035A800F40000009C000000840000005F000000A0
:1035B8008B000000BD000000F9000000280000009A
:1035C8003B0000001F000000F8000000970000000A
:1035D800FF000000DE000000050000009800000069
:1035E8000F000000EF0000002F0000001100000095
:1035F8008B0000005A0000000A0000006D00000067
:103608001F0000006D000000360000007E00000072
:10361800CF00000027000000CB00000009000000D8
:10362800B70000004F000000460000003F00000007
:10363800660000009E0000005F000000EA00000035
:103648002D0000007500000027000000BA000000EF
:10365800C7000000EB000000E5000000F1000000DA
:103668007B0000003D00000007000000390000005A
:10367800F70000008A0000005200000092000000DD
:10368800EA0000006B000000FB0000005F00000083
:10369800B10000001F0000008D0000005D00000068
:1036A8000800000056000000030000003000000081
:1036B80046000000FC0000007B0000006B000000DA
:1036C800AB000000F0000000CF000000BC000000CC
:1036D800200000009A000000F400000036000000FE
:1036E8001D000000A9000000E30000009100000098
:1036F800610000005E000000E60000001B00000002
:103708000800000065000000990000008500000026
:103718005F00000014000000A00000006800000026
:10372800400000008D000000FF000000D8000000ED
:10373800800000004D00000073000000270000001A
:10374800310000000600000006000000150000001F
:1037580056000000CA00000073000000A800000026
:10376800C900000060000000E20000007B000000CB
:10377800C00000008C0000006B0000000000C93F82
:103788000000F0390000DA370000A2330000842E70
:103798000000502B0000C2270000D0220000C41FE8
:1037A8000000C61B000044170400000007000000CA
:0437B8000900000004
:0437BC0035010008CB
:0437C00011010008EB
:0C37C40000127A0010000000010000005C
:0400000508001435A6
:00000001FF
