:020000040800F2
:1000000000280020750D0008110D0008190D0008CA
:10001000210D0008290D0008310D00080000000026
:10002000000000000000000000000000390D000882
:10003000450D000800000000510D00085D0D00088E
:10004000BD0D0008BD0D0008BD0D0008BD0D000868
:10005000BD0D0008BD0D0008BD0D0008BD0D000858
:10006000BD0D0008BD0D0008BD0D0008BD0D000848
:10007000BD0D0008BD0D0008BD0D0008BD0D000838
:10008000BD0D0008BD0D0008BD0D0008BD0D000828
:10009000BD0D0008BD0D0008BD0D0008BD0D000818
:1000A000BD0D0008BD0D0008BD0D0008BD0D000808
:1000B000BD0D0008BD0D000800000000BD0D0008CA
:1000C000BD0D00080000000000000000BD0D00088C
:1000D00000000000BD0D0008BD0D0008000000007C
:1000E000BD0D0008BD0D0008BD0D0008000000009A
:1000F0000000000000000000000000000000000000
:0C01000000000000000000005FF808F1A3
:10010C0010B5054C237833B9044B13B10448AFF345
:10011C0000800123237010BD0C00002000000000A3
:10012C00001C000808B5034B1BB103490348AFF38F
:10013C00008008BD0000000010000020001C00081A
:10014C0080B588B000AFF860B9603B601346FB80A7
:10015C00FB68BA681A60FB68FA889A80FB683A6890
:10016C009A60FB683A8D9A81FB68FA6A1A6107F10A
:10017C00100300221A605A609A60DA6000237B61D7
:10018C000023BB610323FB61FB883B6107F1100378
:10019C001946B86800F078FF3B8D3B6107F11003FE
:1001AC001946386800F070FFFB8800221946B868C1
:1001BC0001F0FDF83B8D00221946386801F0F7F884
:1001CC0000BF2037BD4680BD80B483B000AF7860DF
:1001DC000B46FB701346BB7097F9033003F0070313
:1001EC005BB2BA78002A01D0082200E00022134347
:1001FC005BB2DAB27B689A7300BF0C37BD4680BC29
:10020C00704780B586B000AFF860B96011461A46E9
:10021C000B46FB711346BB71F86800F0F9F84021EE
:10022C00F86800F059F9F86800F015F9F86800F072
:10023C00EFF8BB7903F00303DBB2403BDBB21946AA
:10024C00F86800F049F90023FB750AE0FB7DBA68F9
:10025C0013441B781946F86800F03EF9FB7D013316
:10026C00FB75FA7DFB799A42F0D3F86800F0F3F84D
:10027C00F86800F0CDF8FB689B7B03F00F03DBB252
:10028C00803BDBB21946F86800F026F9F86800F0FC
:10029C00E2F800BF1837BD4680BD80B584B000AF12
:1002AC0078600023FB6007F10C01002304227868BE
:1002BC00FFF7A7FF00BF1037BD4680BD80B586B0E5
:1002CC0002AFF860B96011461A460B46FB71134633
:1002DC00BB71FA793B7E0193BB79009313460022E4
:1002EC00B968F86800F004F800BF1037BD4680BD4F
:1002FC0080B588B004AFF860B96011461A460B4659
:10030C00FB711346BB71BB68002B02DA6FF009015D
:10031C0000E00A21BB68002BB8BF5B429AB2F879A7
:10032C003B7F02933B7E0193BB7900930346F868B5
:10033C0000F0CCF900BF1037BD4680BD80B586B04B
:10034C0004AF7860084611461A4603467B800B467C
:10035C007B7013463B7079787A883B7D02933B7CAB
:10036C0001933B7800930B461021786800F0AEF9AE
:10037C0000BF0837BD4680BD80B483B000AF0346D4
:10038C00FB71FB7903F00F03034AD35C18460C375F
:10039C00BD4680BC704700BF181C000880B584B0F7
:1003AC0000AF78607B681B69184AA2FB03239B098A
:1003BC00184600F061FD7B681A69144BA3FB02130D
:1003CC009B094FF47A7101FB03F3D31A002B19D05C
:1003DC000023FB6003E000BFFB680133FB607B681C
:1003EC001B690A4AA2FB031292094FF47A7101FBB2
:1003FC0002F29A1A13465B0013441B011A46FB685F
:10040C009A42E8D800BF1037BD4680BDD34D62106C
:10041C0080B586B000AF786007F1080300221A603F
:10042C005A609A60DA600123FB6000233B6103236E
:10043C007B617B689B89BB607B689B6807F10802CA
:10044C001146184600F020FE7868FFF7A7FF00BFA2
:10045C001837BD4680BD80B586B000AF786007F117
:10046C00080300221A605A609A60DA600123FB606C
:10047C0000233B6103237B617B689B89BB607B68AA
:10048C009B6807F108021146184600F0FDFD7868DC
:10049C00FFF784FF0023FB607B689B88BB607B6855
:1004AC001B6807F108021146184600F0EDFD78684C
:1004BC00FFF774FF7B689B89BB607B689B6807F1C7
:1004CC0008021146184600F0DFFD7868FFF766FF5A
:1004DC0000BF1837BD4680BD80B58CB000AF7860CA
:1004EC000B46FB70FB7887F82F30002387F82E30F3
:1004FC004DE007F10C0300221A605A609A60DA6032
:10050C0001233B6100237B610323BB617B689B88D8
:10051C00FB607B681B6807F10C021146184600F063
:10052C00B3FD7868FFF73AFF97F82F3003F001031B
:10053C00002B02D000233B6101E001233B617B686F
:10054C009B89FB607B689B6807F10C02114618467F
:10055C0000F09AFD7868FFF721FF00233B617B6870
:10056C009B88FB607B681B6807F10C0211461846E0
:10057C0000F08AFD7868FFF711FF97F82F305B08C1
:10058C0087F82F3097F82E30013387F82E3097F8F4
:10059C002E30072BADD907F11C0300221A605A60CC
:1005AC009A60DA6001233B6200237B620323BB6207
:1005BC007B689B88FB617B681B6807F11C021146FA
:1005CC00184600F061FD00233B627B689B89FB6150
:1005DC007B689B6807F11C021146184600F054FD1D
:1005EC007868FFF7DBFE00233B627B689B88FB612E
:1005FC007B681B6807F11C021146184600F044FD8D
:10060C007868FFF7CBFE7B689A687B689B891946F4
:10061C00104600F0B5FE034687F82D3097F82D30C4
:10062C00002B0CD101233B627B689B89FB617B68AF
:10063C009B6807F11C021146184600F025FD7868EE
:10064C00FFF7ACFE01233B627B689B88FB617B68F8
:10065C001B6807F11C021146184600F015FD78685E
:10066C00FFF79CFE97F82D30002B14BF01230023BD
:10067C00DBB218463037BD4680BD80B485B000AFC4
:10068C0003463960FB710023FB6016E0FB683A6897
:10069C0013441B785AB297F9073023F07F035BB2EF
:1006AC00134359B2FB683A681344CAB21A70FB7907
:1006BC005B00FB71FB680133FB60FB68032BE5DD22
:1006CC0000BF00BF1437BD4680BC704790B587B0E3
:1006DC0000AF7860084611461A460346FB700B467D
:1006EC003B801346BB700023FB7597F90330002B3E
:1006FC0005DAFB785B42DBB2FB700123FB753B88B0
:10070C00002B26D197F8283083F00103DBB2002BA5
:10071C001FD00023BB7508E0BB7D18333B4400227F
:10072C0003F8102CBB7D0133BB75BA7D97F82C30C8
:10073C00013B9A42F0DB97F82C305C1E0020FFF74F
:10074C001BFE03461A4604F118033B4403F8102C15
:10075C004BE097F82C30013B3B6143E03B8897F929
:10076C00032093FBF2F101FB02F29B1AFB73FB7B60
:10077C00002B10D13B88002B0DD197F8283083F03B
:10078C000103DBB2002B06D007F108023B691344CE
:10079C0000221A700BE0FB7B1846FFF7EDFD0346B9
:1007AC00194607F108023B6913440A461A70FB7B91
:1007BC00002B0ED13B88002B0BD1FB7D002B08D0DE
:1007CC00402107F108023B6913440A461A700023C2
:1007DC00FB753A8897F9033092FBF3F33B803B6946
:1007EC00013B3B613B69002BB8DABB78002B06D090
:1007FC0007F10802BB7811461846FFF73EFF97F841
:10080C00303097F82C2007F108017868FFF7F9FCD5
:10081C0000BF1C37BD4690BD80B586B002AF00F05E
:10082C00C9FA00F0B1F900F0F5F9642301934FF423
:10083C0000630093B94B4FF48062B849B848FFF796
:10084C007FFC4FF0FF33BB6000237B6001220F2144
:10085C00B348FFF7B9FC07F1080100230422B048A4
:10086C00FFF7CFFCFA2000F007FB0020FFF784FD18
:10087C0003463B720120FFF77FFD03467B7202208B
:10088C00FFF77AFD0346BB720320FFF775FD0346A5
:10089C00FB7207F1080100230422A148FFF7B1FC09
:1008AC00FA2000F0E9FA9E48FFF7F7FC07F108017F
:1008BC000231022302229A48FFF7A3FCFA2000F02F
:1008CC00DBFA9748FFF7E9FC07F108010231012335
:1008DC0002229348FFF795FCFA2000F0CDFA9048DD
:1008EC00FFF7DBFC07F108010131012303228C48DF
:1008FC00FFF787FCFA2000F0BFFA002300930423D3
:10090C00002200218648FFF7D9FCFA2000F0B4FA47
:10091C00002300930423012200218148FFF7CEFC21
:10092C00FA2000F0A9FA00230093042300220121ED
:10093C007B48FFF7C3FCFA2000F09EFA00230093DB
:10094C000423012201217648FFF7B8FCFA2000F0BD
:10095C0093FA002300930423002240F22D117048D7
:10096C00FFF7ACFCFA2000F087FA00230093042375
:10097C00012240F22D116A48FFF7A0FCFA2000F08A
:10098C007BFA6748FFF789FC0123009302230022BE
:10099C000E216348FFF792FCFA2000F06DFA6048D4
:1009AC00FFF77BFC022300930223012204215C4805
:1009BC00FFF784FCFA2000F05FFA00230093042375
:1009CC0000224FF0FF315648FFF778FCFA2000F078
:1009DC0053FA00230093042300226FF00B015048BC
:1009EC00FFF76CFCFA2000F047FA00230093042375
:1009FC0000224C494A48FFF761FCFA2000F03CFA0F
:100A0C004748FFF74AFC00230093032300226FF0B2
:100A1C0004014348FFF752FCFA2000F02DFA0023A2
:100A2C00019304230093002300224FF2AF113C48A2
:100A3C00FFF784FCFA2000F01FFA00230193042333
:100A4C000093002300222C213548FFF777FCFA2075
:100A5C0000F012FA002301930423009301230022D7
:100A6C00D1212F48FFF76AFCFA2000F005FA2C4838
:100A7C00FFF713FC002301930223009301230022B0
:100A8C00D1212748FFF75AFCFA2000F0F5F9002392
:100A9C00FB6013E08022FB6842FA03F3DAB2002316
:100AAC00019304230093012300211D48FFF720FC30
:100ABC00FA2000F0E1F9FB680133FB60FB68042BC2
:100ACC00E8DD0023FB6008E007F10802FB68134433
:100ADC00FF221A70FB680133FB60FB68032BF3DD0C
:100AEC000023FB6013E0FB68DBB2012219460C48C3
:100AFC00FFF76AFB07F10801002304220848FFF7FF
:100B0C0080FBFA2000F0B8F9FB680133FB60FB684E
:100B1C00062BE8DD0023FB6027E000BF000C014042
:100B2C002800002019FCFFFF002207211448FFF7C2
:100B3C004BFB07F10801002304221148FFF761FB6E
:100B4C00FA2000F099F9012207210D48FFF73CFB30
:100B5C0007F10801002304220948FFF752FBFA2091
:100B6C0000F08AF9FB680133FB60FB68032BDBDDCB
:100B7C000023042203490248FFF743FB00BFFDE7B3
:100B8C0028000020281C000880B590B000AF07F1A9
:100B9C00180328220021184601F000F83B1D002202
:100BAC001A605A609A60DA601A610123BB614FF4D3
:100BBC008033FB6100233B620123BB6202237B6316
:100BCC004FF48033BB634FF4E013FB6307F118035E
:100BDC00184600F005FC0346002B01D000F05AF833
:100BEC000F237B600223BB600023FB604FF4806308
:100BFC003B6100237B613B1D0221184600F072FE15
:100C0C000346002B01D000F045F800BF4037BD462D
:100C1C0080BD000080B586B000AF07F1080300224C
:100C2C001A605A609A60DA60184B9B69174A43F055
:100C3C0020039361154B9B6903F020037B607B6859
:100C4C00124B9B69114A43F0080393610F4B9B694C
:100C5C0003F008033B603B6800224FF440610C48F2
:100C6C0000F0A5FB4FF44063BB600123FB60002345
:100C7C003B6102237B6107F108031946044800F02D
:100C8C0003FA00BF1837BD4680BD00BF00100240FC
:100C9C00000C014080B400AF72B600BF00BFFDE78E
:100CAC0080B485B000AF154B9B69144A43F0010327
:100CBC009361124B9B6903F00103BB60BB680F4B44
:100CCC00DB690E4A43F08053D3610C4BDB6903F0B4
:100CDC0080537B607B680A4B5B68FB60FB6823F08E
:100CEC00E063FB60FB6843F08063FB60044AFB68D5
:100CFC00536000BF1437BD4680BC704700100240E3
:100D0C000000014080B400AF00BFFDE780B400AF2D
:100D1C0000BFFDE780B400AF00BFFDE780B400AFBB
:100D2C0000BFFDE780B400AF00BFFDE780B400AFAB
:100D3C0000BFBD4680BC704780B400AF00BFBD464D
:100D4C0080BC704780B400AF00BFBD4680BC70470C
:100D5C0080B500AF00F074F800BF80BD80B400AF68
:100D6C0000BFBD4680BC7047FFF7F8FF0B480C492D
:100D7C000C4A002302E0D458C4500433C4188C42EB
:100D8C00F9D3094A094C002301E013600432A24252
:100D9C00FBD300F00BFFFFF73FFD70470000002076
:100DAC000C000020581C00080C0000204000002003
:100DBC00FEE7000080B500AF084B1B68074A43F004
:100DCC0010031360032000F02BF90F2000F008F83B
:100DDC00FFF766FF0023184680BD00BF00200240CD
:100DEC0080B582B000AF7860124B1A68124B1B783A
:100DFC0019464FF47A73B3FBF1F3B2FBF3F31846D5
:100E0C0000F035F90346002B01D001230EE07B687E
:100E1C000F2B0AD8002279684FF0FF3000F00BF945
:100E2C00064A7B681360002300E00123184608374C
:100E3C00BD4680BD000000200800002004000020FA
:100E4C0080B400AF054B1B781A46054B1B68134446
:100E5C00034A136000BFBD4680BC704708000020E9
:100E6C003C00002080B400AF024B1B681846BD4606
:100E7C0080BC70473C00002080B584B000AF786027
:100E8C00FFF7F0FFB8607B68FB60FB68B3F1FF3FD6
:100E9C0005D00A4B1B781A46FB681344FB6000BF55
:100EAC00FFF7E0FF0246BB68D31AFA689A42F7D8FC
:100EBC0000BF00BF1037BD4680BD00BF080000203A
:100ECC0080B485B000AF78607B6803F00703FB60EB
:100EDC000C4BDB68BB60BA684FF6FF031340BB607A
:100EEC00FB681A02BB68134343F0BF6343F400333F
:100EFC00BB60044ABB68D36000BF1437BD4680BCDE
:100F0C00704700BF00ED00E080B400AF044BDB681D
:100F1C001B0A03F007031846BD4680BC704700BF90
:100F2C0000ED00E080B483B000AF03463960FB7184
:100F3C0097F90730002B0ADB3B68DAB20C4997F9BA
:100F4C0007301201D2B20B4483F800230AE03B684D
:100F5C00DAB20849FB7903F00F03043B1201D2B259
:100F6C000B441A7600BF0C37BD4680BC704700BFDF
:100F7C0000E100E000ED00E080B489B000AFF86063
:100F8C00B9607A60FB6803F00703FB61FB69C3F18E
:100F9C000703042B28BF0423BB61FB690433062B16
:100FAC0002D9FB69033B00E000237B614FF0FF3269
:100FBC00BB6902FA03F3DA43BB681A407B699A40B7
:100FCC004FF0FF317B6901FA03F3D9437B680B4087
:100FDC00134318462437BD4680BC704780B582B099
:100FEC0000AF78607B68013BB3F1807F01D30123B4
:100FFC000FE00A4A7B68013B53600F214FF0FF3032
:10100C00FFF790FF054B00229A60044B07221A60F1
:10101C00002318460837BD4680BD00BF10E000E035
:10102C0080B582B000AF78607868FFF749FF00BFE9
:10103C000837BD4680BD80B586B000AF0346B960A9
:10104C007A60FB7300237B61FFF75EFF78617A683F
:10105C00B9687869FFF790FF024697F90F3011468F
:10106C001846FFF75FFF00BF1837BD4680BD80B53F
:10107C0082B000AF78607868FFF7B0FF034618467F
:10108C000837BD4680BD000080B48BB000AF7860DF
:10109C00396000237B6200233B6261E101227B6AA1
:1010AC0002FA03F3FB613B681B68FA691340BB61EE
:1010BC00BA69FB699A4240F050813B685B68974A79
:1010CC0093425ED0954A934275D8954A934258D034
:1010DC00934A93426FD8934A934252D0914A934287
:1010EC0069D8914A93424CD08F4A934263D88F4A25
:1010FC00934246D08D4A93425DD8122B2AD8122B9C
:10110C0059D801A252F823F08F1100086911000878
:10111C007B110008BD110008C3110008C3110008A1
:10112C00C3110008C3110008C3110008C311000843
:10113C00C3110008C3110008C3110008C311000833
:10114C00C3110008C3110008C31100087111000875
:10115C0085110008764A934213D02CE03B68DB687B
:10116C003B6229E03B68DB6804333B6224E03B686C
:10117C00DB6808333B621FE03B68DB680C333B6287
:10118C001AE03B689B68002B02D104233B6213E0FE
:10119C003B689B68012B05D108233B627B68FA698D
:1011AC001A6109E008233B627B68FA695A6103E023
:1011BC0000233B6200E000BFBB69FF2B01D87B68BA
:1011CC0001E07B6804337B61BB69FF2B02D87B6A2F
:1011DC009B0002E07B6A083B9B003B617B691A68C1
:1011EC000F213B6901FA03F3DB431A40396A3B696F
:1011FC0001FA03F31A437B691A603B685B6803F0DE
:10120C008053002B00F0A9804A4B9B69494A43F05C
:10121C0001039361474B9B6903F00103BB60BB68FF
:10122C00454A7B6A9B08023352F82330FB607B6A89
:10123C0003F003039B000F2202FA03F3DB43FA686B
:10124C001340FB607B683D4A93420DD07B683C4A5F
:10125C00934207D07B683B4A934201D1022304E0BE
:10126C00032302E0012300E000237A6A02F0030268
:10127C0092009340FA681343FB602F497B6A9B08EA
:10128C000233FA6841F823203B685B6803F480134F
:10129C00002B06D02C4B9A682B49BB6913438B60EF
:1012AC0006E0294B9A68BB69DB43274913408B60E6
:1012BC003B685B6803F40013002B06D0224BDA6802
:1012CC002149BB691343CB6006E01F4BDA68BB694D
:1012DC00DB431D491340CB603B685B6803F4003370
:1012EC00002B06D0184B5A681749BB6913434B6047
:1012FC0006E0154B5A68BB69DB43134913404B603E
:10130C003B685B6803F48033002B1FD00E4B1A68CC
:10131C000D49BB6913430B601FE000BF0000321086
:10132C0000003110000022100000211000001210EB
:10133C0000001110001002400000014000080140A4
:10134C00000C014000100140000401400B4B1A68D6
:10135C00BB69DB43094913400B607B6A01337B6239
:10136C003B681A687B6A22FA03F3002B7FF496AE73
:10137C0000BF00BF2C37BD4680BC70470004014045
:10138C0080B485B000AF78600B467B807B689A6830
:10139C007B881340002B02D00123FB7301E0002358
:1013AC00FB73FB7B18461437BD4680BC704780B47A
:1013BC0083B000AF78600B467B8013467B707B78E4
:1013CC00002B03D07A887B681A6103E07B881A04AF
:1013DC007B681A6100BF0C37BD4680BC70470000AB
:1013EC0080B586B000AF78607B68002B01D10123FB
:1013FC0072E27B681B6803F00103002B00F087800E
:10140C00924B5B6803F00C03042B0CD08F4B5B6886
:10141C0003F00C03082B12D18C4B5B6803F4803364
:10142C00B3F5803F0BD1894B1B6803F40033002BC1
:10143C006CD07B685B68002B68D101234CE27B6825
:10144C005B68B3F5803F06D1804B1B687F4A43F441
:10145C00803313602EE07B685B68002B0CD17B4BD8
:10146C001B687A4A23F480331360784B1B68774AE5
:10147C0023F4802313601DE07B685B68B3F5A02F19
:10148C000CD1724B1B68714A43F4802313606F4B71
:10149C001B686E4A43F4803313600BE06B4B1B6884
:1014AC006A4A23F480331360684B1B68674A23F441
:1014BC00802313607B685B68002B13D0FFF7D2FC92
:1014CC00386108E0FFF7CEFC02463B69D31A642B67
:1014DC0001D9032300E25D4B1B6803F40033002B9E
:1014EC00F0D014E0FFF7BEFC386108E0FFF7BAFC5F
:1014FC0002463B69D31A642B01D90323ECE1534B0D
:10150C001B6803F40033002BF0D100E000BF7B68B4
:10151C001B6803F00203002B63D04C4B5B6803F099
:10152C000C03002B0BD0494B5B6803F00C03082B0E
:10153C001CD1464B5B6803F48033002B16D1434B14
:10154C001B6803F00203002B05D07B681B69012B81
:10155C0001D00123C0E13D4B1B6823F0F8027B68EE
:10156C005B69DB00394913430B603AE07B681B690C
:10157C00002B20D0364B01221A60FFF773FC386128
:10158C0008E0FFF76FFC02463B69D31A022B01D926
:10159C000323A1E12D4B1B6803F00203002BF0D0B9
:1015AC002A4B1B6823F0F8027B685B69DB00274938
:1015BC0013430B6015E0264B00221A60FFF752FC18
:1015CC00386108E0FFF74EFC02463B69D31A022B48
:1015DC0001D9032380E11D4B1B6803F00203002B90
:1015EC00F0D17B681B6803F00803002B3AD07B68B2
:1015FC009B69002B19D0174B01221A60FFF732FCA4
:10160C00386108E0FFF72EFC02463B69D31A022B27
:10161C0001D9032360E10D4B5B6A03F00203002B3D
:10162C00F0D0012000F09CFA1CE00A4B00221A605A
:10163C00FFF718FC38610FE0FFF714FC02463B691A
:10164C00D31A022B08D9032346E100BF0010024035
:10165C000000424280044242924B5B6A03F0020358
:10166C00002BE9D17B681B6803F00403002B00F00E
:10167C00A6800023FB758B4BDB6903F08053002B9A
:10168C000DD1884BDB69874A43F08053D361854B7E
:10169C00DB6903F08053BB60BB680123FB75824B95
:1016AC001B6803F48073002B18D17F4B1B687E4A98
:1016BC0043F480731360FFF7D5FB386108E0FFF744
:1016CC00D1FB02463B69D31A642B01D9032303E1F6
:1016DC00754B1B6803F48073002BF0D07B68DB68C0
:1016EC00012B06D16F4B1B6A6E4A43F00103136248
:1016FC002DE07B68DB68002B0CD16A4B1B6A694AB6
:10170C0023F001031362674B1B6A664A23F0040340
:10171C0013621CE07B68DB68052B0CD1614B1B6AE8
:10172C00604A43F0040313625E4B1B6A5D4A43F04C
:10173C00010313620BE05B4B1B6A5A4A23F0010353
:10174C001362584B1B6A574A23F0040313627B68DD
:10175C00DB68002B15D0FFF785FB38610AE0FFF73B
:10176C0081FB02463B69D31A41F28832934201D97C
:10177C000323B1E04B4B1B6A03F00203002BEED0AA
:10178C0014E0FFF76FFB38610AE0FFF76BFB0246D2
:10179C003B69D31A41F28832934201D903239BE06F
:1017AC00404B1B6A03F00203002BEED1FB7D012B97
:1017BC0005D13C4BDB693B4A23F08053D3617B68FA
:1017CC00DB69002B00F08780364B5B6803F00C0361
:1017DC00082B61D07B68DB69022B46D1334B00228E
:1017EC001A60FFF73FFB386108E0FFF73BFB02464E
:1017FC003B69D31A022B01D903236DE0294B1B68DB
:10180C0003F00073002BF0D17B681B6AB3F5803FAB
:10181C0008D1244B5B6823F400327B689B68214918
:10182C0013434B601F4B5B6823F474127B68196A7B
:10183C007B685B6A0B431B4913434B601B4B0122B8
:10184C001A60FFF70FFB386108E0FFF70BFB02464D
:10185C003B69D31A022B01D903233DE0114B1B68C2
:10186C0003F00073002BF0D035E0104B00221A600F
:10187C00FFF7F8FA386108E0FFF7F4FA02463B6923
:10188C00D31A022B01D9032326E0064B1B6803F065
:10189C000073002BF0D11EE07B68DB69012B07D1B4
:1018AC00012319E000100240007000406000424229
:1018BC000B4B5B68FB60FB6803F480327B681B6A34
:1018CC009A4206D1FB6803F470127B685B6A9A42F9
:1018DC0001D0012300E0002318461837BD4680BD17
:1018EC000010024080B584B000AF786039607B682E
:1018FC00002B01D10123D0E06A4B1B6803F00703D6
:10190C003A689A4210D9674B1B6823F00702654965
:10191C003B6813430B60634B1B6803F007033A6887
:10192C009A4201D00123B8E07B681B6803F00203E4
:10193C00002B20D07B681B6803F00403002B05D020
:10194C00594B5B68584A43F4E06353607B681B68EF
:10195C0003F00803002B05D0534B5B68524A43F449
:10196C0060535360504B5B6823F0F0027B689B68BC
:10197C004D4913434B607B681B6803F00103002B3C
:10198C0040D07B685B68012B07D1474B1B6803F485
:10199C000033002B15D101237FE07B685B68022BA1
:1019AC0007D1414B1B6803F00073002B09D10123B5
:1019BC0073E03D4B1B6803F00203002B01D10123A4
:1019CC006BE0394B5B6823F003027B685B6836493C
:1019DC0013434B60FFF746FAF8600AE0FFF742FA50
:1019EC000246FB68D31A41F28832934201D9032391
:1019FC0053E02D4B5B6803F00C027B685B689B002B
:101A0C009A42EBD1274B1B6803F007033A689A42C2
:101A1C0010D2244B1B6823F0070222493B68134366
:101A2C000B60204B1B6803F007033A689A4201D005
:101A3C00012332E07B681B6803F00403002B08D001
:101A4C00194B5B6823F4E0627B68DB68164913432F
:101A5C004B607B681B6803F00803002B09D0124B0A
:101A6C005B6823F460527B681B69DB000E491343EF
:101A7C004B6000F021F802460B4B5B681B0903F02E
:101A8C000F030A49CB5C22FA03F3094A1360094B92
:101A9C001B681846FFF7A4F9002318461037BD46FB
:101AAC0080BD00BF00200240001002402C1C00082A
:101ABC00000000200400002080B487B000AF002399
:101ACC00FB600023BB6000237B6100237B60002351
:101ADC003B611E4B5B68FB60FB6803F00C03042B43
:101AEC0002D0082B03D027E0194B3B6127E0FB68A1
:101AFC009B0C03F00F03174AD35C7B60FB6803F469
:101B0C008033002B10D0114B5B685B0C03F001038E
:101B1C00114AD35CBB607B680D4A03FB02F2BB68C5
:101B2C00B2FBF3F37B6104E07B680C4A02FB03F32A
:101B3C007B617B693B6102E0054B3B6100BF3B690C
:101B4C0018461C37BD4680BC704700BF00100240D1
:101B5C0000127A003C1C00084C1C000800093D00D7
:101B6C0080B485B000AF78600A4B1B680A4AA2FBB0
:101B7C0003235B0A7A6802FB03F3FB6000BFFB687C
:101B8C005A1EFA60002BF9D100BF00BF1437BD46B6
:101B9C0080BC704700000020D34D62100346024405
:101BAC00934200D1704703F8011BF9E770B500268A
:101BBC000C4D0D4C641BA410A64209D100F01AF870
:101BCC0000260A4D0A4C641BA410A64205D170BD18
:101BDC0055F8043B98470136EEE755F8043B984717
:101BEC000136F2E7501C0008501C0008501C00087D
:101BFC00541C0008F8B500BFF8BC08BC9E467047E2
:0C1C0C00F8B500BFF8BC08BC9E4670474D
:101C18003F065B4F666D7D077F6F777C395E797114
:101C28005E3F547900000000000000000102030438
:101C38000607080902030405060708090A0B0C0D24
:081C48000E0F10100102000054
:041C50003101000856
:041C54000D01000876
:0C1C580000127A001000000001000000E3
:0400000508000D756D
:00000001FF
