:020000040800F2
:1000000000280020F1170008211700082917000810
:1000100031170008391700084117000800000000D8
:100020000000000000000000000000004917000868
:100030005517000800000000611700086D17000840
:10004000391800083918000839180008391800084C
:10005000391800083918000839180008391800083C
:10006000391800083918000839180008391800082C
:10007000391800083918000839180008391800081C
:10008000391800083918000839180008391800080C
:1000900039180008391800083918000839180008FC
:1000A00039180008391800083918000839180008EC
:1000B0003918000839180008000000003918000835
:1000C000391800080000000000000000391800087E
:1000D000000000003918000839180008000000006E
:1000E0003918000839180008391800080000000005
:1000F0000000000000000000000000000000000000
:0C01000000000000000000005FF808F1A3
:10010C0010B5054C237833B9044B13B10448AFF345
:10011C0000800123237010BD80000020000000002F
:10012C007048000808B5034B1BB103490348AFF3F3
:10013C00008008BD0000000084000020704800080A
:10014C00034613F8012B002AFBD1181A013870470B
:10015C0080B400AF00BFBD4680BC704780B500AF17
:10016C0000224FF48051074801F048FE142001F0A2
:10017C00C1FB01224FF48051024801F03FFE00BF49
:10018C0080BD00BF000C014080B582B000AF0346BB
:10019C00FB7100224FF40051064801F02FFEF91DAF
:1001AC004FF0FF330122044803F0F4F900BF083785
:1001BC00BD4680BD000C0140B400002080B582B06B
:1001CC0000AF7860396001224FF40051074801F00C
:1001DC0015FE3B689AB24FF0FF337968044803F080
:1001EC00D9F900BF0837BD4680BD00BF000C0140E7
:1001FC00B400002080B584B000AF78607B685A1CD6
:10020C007A601B78FB7334E07B685A1C7A601B782D
:10021C00FB72FB7A1846FFF7B7FF7B685A1C7A60B3
:10022C001B78BB72BB7A9BB203F08003BB81BB7A99
:10023C0003F07F03BB72BB7A002B08D0BB7A194644
:10024C007868FFF7BBFFBB7A7A6813447B60BB8985
:10025C00002B0ED07B685A1C7A601B78BB81BB8943
:10026C00FF2B02D14FF4FA73BB81BB89184601F006
:10027C0041FBFB7B5A1EFA73002BC5D100BF00BF9C
:10028C001037BD4680BD000090B585B000AF044668
:10029C00084611461A462346FB710346BB710B46B2
:1002AC007B7113463B712A20FFF76EFF00233B73D3
:1002BC00174B1A78FB791344DBB27B730023BB73A7
:1002CC00134B1A787B791344DBB2FB7307F10C03E5
:1002DC0004211846FFF772FF2B20FFF755FF0D4B3B
:1002EC001A78BB791344DBB27B730A4B1A783B79CF
:1002FC001344DBB2FB7307F10C0304211846FFF720
:10030C005DFF2C20FFF740FF00BF1437BD4690BDAA
:10031C00080000200900002082B090B589B000AF21
:10032C007B630346FB800B46BB801346FB70FB884C
:10033C00D8B2BB88D9B2FB88DAB297F83430134400
:10034C00DBB2013BDCB2BB88DAB297F83530134430
:10035C00DBB2013BDBB22246FFF796FF0023FB61C9
:10036C0043E0BA6BFB78203B97F8351001FB03F3A5
:10037C001946FB690B445B0013441B887B6100230B
:10038C00BB6129E07A69BB6902FA03F303F4004309
:10039C00002B0ED0BB8F1B0A9BB2DBB23B74BB8F06
:1003AC00DBB27B7407F1100302211846FFF706FF3E
:1003BC000FE0B7F840301B0A9BB2DBB23B73B7F8C7
:1003CC004030DBB27B7307F10C0302211846FFF7B8
:1003DC00F5FEBB690133BB6197F834301A46BB6933
:1003EC009342CFD3FB690133FB6197F835301A4642
:1003FC00FB699342B5D300BF00BF2437BD46BDE8AF
:10040C00904002B07047000080B500AFFFF7A0FE2F
:10041C0000224FF480410B4801F0F0FCFFF79EFEE8
:10042C000948FFF7E7FE0948FFF7E4FE0848FFF725
:10043C00E1FE01224FF48041024801F0DFFC00BFD5
:10044C0080BD00BF000C0140F4490008304A000890
:10045C00404A000880B584B000AF0346FB800B46D1
:10046C00BB8013467B80FB881B4AB2F90020934269
:10047C002EDABB88194AB2F90020934228DA0022FE
:10048C004FF48041164801F0B9FCFB88D8B2BB8808
:10049C00D9B2FB88DBB20133DAB2BB88DBB20133F1
:1004AC00DBB2FFF7F1FE7B881B0A9BB2DBB23B731E
:1004BC007B88DBB27B7307F10C0302211846FFF734
:1004CC007DFE01224FF48041054801F097FC00E0CD
:1004DC0000BF1037BD4680BD060000200400002080
:1004EC00000C014082B080B586B004AF3A607B61ED
:1004FC000346FB800B46BB8000224FF4804125480D
:10050C0001F07CFC33E0FB883A7D1344224AB2F9BB
:10051C000020934216DB0023FB807B7D1A46BB88B0
:10052C001344BB80BB887A7D13441C4AB2F900206B
:10053C00934221DA3B681B78202B03D13B680133B3
:10054C003B6014E03B681A78B988F8883B8C0293BE
:10055C00BB8B0193BB6900937B69FFF7DDFE3B7D91
:10056C001A46FB881344FB803B6801333B603B68B5
:10057C001B78002BC7D100E000BF01224FF4804153
:10058C00044801F03BFC00BF0837BD46BDE8804085
:10059C0002B07047000C014006000020040000204F
:1005AC0090B585B000AF0446084611461A4623465E
:1005BC00FB800346BB800B467B8013463B80FB884D
:1005CC003C4AB2F9002093426FDABB883A4AB2F93E
:1005DC000020934269DAFA887B881344354AB2F9D1
:1005EC000020934206DD334BB3F900309AB2FB88FE
:1005FC00D31A7B80BA883B8813442F4AB2F9002067
:10060C00934206DD2C4BB3F900309AB2BB88D31A57
:10061C003B8000224FF48041284801F0EFFBFB881F
:10062C00D8B2BB88D9B2FB88DAB27B88DBB2134470
:10063C00DBB2013BDCB2BB88DAB23B88DBB21344E1
:10064C00DBB2013BDBB22246FFF71EFE3B8C1B0AE2
:10065C009BB2DBB23B733B8CDBB27B7301224FF45E
:10066C000051164801F0CAFB3B88BB8013E07B8825
:10067C00FB800AE007F10C014FF0FF330222104817
:10068C0002F088FFFB88013BFB80FB88002BF1D13B
:10069C00BB88013BBB80BB88002BE8D101224FF407
:1006AC008041064801F0AAFB00E000BF1437BD46AC
:1006BC0090BD00BF0600002004000020000C01408B
:1006CC00B400002080B500AF01224FF40041024875
:1006DC0001F094FB00BF80BD000C014090B585B0CB
:1006EC0000AF0446084611461A462346FB800346D3
:1006FC00BB800B467B8013467B707B88C3F1010368
:10070C009BB2FB810123BB817B885B429AB27B88C5
:10071C00D31A9BB27B8100233B81B7F920309BB26B
:10072C0001339BB23B847BE0B7F90E30002B0EDB20
:10073C00B7F902309BB2013B9BB27B807B890233C1
:10074C009BB27B81FA897B8913449BB2FB81B7F9FD
:10075C0008309BB201339BB23B81BB8902339BB205
:10076C00BB81FA89BB8913449BB2FB817B7803F074
:10077C000103002B27D0FA883B8913449BB218B293
:10078C00BA887B88D31A9BB219B27B885B009AB269
:10079C003B8C13449BB21AB2BB8C00F04FF9FA8815
:1007AC007B8813449BB218B2BA883B89D31A9BB28C
:1007BC0019B23B895B009AB23B8C13449BB21AB2C0
:1007CC00BB8C00F03BF97B7803F00203002B27D0A5
:1007DC00FA883B89D31A9BB218B2BA887B88D31A91
:1007EC009BB219B27B885B009AB23B8C13449BB2D0
:1007FC001AB2BB8C00F022F9FA887B88D31A9BB210
:10080C0018B2BA883B89D31A9BB219B23B895B00E8
:10081C009AB23B8C13449BB21AB2BB8C00F00EF90B
:10082C00B7F90820B7F902309A42FFF67DAF00BF46
:10083C0000BF1437BD4690BD90B585B002AF0446DD
:10084C00084611461A462346FB800346BB800B46DE
:10085C007B8013463B80FA883B8B134498B2B98853
:10086C007A883B8BD31A9AB23B8BD31A9AB23C88B8
:10087C00BB8B00932346FFF793FEFA887B881344C7
:10088C009AB23B8BD31A9BB2013B9BB218B2BA887B
:10089C003B8B13449BB219B23A883B8BD31A9AB256
:1008AC003B8BD31A9BB2013B9BB21BB2B7F91840DE
:1008BC00BA8B0192009301232246FFF70FFFFA88AF
:1008CC003B8B13449BB218B2BA883B8B13449BB23C
:1008DC0019B23A883B8BD31A9AB23B8BD31A9BB280
:1008EC00013B9BB21BB2B7F91840BA8B0192009333
:1008FC0002232246FFF7F2FE00BF0C37BD4690BD27
:10090C0090B589B000AF0446084611461A462346F6
:10091C00FB800346BB800B467B8013463B80B7F9BC
:10092C000020B7F90430D31A83EAE372A2EBE37226
:10093C00B7F90210B7F90630CB1A002BB8BF5B42DF
:10094C009A42CCBF01230023DBB27B83B7F91A3068
:10095C00002B0BD0FB883B83BB88FB803B8BBB8085
:10096C007B88FB823B887B80FB8A3B80B7F9062027
:10097C00B7F902309A420BDDFB88BB827B88FB8087
:10098C00BB8A7B80BB887B823B88BB807B8A3B801D
:10099C007A88FB88D31A9BB23B82B7F90020B7F94F
:1009AC000430D31A002BB8BF5B42FB81B7F910306F
:1009BC00DA0F13445B10FB83B7F90420B7F900304E
:1009CC009A4202DA0123BB832DE04FF6FF73BB83FF
:1009DC0029E0B7F91A30002B06D0BB88F9883A8E7B
:1009EC001846FFF737FD05E0FB88B9883A8E1846A4
:1009FC00FFF730FDFA8BFB89D31A9BB2FB83B7F957
:100A0C001E30002B09DABA88BB8B13449BB2BB8017
:100A1C00FA8B3B8A13449BB2FB83B7F906309BB22B
:100A2C0001339BB2FB80B7F90620B7F902309A422A
:100A3C00CFDD00BF00BF2437BD4690BD90B585B05B
:100A4C0002AF0446084611461A462346FB8003466D
:100A5C00BB800B467B8013463B801B4BB3F90030AD
:100A6C00B7F906209A422BDA184BB3F90030B7F9D4
:100A7C0004209A4224DAB7F90420B7F9023013445F
:100A8C00124AB2F90020934207DD104BB3F9003043
:100A9C009AB2BB88D31A9BB27B80BA887B881344EA
:100AAC009BB2013B9BB21CB2B7F90620B7F90410FC
:100ABC00B7F906003B8800932346FFF721FF00E0BF
:100ACC0000BF0C37BD4690BD06000020040000207E
:100ADC0080B584B000AF0346FB71FB7903F00303D0
:100AEC00DAB24A4B1A7000224FF48041484801F0A8
:100AFC0085F93620FFF748FB444B1B78032B7BD83A
:100B0C0001A252F823F000BF250B0008610B00086E
:100B1C009D0B0008C90B00083E4B1A783D4B5B78C7
:100B2C001343DAB23B4BDB781343DBB2FB7307F1B5
:100B3C000F0301211846FFF741FB374B80221A8027
:100B4C00364BA0221A80364B02221A70354B0122EA
:100B5C001A7051E02F4B5A782E4B9B781343DAB214
:100B6C002C4BDB781343DBB2BB7307F10E03012173
:100B7C001846FFF723FB284BA0221A80274B802214
:100B8C001A80274B01221A70264B02221A7033E06E
:100B9C00204BDB787B7307F10D0301211846FFF71F
:100BAC000DFB1D4B80221A801C4BA0221A801C4B63
:100BBC0002221A701B4B01221A701DE0154B1A7879
:100BCC00144B9B781343DAB2124BDB781343DBB232
:100BDC003B7307F10C0301211846FFF7EFFA0E4B9C
:100BEC00A0221A800D4B80221A800D4B01221A7004
:100BFC000C4B02221A7000BF01224FF480410448B2
:100C0C0001F0FCF800BF1037BD4680BD9C000020F1
:100C1C00000C014000000020060000200400002011
:100C2C00080000200900002080B400AF034BB3F98A
:100C3C0000301846BD4680BC704700BF0400002041
:100C4C0080B400AF034BB3F900301846BD4680BCEE
:100C5C00704700BF0600002080B586B004AF7860F6
:100C6C003960104B4FF6E0720292002201925A68E2
:100C7C0000921B687A6829211020FFF733FC094B7E
:100C8C00002202924FF6E07201925A6800921B68A1
:100C9C003A6851211020FFF725FC00BF0837BD46EC
:100CAC0080BD00BF1C00002080B582B002AF0022C6
:100CBC001549164802F0F4F800221549134801F0C2
:100CCC0061FF114B9B781A460F4B5B7819460E4B04
:100CDC00DB7800930B460F490F4803F013F90C4BCC
:100CEC001B781A460A4B5B781946094B9B78009384
:100CFC000B460A490A4803F005F907490848FFF76B
:100D0C00ABFF00BFBD4680BD98010020A0000020B5
:100D1C0094010020884800087401002098480008BD
:100D2C005401002080B487B000AF7860134A07F1FB
:100D3C000C0307CA83E807007B685B78002B03D0A1
:100D4C007B685B780C2B01D9002311E07B689B78C6
:100D5C00002B0AD07B689A787B685B78013B183350
:100D6C003B4413F80C3C9A4201D9002300E00123C8
:100D7C0018461C37BD4680BC704700BFA848000809
:100D8C0080B483B000AF78607B681B78172B07D8D2
:100D9C007B685B783B2B03D87B689B783B2B01D91A
:100DAC00002300E0012318460C37BD4680BC704779
:100DBC0090B585B000AF786039607868FFF7C0F9FE
:100DCC0004463868FFF7BCF903469C4201D0002367
:100DDC0032E00023FB6027E03A68FB6813441B7881
:100DEC003A2B07D17A68FB6813441B783A2B18D03E
:100DFC00002321E03A68FB6813441B782F2B07D1A2
:100E0C007A68FB6813441B782F2B0AD0002313E05D
:100E1C007A68FB6813441B78303B092B01D90023FB
:100E2C000AE0FB680133FB603868FFF789F902467A
:100E3C00FB689342D0D3012318461437BD4690BDAE
:100E4C0080B598B002AF924B7B65786DFFF778F95F
:100E5C0003469AB24FF0FF33796D8E4802F0E7FDEE
:100E6C003B463221184600F02FF93B468A4918467A
:100E7C00FFF79EFF034683F00103DBB2002B0DD07E
:100E8C00864BFB63F86BFFF75BF903469AB24FF0A6
:100E9C00FF33F96B7F4802F0CAFDF4E03B78303B3E
:100EAC00DBB21A46920013445B00DAB27B7813442F
:100EBC00DBB2303BDBB287F83830FB78303BDBB24F
:100ECC001A46920013445B00DAB23B791344DBB24E
:100EDC00303BDBB287F83930BB79303BDBB21A469A
:100EEC00920013445B00DAB2FB791344DBB2303B63
:100EFC00DBB287F83A306A4B3B65386DFFF720F967
:100F0C0003469AB24FF0FF33396D624802F08FFD01
:100F1C003B463221184600F0D7F83B46614918464B
:100F2C00FFF746FF034683F00103DBB2002B0DD025
:100F3C005D4B3B64386CFFF703F903469AB24FF0F4
:100F4C00FF33396C534802F072FD9CE03B78303B28
:100F5C00DBB21A46920013445B00DAB27B7813447E
:100F6C00DBB2303BDBB287F83630FB78303BDBB2A0
:100F7C001A46920013445B00DAB23B791344DBB29D
:100F8C00303BDBB287F83530BB79303BDBB21A46ED
:100F9C00920013445B00DAB2FB791344DBB2303BB2
:100FAC00DBB287F8373007F134031846FFF7BAFE87
:100FBC00034687F84F3007F138031846FFF7E0FE79
:100FCC00034687F84E3097F84F3083F00103DBB2BD
:100FDC00002B06D197F84E3083F00103DBB2002BC7
:100FEC000DD0324B7B64786CFFF7AAF803469AB2AB
:100FFC004FF0FF33796C274802F019FD43E007F1FD
:10100C003803002219462A4801F024FD07F1340365
:10101C0000221946264801F08DFE264BBB64B86CA5
:10102C00FFF78EF803469AB24FF0FF33B96C1948AC
:10103C0002F0FDFC97F836301A4697F83530194611
:10104C0097F8373000930B461B491C4802F05AFFA7
:10105C0097F838301A4697F83930194697F83A30DD
:10106C0000930B461649174802F04CFF64231E22CE
:10107C001449084802F0DBFC64231E220F49054882
:10108C0002F0D5FC00E0DEE600BF5837BD4680BD5F
:10109C00B44800080C010020CC480008D8480008CF
:1010AC00044900081C490008284900085449000854
:1010BC00A0000020844900089C490008740100200D
:1010CC00B44900085401002080B584B000AF7860AA
:1010DC000B467B800023FB8112E007F10D014FF0E2
:1010EC00FF3301220E4802F02DFD7B7B0D2B0DD022
:1010FC00FB895A1CFA811A467B6813447A7B1A7056
:10110C00FA897B88013B9A42E7DB00E000BFFB8950
:10111C007A68134400221A7000BF1037BD4680BD98
:10112C000C01002090B589B004AF00F081FB00F0F9
:10113C009BF800F0A1F900F03FF900F0F3F800F093
:10114C0071F9FFF761F9FFF7BDFA0123FB71FB7928
:10115C001846FFF7BDFC1F23019302230093802345
:10116C00A02201210120FFF767FB0023FB6016E0A2
:10117C00FB689BB2002200211846FFF76BF9FB6855
:10118C009CB2FFF751FD03469BB2013B9BB2002280
:10119C0019462046FFF75EF9FB680133FB60FFF749
:1011AC004FFD03461A46FB689342E1DB0023BB600C
:1011BC0015E0BB689BB2002219460020FFF74AF9E4
:1011CC00FFF73EFD03469BB2013B9BB2BA6891B25E
:1011DC0000221846FFF73EF9BB680133BB60FFF7EE
:1011EC0023FD03461A46BB689342E2DB1A4B1F22CF
:1011FC000292002201925A6800921B68174A05213C
:10120C000A20FFF76FF94FF6E07301930623009362
:10121C00282382221E210F20FFF70EFB00230193AF
:10122C00062300932823822246210F20FFF704FB7C
:10123C000B4B1F2202924FF6E07201925A680092F9
:10124C001B68084A73210520FFF74CF9FFF7F8FDDE
:10125C00FFF72AFDFCE700BF14000020CC49000872
:10126C000C000020DC49000880B594B000AF07F1F9
:10127C00280328220021184602F064FE07F114030B
:10128C0000221A605A609A60DA601A613B1D0022D3
:10129C001A605A609A60DA600923BB624FF480339B
:1012AC00FB6200233B630123BB6301233B640223EA
:1012BC007B644FF48033BB644FF4E013FB6407F1A1
:1012CC002803184600F0BEFD0346002B01D000F0A9
:1012DC002DF90F237B610223BB610023FB614FF4CB
:1012EC0080633B6200237B6207F1140302211846E2
:1012FC0001F02AF80346002B01D000F017F9012366
:10130C007B604FF40073BB603B1D184601F0AAF9DB
:10131C000346002B01D000F009F900BF5037BD4641
:10132C0080BD000080B582B000AF3B1D00210A4695
:10133C001A800A469A7000233B601D4B1D4A1A60A6
:10134C001B4B4FF0FF325A60194B4FF480729A606E
:10135C00174801F0F3FA0346002B01D000F0E6F831
:10136C0000233B7100237B710023BB713B1D0122C9
:10137C0019460F4801F06EFB0346002B01D000F01C
:10138C00D5F801233B7001237B700123BB70002334
:10139C00FB703B4601221946054801F0CBFC034685
:1013AC00002B01D000F0C2F800BF0837BD4680BD4D
:1013BC00A00000200028004080B500AF174B184A51
:1013CC001A60164B4FF482725A60144B00229A60CA
:1013DC00124B0022DA60114B00221A610F4B0022D3
:1013EC005A610E4B4FF400729A610C4B0822DA6171
:1013FC000A4B00221A62094B00225A62074B002248
:10140C009A62064B0A22DA62044802F03FF803465D
:10141C00002B01D000F08AF800BF80BDB400002082
:10142C000030014080B500AF114B124A1A60104BCE
:10143C004FF4E1325A600E4B00229A600C4B0022A2
:10144C00DA600B4B00221A61094B0C225A61084BD3
:10145C0000229A61064B0022DA61054802F097FAE5
:10146C000346002B01D000F061F800BF80BD00BF27
:10147C000C0100200038014080B588B000AF07F1A6
:10148C00100300221A605A609A60DA60244B9B6940
:10149C00234A43F020039361214B9B6903F0200303
:1014AC00FB60FB681E4B9B691D4A43F00403936170
:1014BC001B4B9B6903F00403BB60BB68184B9B6917
:1014CC00174A43F008039361154B9B6903F008031B
:1014DC007B607B6800224FF4E041124800F08EFCE8
:1014EC0002233B6100237B610023BB6107F11003E6
:1014FC0019460D4800F006FB4FF4E0433B61012315
:10150C007B610023BB610223FB6107F110031946C9
:10151C00044800F0F7FA00BF2037BD4680BD00BF7D
:10152C0000100240000C01400008014080B400AFE4
:10153C0072B600BF00BFFDE780B485B000AF154B9D
:10154C009B69144A43F001039361124B9B6903F0AE
:10155C000103BB60BB680F4BDB690E4A43F0805341
:10156C00D3610C4BDB6903F080537B607B680A4BC7
:10157C005B68FB60FB6823F0E063FB60FB6843F097
:10158C008063FB60044AFB68536000BF1437BD46A0
:10159C0080BC7047001002400000014080B584B050
:1015AC0000AF78607B681B680B4A934210D100F047
:1015BC003DFC0A4BDB69094A43F00063D361074BDE
:1015CC00DB6903F00063FB60FB68054B01221A60CA
:1015DC0000BF1037BD4680BD0028004000100240FF
:1015EC003C04424280B588B000AF786007F110032C
:1015FC0000221A605A609A60DA607B681B68154A90
:10160C00934223D1144B9B69134A43F48053936147
:10161C00114B9B6903F48053FB60FB680E4B9B6979
:10162C000D4A43F0040393610B4B9B6903F00403D5
:10163C00BB60BB68A0233B6102237B610323FB617E
:10164C0007F110031946054800F05CFA00BF20377B
:10165C00BD4680BD00300140001002400008014032
:10166C0080B58AB000AF786007F1140300221A60CD
:10167C005A609A60DA607B681B68224A93423DD1BB
:10168C00214B9B69204A43F4804393611E4B9B6919
:10169C0003F480433B613B691B4B9B691A4A43F043
:1016AC0008039361184B9B6903F00803FB60FB680C
:1016BC0040237B610223BB6103233B6207F11403CC
:1016CC001946124800F01EFA80237B610023BB618F
:1016DC000023FB6107F1140319460C4800F012FAC1
:1016EC000B4B5B687B627B6A43F0E0637B627B6ADB
:1016FC0043F004037B62064A7B6A536000BF2837C1
:10170C00BD4680BD0038014000100240000C014075
:10171C000000014080B400AF00BFFDE780B400AF13
:10172C0000BFFDE780B400AF00BFFDE780B400AFA1
:10173C0000BFFDE780B400AF00BFFDE780B400AF91
:10174C0000BFBD4680BC704780B400AF00BFBD4633
:10175C0080BC704780B400AF00BFBD4680BC7047F2
:10176C0080B500AF00F0AAF800BF80BD80B586B090
:10177C0000AF7860144A154BD31A7B617B693B61CF
:10178C00134B1B68002B02D1114B124A1A60104BE1
:10179C001A687B6813443A699A4207D202F0DAFB62
:1017AC0003460C221A604FF0FF3309E0084B1B680C
:1017BC00FB60074B1A687B681344054A1360FB688F
:1017CC0018461837BD4680BD0028002000040000D4
:1017DC009C010020F002002080B400AF00BFBD4689
:1017EC0080BC7047FFF7F8FF0B480C490C4A0023EC
:1017FC0002E0D458C4500433C4188C42F9D3094ABB
:10180C00094C002301E013600432A242FBD302F026
:10181C00A7FBFFF787FC704700000020800000202A
:10182C000473000880000020EC020020FEE700009A
:10183C0080B500AF084B1B68074A43F010031360D8
:10184C00032000F02BF90F2000F008F8FFF774FECE
:10185C000023184680BD00BF0020024080B582B036
:10186C0000AF7860124B1A68124B1B7819464FF474
:10187C007A73B3FBF1F3B2FBF3F3184600F035F9CE
:10188C000346002B01D001230EE07B680F2B0AD8F6
:10189C00002279684FF0FF3000F00BF9064A7B68A4
:1018AC001360002300E0012318460837BD4680BDB5
:1018BC00240000202C0000202800002080B400AF61
:1018CC00054B1B781A46054B1B681344034A1360DF
:1018DC0000BFBD4680BC70472C000020A00100203A
:1018EC0080B400AF024B1B681846BD4680BC7047E5
:1018FC00A001002080B584B000AF7860FFF7F0FF46
:10190C00B8607B68FB60FB68B3F1FF3F05D00A4B06
:10191C001B781A46FB681344FB6000BFFFF7E0FF1F
:10192C000246BB68D31AFA689A42F7D800BF00BFC8
:10193C001037BD4680BD00BF2C00002080B485B0A0
:10194C0000AF78607B6803F00703FB600C4BDB682F
:10195C00BB60BA684FF6FF031340BB60FB681A020A
:10196C00BB68134343F0BF6343F40033BB60044ACA
:10197C00BB68D36000BF1437BD4680BC704700BF46
:10198C0000ED00E080B400AF044BDB681B0A03F0F1
:10199C0007031846BD4680BC704700BF00ED00E051
:1019AC0080B483B000AF03463960FB7197F9073000
:1019BC00002B0ADB3B68DAB20C4997F907301201AD
:1019CC00D2B20B4483F800230AE03B68DAB2084930
:1019DC00FB7903F00F03043B1201D2B20B441A76CD
:1019EC0000BF0C37BD4680BC704700BF00E100E073
:1019FC0000ED00E080B489B000AFF860B9607A60A7
:101A0C00FB6803F00703FB61FB69C3F10703042BBD
:101A1C0028BF0423BB61FB690433062B02D9FB6985
:101A2C00033B00E000237B614FF0FF32BB6902FAFD
:101A3C0003F3DA43BB681A407B699A404FF0FF31DD
:101A4C007B6901FA03F3D9437B680B4013431846B7
:101A5C002437BD4680BC704780B582B000AF78603B
:101A6C007B68013BB3F1807F01D301230FE00A4A6D
:101A7C007B68013B53600F214FF0FF30FFF790FF65
:101A8C00054B00229A60044B07221A60002318466B
:101A9C000837BD4680BD00BF10E000E080B582B0C5
:101AAC0000AF78607868FFF749FF00BF0837BD4684
:101ABC0080BD80B586B000AF0346B9607A60FB7319
:101ACC0000237B61FFF75EFF78617A68B9687869FB
:101ADC00FFF790FF024697F90F3011461846FFF7B3
:101AEC005FFF00BF1837BD4680BD80B582B000AF28
:101AFC0078607868FFF7B0FF034618460837BD4694
:101B0C0080BD000080B48BB000AF786039600023DA
:101B1C007B6200233B6261E101227B6A02FA03F3E0
:101B2C00FB613B681B68FA691340BB61BA69FB69CE
:101B3C009A4240F050813B685B68974A93425ED072
:101B4C00954A934275D8954A934258D0934A9342FA
:101B5C006FD8934A934252D0914A934269D8914A92
:101B6C0093424CD08F4A934263D88F4A934246D0CB
:101B7C008D4A93425DD8122B2AD8122B59D801A228
:101B8C0052F823F00B1C0008E51B0008F71B00089B
:101B9C00391C00083F1C00083F1C00083F1C0008B3
:101BAC003F1C00083F1C00083F1C00083F1C00089D
:101BBC003F1C00083F1C00083F1C00083F1C00088D
:101BCC003F1C00083F1C0008ED1B0008011C00080E
:101BDC00764A934213D02CE03B68DB683B6229E0E9
:101BEC003B68DB6804333B6224E03B68DB6808330A
:101BFC003B621FE03B68DB680C333B621AE03B68DE
:101C0C009B68002B02D104233B6213E03B689B686A
:101C1C00012B05D108233B627B68FA691A6109E044
:101C2C0008233B627B68FA695A6103E000233B623C
:101C3C0000E000BFBB69FF2B01D87B6801E07B682B
:101C4C0004337B61BB69FF2B02D87B6A9B0002E0EB
:101C5C007B6A083B9B003B617B691A680F213B69DF
:101C6C0001FA03F3DB431A40396A3B6901FA03F3C7
:101C7C001A437B691A603B685B6803F08053002B46
:101C8C0000F0A9804A4B9B69494A43F001039361D8
:101C9C00474B9B6903F00103BB60BB68454A7B6AF9
:101CAC009B08023352F82330FB607B6A03F003037A
:101CBC009B000F2202FA03F3DB43FA681340FB602C
:101CCC007B683D4A93420DD07B683C4A934207D0D7
:101CDC007B683B4A934201D1022304E0032302E0D8
:101CEC00012300E000237A6A02F003029200934081
:101CFC00FA681343FB602F497B6A9B080233FA682E
:101D0C0041F823203B685B6803F48013002B06D05A
:101D1C002C4B9A682B49BB6913438B6006E0294B0B
:101D2C009A68BB69DB43274913408B603B685B684F
:101D3C0003F40013002B06D0224BDA682149BB694F
:101D4C001343CB6006E01F4BDA68BB69DB431D49CC
:101D5C001340CB603B685B6803F40033002B06D068
:101D6C00184B5A681749BB6913434B6006E0154B77
:101D7C005A68BB69DB43134913404B603B685B6893
:101D8C0003F48033002B1FD00E4B1A680D49BB692E
:101D9C0013430B601FE000BF000032100000311035
:101DAC000000221000002110000012100000111081
:101DBC00001002400000014000080140000C0140EE
:101DCC0000100140000401400B4B1A68BB69DB4357
:101DDC00094913400B607B6A01337B623B681A68CC
:101DEC007B6A22FA03F3002B7FF496AE00BF00BF90
:101DFC002C37BD4680BC70470004014080B483B0D2
:101E0C0000AF78600B467B8013467B707B78002B91
:101E1C0003D07A887B681A6103E07B881A047B689C
:101E2C001A6100BF0C37BD4680BC704780B400AF50
:101E3C00034B01221A6000BFBD4680BC704700BF37
:101E4C0020000E4280B586B000AF78607B68002B16
:101E5C0001D1012372E27B681B6803F00103002BA4
:101E6C0000F08780924B5B6803F00C03042B0CD0C2
:101E7C008F4B5B6803F00C03082B12D18C4B5B6807
:101E8C0003F48033B3F5803F0BD1894B1B6803F40B
:101E9C000033002B6CD07B685B68002B68D101236E
:101EAC004CE27B685B68B3F5803F06D1804B1B68C6
:101EBC007F4A43F4803313602EE07B685B68002B11
:101ECC000CD17B4B1B687A4A23F480331360784B1C
:101EDC001B68774A23F4802313601DE07B685B68E2
:101EEC00B3F5A02F0CD1724B1B68714A43F48023BD
:101EFC0013606F4B1B686E4A43F4803313600BE026
:101F0C006B4B1B686A4A23F480331360684B1B6865
:101F1C00674A23F4802313607B685B68002B13D023
:101F2C00FFF7DEFC386108E0FFF7DAFC02463B699C
:101F3C00D31A642B01D9032300E25D4B1B6803F415
:101F4C000033002BF0D014E0FFF7CAFC386108E036
:101F5C00FFF7C6FC02463B69D31A642B01D9032355
:101F6C00ECE1534B1B6803F40033002BF0D100E081
:101F7C0000BF7B681B6803F00203002B63D04C4B43
:101F8C005B6803F00C03002B0BD0494B5B6803F030
:101F9C000C03082B1CD1464B5B6803F48033002BDD
:101FAC0016D1434B1B6803F00203002B05D07B6852
:101FBC001B69012B01D00123C0E13D4B1B6823F0B1
:101FCC00F8027B685B69DB00394913430B603AE02C
:101FDC007B681B69002B20D0364B01221A60FFF75F
:101FEC007FFC386108E0FFF77BFC02463B69D31AA3
:101FFC00022B01D90323A1E12D4B1B6803F0020333
:10200C00002BF0D02A4B1B6823F0F8027B685B692D
:10201C00DB00274913430B6015E0264B00221A60A6
:10202C00FFF75EFC386108E0FFF75AFC02463B699B
:10203C00D31A022B01D9032380E11D4B1B6803F03B
:10204C000203002BF0D17B681B6803F00803002B04
:10205C003AD07B689B69002B19D0174B01221A6070
:10206C00FFF73EFC386108E0FFF73AFC02463B699B
:10207C00D31A022B01D9032360E10D4B5B6A03F0E9
:10208C000203002BF0D0012000F0CEFA1CE00A4B2A
:10209C0000221A60FFF724FC38610FE0FFF720FCE8
:1020AC0002463B69D31A022B08D9032346E100BF31
:1020BC00001002400000424280044242924B5B6A94
:1020CC0003F00203002BE9D17B681B6803F00403C7
:1020DC00002B00F0A6800023FB758B4BDB6903F013
:1020EC008053002B0DD1884BDB69874A43F080531A
:1020FC00D361854BDB6903F08053BB60BB68012364
:10210C00FB75824B1B6803F48073002B18D17F4B3B
:10211C001B687E4A43F480731360FFF7E1FB386160
:10212C0008E0FFF7DDFB02463B69D31A642B01D9AB
:10213C00032303E1754B1B6803F48073002BF0D071
:10214C007B68DB68012B06D16F4B1B6A6E4A43F030
:10215C00010313622DE07B68DB68002B0CD16A4B0A
:10216C001B6A694A23F001031362674B1B6A664AB8
:10217C0023F0040313621CE07B68DB68052B0CD195
:10218C00614B1B6A604A43F0040313625E4B1B6A8B
:10219C005D4A43F0010313620BE05B4B1B6A5A4A26
:1021AC0023F001031362584B1B6A574A23F00403B4
:1021BC0013627B68DB68002B15D0FFF791FB38614D
:1021CC000AE0FFF78DFB02463B69D31A41F28832D5
:1021DC00934201D90323B1E04B4B1B6A03F002037A
:1021EC00002BEED014E0FFF77BFB38610AE0FFF721
:1021FC0077FB02463B69D31A41F28832934201D9EC
:10220C0003239BE0404B1B6A03F00203002BEED12F
:10221C00FB7D012B05D13C4BDB693B4A23F0805302
:10222C00D3617B68DB69002B00F08780364B5B68E1
:10223C0003F00C03082B61D07B68DB69022B46D1C1
:10224C00334B00221A60FFF74BFB386108E0FFF7B5
:10225C0047FB02463B69D31A022B01D903236DE0DD
:10226C00294B1B6803F00073002BF0D17B681B6AB1
:10227C00B3F5803F08D1244B5B6823F400327B68B4
:10228C009B68214913434B601F4B5B6823F474120A
:10229C007B68196A7B685B6A0B431B4913434B6071
:1022AC001B4B01221A60FFF71BFB386108E0FFF79C
:1022BC0017FB02463B69D31A022B01D903233DE0DD
:1022CC00114B1B6803F00073002BF0D035E0104B62
:1022DC0000221A60FFF704FB386108E0FFF700FBEF
:1022EC0002463B69D31A022B01D9032326E0064B85
:1022FC001B6803F00073002BF0D11EE07B68DB69D8
:10230C00012B07D1012319E000100240007000409E
:10231C00600042420B4B5B68FB60FB6803F480324D
:10232C007B681B6A9A4206D1FB6803F470127B68C7
:10233C005B6A9A4201D0012300E00023184618374B
:10234C00BD4680BD0010024080B584B000AF7860FF
:10235C0039607B68002B01D10123D0E06A4B1B68EC
:10236C0003F007033A689A4210D9674B1B6823F0B5
:10237C00070265493B6813430B60634B1B6803F012
:10238C0007033A689A4201D00123B8E07B681B68C6
:10239C0003F00203002B20D07B681B6803F00403BE
:1023AC00002B05D0594B5B68584A43F4E0635360EB
:1023BC007B681B6803F00803002B05D0534B5B684C
:1023CC00524A43F460535360504B5B6823F0F00265
:1023DC007B689B684D4913434B607B681B6803F01B
:1023EC000103002B40D07B685B68012B07D1474B66
:1023FC001B6803F40033002B15D101237FE07B68AD
:10240C005B68022B07D1414B1B6803F00073002B58
:10241C0009D1012373E03D4B1B6803F00203002B31
:10242C0001D101236BE0394B5B6823F003027B681D
:10243C005B68364913434B60FFF752FAF8600AE0C9
:10244C00FFF74EFA0246FB68D31A41F288329342E8
:10245C0001D9032353E02D4B5B6803F00C027B681E
:10246C005B689B009A42EBD1274B1B6803F0070378
:10247C003A689A4210D2244B1B6823F00702224977
:10248C003B6813430B60204B1B6803F007033A684F
:10249C009A4201D0012332E07B681B6803F00403ED
:1024AC00002B08D0194B5B6823F4E0627B68DB6877
:1024BC00164913434B607B681B6803F00803002B21
:1024CC0009D0124B5B6823F460527B681B69DB00FC
:1024DC000E4913434B6000F021F802460B4B5B682E
:1024EC001B0903F00F030A49CB5C22FA03F3094AD8
:1024FC001360094B1B681846FFF7B0F90023184608
:10250C001037BD4680BD00BF0020024000100240C5
:10251C0080720008240000202800002080B487B0BE
:10252C0000AF0023FB600023BB6000237B61002312
:10253C007B6000233B611E4B5B68FB60FB6803F018
:10254C000C03042B02D0082B03D027E0194B3B6162
:10255C0027E0FB689B0C03F00F03174AD35C7B60EE
:10256C00FB6803F48033002B10D0114B5B685B0CC1
:10257C0003F00103114AD35CBB607B680D4A03FB7B
:10258C0002F2BB68B2FBF3F37B6104E07B680C4A9C
:10259C0002FB03F37B617B693B6102E0054B3B6112
:1025AC0000BF3B6918461C37BD4680BC704700BF56
:1025BC000010024000127A0098720008A8720008FD
:1025CC0000093D0080B400AF024B1B681846BD46A5
:1025DC0080BC70472400002080B500AFFFF7F2FFED
:1025EC000246054B5B681B0A03F007030349CB5CEF
:1025FC0022FA03F3184680BD0010024090720008C6
:10260C0080B500AFFFF7DEFF0246054B5B68DB0AC7
:10261C0003F007030349CB5C22FA03F3184680BD91
:10262C00001002409072000880B485B000AF786052
:10263C000A4B1B680A4AA2FB03235B0A7A6802FB5B
:10264C0003F3FB6000BFFB685A1EFA60002BF9D144
:10265C0000BF00BF1437BD4680BC7047240000206B
:10266C00D34D621080B586B000AF786000233B611B
:10267C000023FB607B681B6803F00103002B7DD0FB
:10268C000023FB754F4BDB6903F08053002B0DD1FE
:10269C004C4BDB694B4A43F08053D361494BDB69AC
:1026AC0003F08053BB60BB680123FB75464B1B6872
:1026BC0003F48073002B18D1434B1B68424A43F43C
:1026CC0080731360FFF70CF9386108E0FFF708F925
:1026DC0002463B69D31A642B01D903236DE03A4BB4
:1026EC001B6803F48073002BF0D0364B1B6A03F489
:1026FC004073FB60FB68002B2ED07B685B6803F497
:10270C004073FA689A4227D02E4B1B6A23F440730D
:10271C00FB602E4B01221A602C4B00221A60294AB6
:10272C00FB681362FB6803F00103002B14D0FFF766
:10273C00D7F838610AE0FFF7D3F802463B69D31AA1
:10274C0041F28832934201D9032336E01D4B1B6AB8
:10275C0003F00203002BEED01A4B1B6A23F44072D9
:10276C007B685B68174913430B62FB7D012B05D11A
:10277C00144BDB69134A23F08053D3617B681B68CD
:10278C0003F00203002B08D00E4B5B6823F440428D
:10279C007B689B680B4913434B607B681B6803F099
:1027AC001003002B08D0074B5B6823F480027B6876
:1027BC00DB68044913434B60002318461837BD46A9
:1027CC0080BD00BF00100240007000404004424237
:1027DC0080B588B000AF786000237B610023FB617B
:1027EC0000233B610023FB600023BB617B68102B43
:1027FC000AD07B68102B00F28A807B68012B45D0B5
:10280C007B68022B75D082E0464B5B68FB60454BC6
:10281C001B6803F08073002B7BD0FB689B0C03F0D0
:10282C000F03414AD35C3B61FB6803F48033002BFC
:10283C0015D03C4B5B685B0C03F001033B4AD35C4B
:10284C007B61FB6803F48033002B0DD0384A7B6925
:10285C00B2FBF3F23B6902FB03F3FB6104E03B695F
:10286C00344A02FB03F3FB612E4B5B6803F48003D9
:10287C00B3F5800F02D1FB69BB614AE0FB695B00D9
:10288C002D4AA2FB03235B08BB6142E0254B1B6A6C
:10289C00FB60FB6803F44073B3F5807F08D1FB68E1
:1028AC0003F00203002B03D04FF40043BB611FE085
:1028BC00FB6803F44073B3F5007F09D1194B5B6AD5
:1028CC0003F00203002B03D049F64043BB610FE039
:1028DC00FB6803F44073B3F5407F1CD1114B1B68AC
:1028EC0003F40033002B16D04FF22443BB6112E0EB
:1028FC0011E0FFF785FE02460A4B5B689B0B03F069
:10290C00030301335B00B2FBF3F3BB6104E000BFD4
:10291C0002E000BF00E000BFBB6918462037BD468F
:10292C0080BD00BF00100240AC720008BC720008F1
:10293C0000127A0000093D00ABAAAAAA80B584B0A7
:10294C0000AF78600023FB607B68002B01D1012372
:10295C007AE07B685B7CDBB2002B05D17B680022C4
:10296C001A747868FEF71AFE7B6802225A7478682B
:10297C0000F0EAFA0346002B04D07B6804225A7458
:10298C00012361E0786800F0A3FB0346002B04D020
:10299C007B6804225A74012356E07B681B685A68D2
:1029AC007B681B6822F007025A607B689B68002BCF
:1029BC0005D0274B1B6B264A23F001031363244BD2
:1029CC00DB6A23F460727B689B6821491343CB62FA
:1029DC007B685B68B3F1FF3F03D07B685B68FB608F
:1029EC000EE00120FFF7F4FEF860FB68002B04D129
:1029FC007B6804225A74012326E0FB68013BFB60D0
:102A0C00FB681A0C7B681B6802F00F029A607B68EB
:102A1C001B68FA6892B2DA60786800F081FB0346B2
:102A2C00002B04D07B6804225A7401230CE07B68D1
:102A3C000022DA737B6801225A737B6801229A7335
:102A4C007B6801225A74002318461037BD4680BD9E
:102A5C00006C004090B587B000AFF860B9607A6048
:102A6C0000237B6100233B61FB68002B02D0BB6819
:102A7C00002B01D1012380E0FB681B7C012B01D1D1
:102A8C0002237AE0FB6801221A74FB6802225A7452
:102A9C007B68002B13D1BB681B781A464FF461631B
:102AAC0003FB02F2BB685B7819460B461B015B1AF1
:102ABC009B001344BA68927813447B611EE0BB6898
:102ACC001B78184600F071FB03461A464FF46163FD
:102ADC0003FB02F4BB685B78184600F066FB034608
:102AEC001A4613461B019B1A9B001C44BB689B781F
:102AFC00184600F05AFB034623447B617969F86859
:102B0C0000F07FFA0346002B07D0FB6804225A74AE
:102B1C00FB6800221A7401232FE0FB681B685A68BB
:102B2C00FB681B6822F005025A60F86800F090FA06
:102B3C0038613B69B3F1FF3F18D03A697B699A421F
:102B4C0014D23B6903F5A83303F5C0733B613969B3
:102B5C00F86800F096FA0346002B07D0FB680422B5
:102B6C005A74FB6800221A74012306E0FB680122E8
:102B7C005A74FB6800221A74002318461C37BD4691
:102B8C0090BD000080B588B000AFF860B9607A6085
:102B9C000023BB610023FB6100237B6100233B61AD
:102BAC00FB68002B02D0BB68002B01D10123B5E0E0
:102BBC00FB681B685B6803F00403002B01D0012346
:102BCC00ACE0F86800F0EDF9B861BB69554AA2FBBE
:102BDC000323DB0A3B61BA69524BA3FB0213DB0AEA
:102BEC004FF4616101FB03F3D31A4F4AA2FB032399
:102BFC005B09DAB2BB685A70BB694A4AA2FB031282
:102C0C00D20A4FF4616101FB02F29A1A464BA3FB04
:102C1C00021359090B461B015B1A9B00D11ACAB24D
:102C2C00BB689A703B69172B55D93B693F4AA2FB8D
:102C3C0003231B097B6139693C4BA3FB01231A0954
:102C4C0013465B001344DB00CA1AD2B2BB681A707D
:102C5C00F86800F0FDF9F861FB69B3F1FF3F08D0AB
:102C6C00FA69BB699A4204D9FA69BB69D31AFB6148
:102C7C0002E04FF0FF33FB617B692D4A02FB03F34B
:102C8C00BA69D31ABB61B969F86800F0BAF903469E
:102C9C00002B01D0012341E0FB69B3F1FF3F0CD0C5
:102CAC00FA69BB691344FB61F969F86800F0E9F94A
:102CBC000346002B0AD0012330E0F969F86800F0D4
:102CCC00E0F90346002B01D0012327E07969F8686D
:102CDC0000F088FA03E03B69DAB2BB681A707B68D3
:102CEC00002B1AD0BB681B78184600F041FA03463B
:102CFC001A46BB681A70BB685B78184600F038FA45
:102D0C0003461A46BB685A70BB689B78184600F09D
:102D1C002FFA03461A46BB689A70002318462037D0
:102D2C00BD4680BDC5B3A29189888888ABAAAAAAE2
:102D3C008051010080B588B000AFF860B9607A604E
:102D4C000023FB610023BB6100237B61FB68002B2C
:102D5C0002D0BB68002B01D1012397E0FB681B7CE0
:102D6C00012B01D1022391E0FB6801221A74FB684C
:102D7C0002225A747B68002B0CD1BB68DA78FB6892
:102D8C00DA73BB685A78FB685A73BB689A78FB682D
:102D9C009A731AE0BB68DB78184600F006FA034613
:102DAC001A46FB68DA73BB685B78184600F0FDF9CD
:102DBC0003461A46FB685A73BB689B78184600F0AA
:102DCC00F4F903461A46FB689A73FB68DB7B1846DA
:102DDC00FB68597BFB689B7B1A4600F0DFFA0346C5
:102DEC001A46FB681A73FB681A7BBB681A70F86882
:102DFC0000F0D7F8F861FB69264AA2FB0323DB0A33
:102E0C007B617B69182B3AD97B69234AA2FB03238C
:102E1C001B09224A02FB03F3FA69D31AFB61F96915
:102E2C00F86800F0EEF80346002B07D0FB6804228C
:102E3C005A74FB6800221A74012327E0F86800F02A
:102E4C0007F9B861BB69B3F1FF3F18D0BA69FB69E8
:102E5C009A4214D2BB6903F5A83303F5C073BB6166
:102E6C00B969F86800F00DF90346002B07D0FB6830
:102E7C0004225A74FB6800221A74012306E0FB68D2
:102E8C0001225A74FB6800221A740023184620375A
:102E9C00BD4680BDC5B3A291ABAAAAAA80510100C0
:102EAC0080B586B000AFF860B9607A6007F11403A2
:102EBC0000210A461A800A469A70FB68002B02D041
:102ECC00BB68002B01D101233AE007F11403002267
:102EDC001946F868FFF756FE0346002B01D0012374
:102EEC002EE0FB681A7BBB681A70FB68DA7BBB6848
:102EFC00DA70FB685A7BBB685A70FB689A7BBB68BC
:102F0C009A707B68002B1AD0BB68DB78184600F0EF
:102F1C002FF903461A46BB68DA70BB685B78184613
:102F2C0000F026F903461A46BB685A70BB689B78BA
:102F3C00184600F01DF903461A46BB689A70002328
:102F4C0018461837BD4680BD80B584B000AF786098
:102F5C000023FB607B68002B01D101231DE07B6803
:102F6C001B685A687B681B6822F008025A60FEF7DF
:102F7C00B7FCF86009E0FEF7B3FC0246FB68D31A15
:102F8C00B3F57A7F01D9032307E07B681B685B6884
:102F9C0003F00803002BEED0002318461037BD4673
:102FAC0080BD80B487B000AF786000237B820023A3
:102FBC003B820023FB8100237B617B681B689B6940
:102FCC007B827B681B68DB69FB817B681B689B6968
:102FDC003B827A8A3B8A9A4208D03B8A1A047B68E5
:102FEC001B68DB699BB213437B6104E07B8A1A0488
:102FFC00FB8913437B617B6918461C37BD4680BC3B
:10300C00704780B584B000AF786039600023FB73E3
:10301C00786800F05DF80346002B02D00123FB73A7
:10302C0011E07B681B683A68120C9A617B681B681C
:10303C003A6892B2DA61786800F072F80346002BB5
:10304C0001D00123FB73FB7B18461037BD4680BDB6
:10305C0080B485B000AF78600023FB810023BB8176
:10306C007B681B681B6AFB817B681B685B6ABB8186
:10307C00FB891A04BB89134318461437BD4680BC20
:10308C00704780B584B000AF786039600023FB7363
:10309C00786800F01DF80346002B02D00123FB7367
:1030AC0011E07B681B683A68120C1A627B681B681B
:1030BC003A6892B25A62786800F032F80346002BF4
:1030CC0001D00123FB73FB7B18461037BD4680BD36
:1030DC0080B584B000AF78600023FB60FEF700FC85
:1030EC00F86009E0FEF7FCFB0246FB68D31AB3F567
:1030FC007A7F01D903230FE07B681B685B6803F0C0
:10310C002003002BEED07B681B685A687B681B6819
:10311C0042F010025A60002318461037BD4680BD9D
:10312C0080B584B000AF78600023FB607B681B68BF
:10313C005A687B681B6822F010025A60FEF7D0FBBD
:10314C00F86009E0FEF7CCFB0246FB68D31AB3F536
:10315C007A7F01D9032307E07B681B685B6803F067
:10316C002003002BEED0002318461037BD4680BD3F
:10317C0080B485B000AF0346FB710023FB6005E013
:10318C00FB680133FB60FB790A3BFB71FB79092B74
:10319C00F6D8FB68DBB21B01DAB2FB791343DBB266
:1031AC0018461437BD4680BC704780B485B000AF5C
:1031BC000346FB710023FB60FB791B09DBB21A464B
:1031CC0013469B0013445B00FB60FB7903F00F0379
:1031DC00DAB2FB68DBB21344DBB218461437BD46D7
:1031EC0080BC704780B586B000AF78603960002332
:1031FC007B6100233B610023FB600023BB607B6889
:10320C00DB7B7B617B685B7B3B617B689B7BFB60D7
:10321C000023BB606FE03B69012B11D03B69032B92
:10322C000ED03B69052B0BD03B69072B08D03B69B3
:10323C00082B05D03B690A2B02D03B690C2B17D10C
:10324C00FB681E2B03D8FB680133FB6050E03B6925
:10325C000C2B05D03B6901333B610123FB6047E03C
:10326C0001233B610123FB607B6901337B613FE000
:10327C003B69042B08D03B69062B05D03B69092B15
:10328C0002D03B690B2B0CD1FB681D2B03D8FB68C0
:10329C000133FB602CE03B6901333B610123FB6094
:1032AC0026E03B69022B23D1FB681B2B03D8FB6860
:1032BC000133FB601CE0FB681C2B11D17B699BB2BA
:1032CC00184600F039F80346002B03D0FB68013395
:1032DC00FB600DE03B6901333B610123FB6007E0C0
:1032EC00FB681D2B04D13B6901333B610123FB605F
:1032FC00BB680133BB60BA683B689A428BD37B696D
:10330C00DAB27B68DA733B69DAB27B685A73FB68B2
:10331C00DAB27B689A733B69DBB2FA68D2B21946AF
:10332C00786900F03BF803461A467B681A7300BFB5
:10333C001837BD4680BD000080B483B000AF034693
:10334C00FB80FB8803F003039BB2002B01D000230E
:10335C001DE0FB88104AA2FB03125209642101FBF9
:10336C0002F29B1A9BB2002B01D001230FE0FB88C9
:10337C00094AA2FB0312D2094FF4C87101FB02F2F5
:10338C009B1A9BB2002B01D1012300E000231846AD
:10339C000C37BD4680BC70471F85EB5180B485B09F
:1033AC0000AF78600B46FB701346BB700023BB600C
:1033BC000023FB607B6803F5FA63BB60FB78022B90
:1033CC002DD8FA7813465B001344DB009B1A2C4A69
:1033DC00A2FB03235A08BB781A44BB681A44BB6887
:1033EC00013B9B081A44BB68013B2649A1FB031314
:1033FC005B09D21ABB68013B2249A1FB0313DB0911
:10340C0013441A1D204BA3FB0213D11A49080B4479
:10341C0099080B46DB005B1AD31AFB6029E0FA789B
:10342C0013465B001344DB009B1A154AA2FB0323D3
:10343C005A08BB781A44BB681A44BB689B081A44E8
:10344C00BB681049A1FB03135B09D21ABB680D4979
:10345C00A1FB0313DB0913449A1C0B4BA3FB0213B4
:10346C00D11A49080B4499080B46DB005B1AD31A96
:10347C00FB60FB68DBB218461437BD4680BC704756
:10348C00398EE3381F85EB512549922480B582B0E3
:10349C0000AF78607B68002B01D1012376E07B685C
:1034AC005B6A002B08D17B685B68B3F5827F09D01F
:1034BC007B680022DA6105E07B6800221A617B6878
:1034CC0000225A617B6800229A627B6893F8513023
:1034DC00DBB2002B06D17B68002283F85020786881
:1034EC00FEF780F87B68022283F851207B681B680A
:1034FC001A687B681B6822F040021A607B685B6864
:10350C0003F482727B689B6803F404431A437B6860
:10351C00DB6803F400631A437B681B6903F0020346
:10352C001A437B685B6903F001031A437B689B6950
:10353C0003F400731A437B68DB6903F038031A4306
:10354C007B681B6A03F0800342EA03017B689B6A79
:10355C0003F400527B681B680A431A607B689B6902
:10356C001A0C7B681B6802F004025A607B681B68AB
:10357C00DA697B681B6822F40062DA617B680022DE
:10358C005A657B68012283F85120002318460837BE
:10359C00BD4680BD80B588B000AFF860B9603B60B7
:1035AC001346FB80FEF79CF9F861FB887B83FB6874
:1035BC0093F85130DBB2012B01D002232AE1BB6816
:1035CC00002B02D0FB88002B01D1012322E1FB68E8
:1035DC0093F85030012B01D102231BE1FB6801222F
:1035EC0083F85020FB68032283F85120FB680022EB
:1035FC005A65FB68BA681A63FB68FA889A86FB6896
:10360C00FA88DA86FB6800229A63FB6800229A87A4
:10361C00FB680022DA87FB6800225A64FB680022F0
:10362C001A64FB689B68B3F5004F0FD1FB681B68ED
:10363C001A68FB681B6822F040021A60FB681B6862
:10364C001A68FB681B6842F480421A60FB681B68AE
:10365C001B6803F04003402B07D0FB681B681A68FB
:10366C00FB681B6842F040021A60FB68DB68B3F52C
:10367C00006F52D1FB685B68002B02D07B8B012B57
:10368C0045D1FB681B6B1A88FB681B68DA60FB680A
:10369C001B6B9A1CFB681A63FB68DB8E9BB2013BAD
:1036AC009AB2FB68DA8632E0FB681B689B6803F011
:1036BC000203022B12D1FB681B6B1A88FB681B6878
:1036CC00DA60FB681B6B9A1CFB681A63FB68DB8E69
:1036DC009BB2013B9AB2FB68DA8618E0FEF700F960
:1036EC000246FB69D31A3A689A4203D83B68B3F195
:1036FC00FF3F02D13B68002B09D1FB68012283F804
:10370C005120FB68002283F85020032382E0FB68E1
:10371C00DB8E9BB2002BC7D153E0FB685B68002BA0
:10372C0002D07B8B012B47D1FB681A6BFB681B68A3
:10373C000C3312781A70FB681B6B5A1CFB681A63EB
:10374C00FB68DB8E9BB2013B9AB2FB68DA8633E0F6
:10375C00FB681B689B6803F00203022B13D1FB6808
:10376C001A6BFB681B680C3312781A70FB681B6BA6
:10377C005A1CFB681A63FB68DB8E9BB2013B9AB246
:10378C00FB68DA8618E0FEF7ABF80246FB69D31A41
:10379C003A689A4203D83B68B3F1FF3F02D13B68C9
:1037AC00002B09D1FB68012283F85120FB68002211
:1037BC0083F8502003232DE0FB68DB8E9BB2002B9B
:1037CC00C6D1FA693968F86800F0B0F80346002BE6
:1037DC0002D0FB6820225A65FB689B68002B0AD13B
:1037EC0000237B61FB681B68DB687B61FB681B68E3
:1037FC009B687B617B69FB68012283F85120FB6825
:10380C00002283F85020FB685B6D002B01D0012354
:10381C0000E0002318462037BD4680BD80B588B037
:10382C0000AFF860B9603B601346FB71FEF758F8C7
:10383C000246BB6A9B1A3A681344FB61FEF750F8C8
:10384C00B861394B1B685B011B0DFA6902FB03F372
:10385C007B6154E03B68B3F1FF3F50D0FEF740F87A
:10386C000246BB69D31AFA699A4202D9FB69002B4A
:10387C003DD1FB681B685A68FB681B6822F0E002AC
:10388C005A60FB685B68B3F5827F11D1FB689B685B
:10389C00B3F5004F04D0FB689B68B3F5806F07D17C
:1038AC00FB681B681A68FB681B6822F040021A60F0
:1038BC00FB689B6AB3F5005F0FD1FB681B681A6845
:1038CC00FB681B6822F400521A60FB681B681A68BC
:1038DC00FB681B6842F400521A60FB68012283F8F3
:1038EC005120FB68002283F85020032317E07B69EA
:1038FC00002B01D10023FB617B69013B7B61FB68E1
:10390C001B689A68BB681340BA689A420CBF0123C3
:10391C000023DBB21A46FB799A429BD1002318464E
:10392C002037BD4680BD00BF2400002080B586B086
:10393C0002AFF860B9607A607B680093BB680122C3
:10394C000221F868FFF76AFF0346002B07D0FB68DB
:10395C005B6D43F02002FB685A65032313E07B6820
:10396C000093BB6800228021F868FFF757FF0346DD
:10397C00002B07D0FB685B6D43F02002FB685A6597
:10398C00032300E0002318461037BD4680BD80B5E8
:10399C0082B000AF78607B68002B01D1012342E03C
:1039AC007B6893F84130DBB2002B06D17B68002298
:1039BC0083F840207868FDF753FE7B68242283F857
:1039CC0041207B681B68DA687B681B6822F4005214
:1039DC00DA60786800F008FA7B681B681A697B6803
:1039EC001B6822F490421A617B681B685A697B68D9
:1039FC001B6822F02A025A617B681B68DA687B68B4
:103A0C001B6842F40052DA607B6800225A647B68BF
:103A1C00202283F841207B68202283F842207B6897
:103A2C0000225A63002318460837BD4680BD80B576
:103A3C008AB002AFF860B9603B601346FB8000238C
:103A4C007B61FB6893F84130DBB2202B75D1BB68EE
:103A5C00002B02D0FB88002B01D101236EE0FB6808
:103A6C0000225A64FB68212283F84120FDF738FFBD
:103A7C007861FB68FA889A84FB68FA88DA84FB68B8
:103A8C009B68B3F5805F08D1FB681B69002B04D1E0
:103A9C000023FB61BB68BB6103E0BB68FB610023D7
:103AAC00BB612EE03B6800937B6900228021F868A3
:103ABC0000F0DFF80346002B05D0FB68202283F8CA
:103ACC00412003233AE0FB69002B0BD1BB691B8817
:103ADC001A46FB681B68C2F308025A60BB690233C2
:103AEC00BB6107E0FB691A78FB681B685A60FB69CD
:103AFC000133FB61FB68DB8C9BB2013B9AB2FB6828
:103B0C00DA84FB68DB8C9BB2002BCBD13B68009337
:103B1C007B6900224021F86800F0ABF80346002BCB
:103B2C0005D0FB68202283F84120032306E0FB68C4
:103B3C00202283F84120002300E00223184620377E
:103B4C00BD4680BD80B58AB002AFF860B9603B60FD
:103B5C001346FB8000237B61FB6893F84230DBB299
:103B6C00202B40F08180BB68002B02D0FB88002BFF
:103B7C0001D1012379E0FB6800225A64FB68222200
:103B8C0083F84220FB6800221A63FDF7A9FE7861D6
:103B9C00FB68FA889A85FB68FA88DA85FB689B686B
:103BAC00B3F5805F08D1FB681B69002B04D100239F
:103BBC00FB61BB68BB6103E0BB68FB610023BB61BD
:103BCC0047E03B6800937B6900222021F86800F0F5
:103BDC0050F80346002B05D0FB68202283F84220C6
:103BEC00032342E0FB69002B0CD1FB681B685B686C
:103BFC009BB2C3F308039AB2BB691A80BB69023348
:103C0C00BB611FE0FB689B68B3F5805F07D0FB6866
:103C1C009B68002B0AD1FB681B69002B06D1FB6843
:103C2C001B685B68DAB2FB691A7008E0FB681B68FA
:103C3C005B68DBB203F07F03DAB2FB691A70FB69D5
:103C4C000133FB61FB68DB8D9BB2013B9AB2FB68D5
:103C5C00DA85FB68DB8D9BB2002BB2D1FB6820228E
:103C6C0083F84220002300E0022318462037BD468B
:103C7C0080BD80B586B000AFF860B9603B6013467C
:103C8C00FB713BE03B6AB3F1FF3F37D0FDF728FEF9
:103C9C0002463B68D31A3A6A9A4202D33B6A002B1B
:103CAC0001D103233AE0FB681B68DB6803F00403D3
:103CBC00002B23D0BB68802B20D0BB68402B1DD0A1
:103CCC00FB681B681B6803F00803082B16D1002344
:103CDC007B61FB681B681B687B61FB681B685B680E
:103CEC007B617B69F86800F01DF8FB6808225A6458
:103CFC00FB68002283F8402001230FE0FB681B685F
:103D0C001A68BB681340BA689A420CBF012300239F
:103D1C00DBB21A46FB799A42B4D000231846183706
:103D2C00BD4680BD80B495B000AF78607B681B68E1
:103D3C000C337B637B6B53E8003F3B633B6B23F49F
:103D4C009073FB647B681B680C33FA6C3A64FB63FE
:103D5C00F96B3A6C41E80023BB63BB6B002BE5D1DC
:103D6C007B681B6814333B623B6A53E8003FFB6182
:103D7C00FB6923F00103BB647B681B681433BA6CCA
:103D8C00FA62BB62B96AFA6A41E800237B627B6A19
:103D9C00002BE5D17B681B6B012B19D17B681B6851
:103DAC000C33FB60FB6853E8003FBB60BB6823F03F
:103DBC0010037B647B681B680C337A6CBA617B6183
:103DCC007969BA6941E800233B613B69002BE5D175
:103DDC007B68202283F842207B6800221A6300BF94
:103DEC005437BD4680BC704780B584B000AF786056
:103DFC007B681B681B6923F440517B68DA687B681D
:103E0C001B680A431A617B689A687B681B691A43B2
:103E1C007B685B691343BB607B681B68DB6823F4BE
:103E2C00B05323F00C037A681268B9680B43D36063
:103E3C007B681B685B6923F440717B689A697B68BB
:103E4C001B680A435A617B681B682C4A934203D156
:103E5C00FEF7D6FBF86002E0FEF7BEFBF860FA68EE
:103E6C0013469B0013449A001A447B685B689B00C2
:103E7C00B2FBF3F3224AA2FB03235B091901FA6894
:103E8C0013469B0013449A001A447B685B689B00A2
:103E9C00B2FBF3F21A4BA3FB02035B09642000FB99
:103EAC0003F3D31A1B013233154AA2FB03235B091C
:103EBC0003F0F0031944FA6813469B0013449A006C
:103ECC001A447B685B689B00B2FBF3F20C4BA3FBC0
:103EDC0002035B09642000FB03F3D31A1B0132338A
:103EEC00074AA2FB03235B0903F00F027B681B68E4
:103EFC000A449A6000BF1037BD4680BD00380140AF
:103F0C001F85EB510EB46FF0004100B59CB01DAB9A
:103F1C0002900690079104910848094953F8042B24
:103F2C000591006802A9019300F092F90022029B0E
:103F3C001A701CB05DF804EB03B070473000002021
:103F4C000802FFFF03460244934200D1704703F876
:103F5C00011BF9E7014B1868704700BF30000020C7
:103F6C0070B500260C4D0D4C641BA410A64209D153
:103F7C0000F078FC00260A4D0A4C641BA410A642E3
:103F8C0005D170BD55F8043B98470136EEE755F85E
:103F9C00043B98470136F2E7FC720008FC720008FB
:103FAC00FC720008007300087047704738B505466E
:103FBC00002940D051F8043C0C1F002BB8BFE4186A
:103FCC0000F0DEF81C4A136833B9636014602846AD
:103FDC00BDE8384000F0DAB8A34208D920682118AF
:103FEC008B4201BF19685B6809182160EDE71A461E
:103FFC005B680BB1A342FAD911685018A0420BD1DF
:10400C0020680144501883421160E0D118685B6845
:10401C00084410605360DAE702D90C232B60D6E712
:10402C00206821188B4201BF19685B680918216050
:10403C0063605460CBE738BDE802002070B50F4ECA
:10404C000C463168054611B900F0AAFB30602146D8
:10405C00284600F0A5FB431C03D14FF0FF3420464B
:10406C0070BDC41C24F00304A042F8D0211A2846C9
:10407C0000F096FB0130F2D1EFE700BFE402002024
:10408C002DE9F843CD1C25F0030508350C2D38BF60
:10409C000C25002D064601DBA94204D90C23336004
:1040AC000020BDE8F883DFF8D48000F069F8D8F878
:1040BC0000301C4644BB29463046FFF7BFFF431C6B
:1040CC00044658D1D8F800402746002F43D1002C85
:1040DC004BD023683946304604EB030900F060FBF3
:1040EC00814542D1216830466D1A2946FFF7A6FF5B
:1040FC0001303AD023682B442360D8F800305A683A
:10410C0062BBC8F800700FE02268521B20D40B2A47
:10411C0017D96119A342256018BF5960636808BF9D
:10412C00C8F8001062514B60304600F02FF804F1D3
:10413C000B00231D20F00700C21A1CBF1B1AA35032
:10414C00AFE76268A3420CBFC8F800205A60EBE7E7
:10415C0023466468AEE73C467F68B6E71A465B6860
:10416C00A342FBD100235360DEE70C2330463360BF
:10417C0000F00CF894E70560D6E700BFE8020020D9
:10418C000148FFF711BF00BFE00200200148FFF714
:10419C000CBF00BFE00200202DE9F0471F468E68DF
:1041AC008246BE420C4690460B682DD8B1F90C20C5
:1041BC0012F4906F26D06569096905EB4505A3EBF0
:1041CC00010905EBD5757B1C4B446D109D4238BF26
:1041DC001D46530527D52946FFF752FF064660B307
:1041EC004A46216900F0FAFAA38923F4906343F05C
:1041FC008003A38126614E4426603E466561A5EB93
:10420C000905A560BE4200D93E46324641462068AB
:10421C0000F0ACFA0020A3689B1BA3602368334416
:10422C002360BDE8F0872A4600F0E6FA064600282F
:10423C00E0D150462169FFF7B9FE0C23CAF80030D3
:10424C00A3894FF0FF3043F04003A381E9E700005E
:10425C002DE9F04F98468B8907461B060D461446F0
:10426C009DB010D50B6973B94021FFF709FF286089
:10427C00286130B90C233B604FF0FF301DB0BDE816
:10428C00F08F40236B610023099320238DF8293094
:10429C0030234FF00109CDF80C80DFF898818DF8B0
:1042AC002A3023469A4613F8012B0AB1252AF9D154
:1042BC00BAEB040B0BD05B46224629463846FFF777
:1042CC006BFF013000F0A780099A5A4409929AF8C2
:1042DC000030002B00F09F8000234FF0FF32CDE91F
:1042EC0005230AF1010A049307938DF853301A93AE
:1042FC005446052214F8011B4E4800F061FA049A4A
:10430C00D8B9D00644BF20238DF85330110744BFD1
:10431C002B238DF853309AF800302A2B15D05446A5
:10432C0000204FF00A0C079A214611F8013B303B54
:10433C00092B4BD9B0B1079214E0A0EB080309FA92
:10434C0003F31343A2460493D2E7039B191D1B6886
:10435C000391002BBBBF5B4242F002020793079311
:10436C00B8BF049223782E2B0AD163782A2B32D132
:10437C00039B02341A1D1B68039243EAE3730593F3
:10438C00DFF8B4A003225046217800F019FA38B1B6
:10439C004022049BA0EB0A00824013430134049397
:1043AC0014F8011B062225488DF8281000F008FA95
:1043BC00002836D0224B1BBB039B073323F007038B
:1043CC0008330393099B334409936AE70C46012095
:1043DC000CFB0232A8E700234FF00A0C19460134FB
:1043EC000593204610F8012B303A092A03D9002BEB
:1043FC00C6D00591C4E7044601230CFB0121F0E76C
:10440C0003AB00932A4638460E4B04A9AFF3008049
:10441C00421C0646D6D1AB895B063FF52DAF0998F9
:10442C002CE703AB00932A463846064B04A900F050
:10443C007DF8EDE7BE720008C4720008C87200086F
:10444C0000000000A54100082DE9F04716469846EB
:10445C008A680B6907469342B8BF1346336091F8DC
:10446C0043200C46DDF820900AB1013333602368F9
:10447C00990642BF336802333360256815F0060590
:10448C0006D104F1190AE36832689B1AAB422BDCA3
:10449C0094F843302268003B18BF0123920630D4B5
:1044AC004146384604F14302C847013023D0236803
:1044BC00226903F00603042B14BF002533684FF068
:1044CC00000608BFE56804F11A0408BFED1A54F899
:1044DC00123C08BF25EAE5759342C4BF9B1AED1840
:1044EC00B5421AD1002008E0012352464146384615
:1044FC00C847013003D14FF0FF30BDE8F0870135DC
:10450C00C1E73020E11881F843005A1C94F845109B
:10451C002244023382F84310C2E70123224641466B
:10452C003846C8470130E6D00136D9E72DE9FF47B8
:10453C000F7E9146782F80460C469A460C9E01F1D0
:10454C00430207D8622F0AD8002F00F0D380582FCF
:10455C0000F0BA8004F1420684F842703AE0A7F108
:10456C006303152BF6D801A151F823F0D1450008AF
:10457C00E5450008614500086145000861450008F3
:10458C0061450008E54500086145000861450008E3
:10459C006145000861450008E74600080F46000821
:1045AC00A14600086145000861450008094700085C
:1045BC00614500080F460008614500086145000888
:1045CC00A946000833681A1D1B68326004F14206C4
:1045DC0084F8423001239EE033682068191D316055
:1045EC00060601D51D6803E04506FBD5B3F900505E
:1045FC00002D03DA2D236D4284F843300A235948E9
:10460C0011E021683368080653F8045B02D44906AC
:10461C0048BFADB26F2F336014BF0A230823514833
:10462C00002184F843106668002EA8BF2168A6609C
:10463C00A4BF21F0040121600DB9002E4BD0164609
:10464C00B5FBF3F103FB1157C75D06F8017D2F464F
:10465C00BB420D46F4D9082B0BD12368DF0708D5D4
:10466C00236961689942DEBF302306F8013C06F1EC
:10467C00FF36921B22614B4621464046CDF800A0E6
:10468C0003AAFFF7E1FE01304AD14FF0FF3004B02E
:10469C00BDE8F087236843F0200323607827324875
:1046AC0084F84570236831681F0651F8045B02D406
:1046BC005F0648BFADB23160D90744BF43F0200359
:1046CC0023601DB11023ABE72648E9E7236823F0EC
:1046DC0020032360F6E71646BDE733682568181DEE
:1046EC00616930602E061B6801D5196002E068060E
:1046FC00FBD51980002316462361BCE733680021E3
:10470C001A1D32601E686268304600F059F808B114
:10471C00801B606063682361002384F84330AAE740
:10472C003246494640462369D0470130ADD0236814
:10473C009B0713D4E068039B9842B8BF1846A6E7C2
:10474C000123324649464046D04701309DD00135C1
:10475C00E36803995B1AAB42F2DCEBE7002504F14A
:10476C001906F5E7CF720008E0720008884210B510
:10477C0001EB020402D98442234607D8431EA1420E
:10478C0008D011F8012B03F8012FF8E70146024479
:10479C008A4200D110BD13F8014D02F8014DF7E724
:1047AC0038B50023054D044608462B60FCF7DEFFA8
:1047BC00431C02D12B6803B1236038BDDC020020FE
:1047CC00034610B5C9B202449342184601D10020E9
:1047DC0003E0047801338C42F6D110BD0A449142B7
:1047EC0000F1FF3300D1704710B511F8014B914225
:1047FC0003F8014FF9D110BD2DE9F0418046154663
:10480C000C4621B91146BDE8F041FFF739BC2AB975
:10481C00FFF7CCFB00242046BDE8F08100F01AF82D
:10482C008542064602D8B5EB500FF4D829464046CF
:10483C00FFF726FC07460028ECD0B5422A46214655
:10484C0028BF3246FFF7CAFF21464046FFF7AEFBB2
:10485C003C46E0E751F8043C181F002BBCBF0B583A
:10486C00C0187047F8B500BFF8BC08BC9E4670472E
:0C487C00F8B500BFF8BC08BC9E467047B1
:10488800253032642F253032642F25303264000001
:10489800253032643A253032643A253032640000DB
:1048A8001F1C1F1E1F1E1F1F1E1F1E1F456E746507
:1048B800722054696D65202848483A4D4D3A535343
:1048C800293A200048483A4D4D3A53530000000019
:1048D800496E76616C69642074696D6520666F72D3
:1048E8006D61742E20506C65617365207573652049
:1048F80048483A4D4D3A53530A0D0000456E7465C9
:10490800722044617465202844442F4D4D2F595915
:10491800293A200044442F4D4D2F595900000000DA
:10492800496E76616C6964206461746520666F7293
:104938006D61742E20506C656173652075736520F8
:1049480044442F4D4D2F59590A0D00004572726F7E
:104958007220696E2074696D65206F7220696E20FF
:10496800646174652E20506C65617365207472797A
:1049780020616761696E2E0A0D00000052544320C1
:10498800736574207375636365737366756C6C798E
:104998000A0D0000446174653A20253032642F25E1
:1049A8003032642F25303264200A0D0074696D6539
:1049B8003A20253032643A253032643A2530326460
:1049C800200A0D00434C4F434B2050524F4A454359
:1049D80054000000746865656D626564646564749C
:1049E80068696E67732E636F6D0000000F01809613
:1049F8001180FFB103012C2DB203012C2DB3060148
:104A08002C2D012C2DB40107C003A20284C101C5BD
:104A1800C2020A00C3028A2AC4028AEEC5010E2015
:104A2800003601C03A010500022A040000007F2B6D
:104A3800040000007F00000004E010021C07123789
:104A480032292D29252B3900010310E110031D07F8
:104A5800062E2C292D2E2E373F0000021013800A17
:104A68002980640000000000000000000000000031
:104A780000000000000000000010001000100010EE
:104A8800001000100000001000000000002800289E
:104A980000280000000000000000000000000000E6
:104AA80000240024007C00240048007C00480048C2
:104AB8000000000000380054005000380014005472
:104AC8000054003800100000002000540058003046
:104AD80000280054001400080000000000100028FE
:104AE800002800100034004800480034000000008E
:104AF800001000100010000000000000000000007E
:104B08000000000000080010002000200020002005
:104B180000200020001000080020001000080008F5
:104B280000080008000800080010002000100038E5
:104B38000010002800000000000000000000000035
:104B48000000000000100010007C001000100000A1
:104B5800000000000000000000000000000000004D
:104B6800000000100010001000000000000000000D
:104B780000000038000000000000000000000000F5
:104B8800000000000000000000000010000000000D
:104B9800000800080010001000100010002000207D
:104BA8000000000000380044004400540044004461
:104BB80000440038000000000010003000500010D1
:104BC8000010001000100010000000000038004421
:104BD80000440004000800100020007C00000000D1
:104BE80000380044000400180004000400440038A1
:104BF8000000000000080018002800280048007C79
:104C08000008000800000000007C00400040007818
:104C1800000400040044003800000000003800448C
:104C280000400078004400440044003800000000C0
:104C3800007C000400080010001000200020002064
:104C480000000000003800440044003800440044DC
:104C580000440038000000000038004400440044CC
:104C6800003C000400440038000000000000000080
:104C7800001000000000000000000010000000000C
:104C880000000000000000100000000000000010FC
:104C98000010001000000000000C00300040003040
:104CA800000C000000000000000000000000007C74
:104CB8000000007C00000000000000000000000070
:104CC80000600018000400180060000000000000E8
:104CD8000038004400040008001000100000001014
:104CE8000000000000380044004C0054005C004004
:104CF80000400038000000000010002800280028AC
:104D08000028007C004400440000000000780044B3
:104D1800004400780044004400440078000000008B
:104D28000038004400400040004000400044003883
:104D380000000000007000480044004400440044A3
:104D48000048007000000000007C00400040007C2B
:104D5800004000400040007C00000000007C004053
:104D68000040007800400040004000400000000083
:104D78000038004400400040005C00440044003813
:104D880000000000004400440044007C004400444B
:104D9800004400440000000000380010001000101B
:104DA800001000100010003800000000000400048B
:104DB800000400040004000400440038000000005F
:104DC800004400480050006000500048004800447B
:104DD800000000000040004000400040004000404B
:104DE8000040007C000000000044006C006C00548F
:104DF80000440044004400440000000000440064F3
:104E0800006400540054004C004C004400000000B2
:104E18000038004400440044004400440044003882
:104E2800000000000078004400440044007800407E
:104E380000400040000000000038004400440044E6
:104E48000044004400540038000400000078004486
:104E58000044004400780048004800440000000076
:104E680000380044004000300008000400440038C6
:104E780000000000007C001000100010001000105E
:104E880000100010000000000044004400440044EA
:104E9800004400440044003800000000004400447E
:104EA800004400280028002800100010000000001E
:104EB80000440044005400540054006C00280028AA
:104EC80000000000004400280028001000100028FE
:104ED8000028004400000000004400440028002886
:104EE800001000100010001000000000007C0004FA
:104EF80000080010001000200040007C00000000A6
:104F08000018001000100010001000100010001011
:104F180000100018002000200010001000100010E1
:104F28000008000800000000003000100010001009
:104F380000100010001000100010003000100028B1
:104F480000280044000000000000000000000000ED
:104F58000000000000000000000000000000000049
:104F6800000000FE0020001000000000000000000B
:104F780000000000000000000000000000380044AD
:104F8800003C0044004C0034000000000040004099
:104F98000058006400440044006400580000000009
:104FA8000000000000380044004000400044003881
:104FB80000000000000400040034004C00440044D9
:104FC800004C0034000000000000000000380044DD
:104FD800007C00400044003800000000000C001075
:104FE800007C0010001000100010001000000000ED
:104FF800000000000034004C00440044004C003421
:105008000004007800400040005800640044004458
:105018000044004400000000001000000070001070
:105028000010001000100010000000000010000028
:10503800007000100010001000100010001000E0B8
:105048000040004000480050006000500048004404
:105058000000000000700010001000100010001088
:10506800001000100000000000000000007800544C
:1050780000540054005400540000000000000000D8
:10508800005800640044004400440044000000004C
:105098000000000000380044004400440044003888
:1050A80000000000000000000058006400440044B4
:1050B8000064005800400040000000000034004C2C
:1050C80000440044004C00340004000400000000C8
:1050D800005800640040004000400040000000000C
:1050E8000000000000380044003000080044003888
:1050F8000000000000200020007800200020002090
:1051080000200018000000000000000000440044D7
:1051180000440044004C003400000000000000007F
:105128000044004400280028002800100000000067
:1051380000000000005400540054006C00280028AF
:1051480000000000000000000044002800100010CB
:105158000028004400000000000000000044004453
:105168000028002800100010001000600000000057
:10517800007C0008001000200040007C00000000B7
:10518800001800100010001000200020001000106F
:10519800001000180010001000100010001000107F
:1051A8000010001000100010003000100010001057
:1051B8000008000800100010001000300000000077
:1051C80000000074004C0000000000000000000017
:1051D80000000000000000000000000000000000C7
:1051E80000000000000000000000000000000000B7
:1051F800000000000000000C000C000C000C000C6B
:10520800000C000C000C000C000C000C0000000C42
:10521800000C0000000000000000001B001B001B29
:10522800001B001B00000000000000000000000040
:1052380000000000000000000000000000008019CD
:10524800801980198019C07FC07F80190033C07F02
:10525800C07F00330033003300330000000000003B
:105268000000001E003F807580650074003C001E31
:1052780000078005806580658075003F001E00047A
:10528800000400000000007000D840D8C0D880D9C1
:1052980000730006000C801BC036C066C046C006FE
:1052A80080030000000000000000001E003F0033E3
:1052B80000330033001E000CC03CC0668063806170
:1052C8008063C03E801C0000000000000000000C4D
:1052D800000C000C000C000C000000000000000096
:1052E80000000000000000000000000000000000B6
:1052F800800000010003000600060004000C000CFA
:10530800000C000C000C000C000400060006000352
:1053180000018000002000100018000C000C0004A0
:105328000006000600060006000600060004000C41
:10533800000C0018001000200000000C002D003F99
:10534800001E003300000000000000000000000004
:105358000000000000000000000000000000000045
:105368000000000C000C000C000CC0FFC0FF000C7B
:10537800000C000C000C0000000000000000000001
:105388000000000000000000000000000000000015
:1053980000000000000000000000000C000C0004E9
:1053A80000040008000000000000000000000000E9
:1053B800000000000000001E001E000000000000A9
:1053C80000000000000000000000000000000000D5
:1053D80000000000000000000000000000000000C5
:1053E8000000000C000C000000000000000000039A
:1053F800000300030006000600060006000C000C6F
:10540800000C000C00180018001800000000000034
:105418000000001E003F0033806180618061806D64
:10542800806D8061806180610033003F001E000054
:105438000000000000000006000E001E00360026D6
:105448000006000600060006000600060006000624
:1054580000060000000000000000001E003F8073EE
:1054680080618061800100030006000C0018003094
:105478000060807F807F0000000000000000001CAA
:10548800003E006300630003000E000E000380016D
:10549800800180618073003F001E00000000000052
:1054A80000000006000E000E001E001E001600364A
:1054B80000360066807F807F000600060006000038
:1054C800000000000000007F007F006000600060B6
:1054D800006E007F80638001800180618073003FDF
:1054E800001E0000000000000000001E003F803386
:1054F80080610060006E007F8073806180618061E0
:105508008033003F001E0000000000000000807F84
:10551800807F80010003000300060006000C000CD9
:10552800000C000800180018001800000000000017
:105538000000001E003F8063806180610021001E22
:10554800003F8061806180618061003F001E000033
:10555800000000000000001E003F007380618061B1
:1055680080618073803F801D800180610073003FEF
:10557800001E000000000000000000000000000005
:105588000000000C000C00000000000000000000FB
:105598000000000C000C00000000000000000000EB
:1055A8000000000000000000000C000C00000000DB
:1055B800000000000000000C000C000400040008BB
:1055C800000000000000000080008003000E00388A
:1055D80000600038000E800380000000000000001A
:1055E8000000000000000000000000000000807FB4
:1055F800807F00000000807F807F000000000000A6
:105608000000000000000000000000000000000092
:1056180000400070001C000780010007001C00709B
:105628000040000000000000000000000000001F13
:10563800803FC071C060C000C00180030007000E39
:10564800000C000C0000000C000C00000000000022
:105658000000001E003F803180718063806F806D84
:10566800806D806F806700600032003E001C000083
:10567800000000000000000E000E001B001B001BB5
:10568800001B80318031803F803F8031C060C06026
:10569800C0600000000000000000007C007E006385
:1056A800006300630063007E007E006380618061A8
:1056B8008063007F007E0000000000000000001EE4
:1056C800003F803180610060006000600060006021
:1056D800006080618031003F001E00000000000073
:1056E8000000007C007F00638063806180618061CE
:1056F80080618061806100630063007E007C00003F
:10570800000000000000807F807F00600060006073
:105718000060007F007F0060006000600060807FA4
:10572800807F0000000000000000807F807F006014
:10573800006000600060007F007F00600060006023
:105748000060006000600000000000000000001E13
:10575800003F80318061006000600060806380638A
:10576800806180618031803F001E000000000000E1
:105778000000806180618061806180618061807FDC
:10578800807F8061806180618061806180610000CC
:10579800000000000000003F003F000C000C000C5F
:1057A800000C000C000C000C000C000C000C003F5E
:1057B800003F00000000000000008001800180011F
:1057C8008001800180018001800180018061806109
:1057D8008073003F001E0000000000000000C06051
:1057E8008061006300660066006C0078007C0066DB
:1057F8000066006380618061C060000000000000F6
:1058080000000060006000600060006000600060F0
:1058180000600060006000600060807F807F0000A2
:10582800000000000000C071C071C07BC07AC06A6F
:10583800C06AC06EC064C060C060C060C060C06044
:10584800C060000000000000000080718071807955
:1058580080798079806D806D806D806580678067D4
:105868008067806380630000000000000000001E65
:10587800003F003380618061806180618061806168
:10588800806180610033003F001E000000000000BE
:105898000000007E007F806380618061806180639A
:1058A800007F007E00600060006000600060000013
:1058B800000000000000001E003F0033806180618E
:1058C8008061806180618061806580670033803F8E
:1058D800401E0000000000000000007E007F806382
:1058E800806180618063007F007E006600630063E2
:1058F80080618061C0600000000000000000000EB0
:10590800001F8031803100300038001E00078003FE
:10591800806180618031003F001E000000000000AF
:105928000000C0FFC0FF000C000C000C000C000CB5
:10593800000C000C000C000C000C000C000C00000B
:1059480000000000000080618061806180618061EA
:105958008061806180618061806180618073003FC7
:10596800001E0000000000000000C060C060C060B1
:10597800803180318031001B001B001B001B000E92
:10598800000E000E00040000000000000000C0C06F
:10599800C0C0C0C0C0C0C0C0C0CC804C804C805EFD
:1059A8008052805280738061806100000000000096
:1059B8000000C0C0806080610033003B001E000C06
:1059C800000C001E001F003B80718061C0C00000F9
:1059D800000000000000C0C0806180610033003317
:1059E800001E001E000C000C000C000C000C000C2B
:1059F800000C0000000000000000803F803F800194
:105A0800000300030006000C000C0018001800300A
:105A18000060807F807F000000000000000F000F02
:105A2800000C000C000C000C000C000C000C000C0E
:105A3800000C000C000C000C000C000C000F000FF8
:105A48000000001800180018000C000C000C000CD6
:105A5800000600060006000600030003000300001D
:105A680000000000001E001E0006000600060006DA
:105A780000060006000600060006000600060006EE
:105A880000060006001E001E0000000C000C001E90
:105A980000120033003380618061000000000000C4
:105AA80000000000000000000000000000000000EE
:105AB80000000000000000000000000000000000DE
:105AC800000000000000000000000000E0FF0000EF
