:020000040800F2
:10000000002800204D1A0008F5140008FB14000811
:1000100001150008071500080D1500080000000074
:1000200000000000000000000000000013150008A0
:100030001F150008000000002B15000837150008E8
:10004000951A0008951A0008951A0008951A0008D4
:10005000951A0008951A0008951A0008951A0008C4
:10006000951A0008951A0008951A0008951A0008B4
:10007000951A0008951A0008951A0008951A0008A4
:10008000951A0008951A0008951A0008951A000894
:10009000951A0008951A0008951A0008951A000884
:1000A000951A0008951A0008951A0008951A000874
:1000B000951A0008951A000800000000951A00081B
:1000C000951A00080000000000000000951A0008C2
:1000D00000000000951A0008951A000800000000B2
:1000E000951A0008951A0008951A000800000000EB
:1000F0000000000000000000000000000000000000
:0C01000000000000000000005FF808F1A3
:10010C0010B5054C237833B9044B13B10448AFF345
:10011C0000800123237010BD64000020000000004B
:10012C00A836000808B5034B1BB103490348AFF3CD
:10013C00008008BD0000000068000020A836000800
:10014C0080B586B002AF01F0A1FC00F0A1F900F07F
:10015C0015FA00F0DDF900F0E9FB0021002000F0B9
:10016C00FDFC0122B949BA4800F08EFD0A2100209D
:10017C0000F0F4FC0122B549B64800F085FD1E21C3
:10018C00002000F0EBFC0122B049B34800F07CFDEC
:10019C003221002000F0E2FC0122AC49AF4800F013
:1001AC0073FD00F03DFC4FF4FA6001F0D1FC072127
:1001BC00002000F096FA4FF4FA6001F0C9FC072118
:1001CC00002000F0B4FA4FF4FA6001F0C1FC00F02A
:1001DC002CFB0F21002000F084FA4FF4FA6001F0A0
:1001EC00B7FC0F21002000F0A2FA4FF4FA6001F0E6
:1001FC00AFFC0F21002000F0C0FA4FF4FA6001F0C0
:10020C00A7FC0F21002000F0E4FA4FF4FA6001F093
:10021C009FFC00F00AFB012000F00EFB4FF4FA608B
:10022C0001F096FC002000F007FB4FF4FA6001F09F
:10023C008FFC01F0E0F80021002000F08FFC01227F
:10024C008249874800F020FD00F0EAFB0023FB60A8
:10025C0017E03B46FA688349184602F06DFD1E21F3
:10026C000A2000F07BFC3B4601227849184600F03E
:10027C000BFD00F0D5FB642001F06AFCFB68013338
:10028C00FB60FB68632BE4DD012001F091F94FF476
:10029C00FA7001F05DFC01F0AEF8012001F09FFA5C
:1002AC004FF4FA7001F054FC01F0A5F8012001F0B4
:1002BC00C9FA4FF4FA7001F04BFC01F09CF80121E3
:1002CC000A2001F0F7FA4FF4FA7001F041FC01F04A
:1002DC0092F801210A2001F028FB4FF4FA7001F08A
:1002EC0037FC01F088F8012001F05CFB642001F080
:1002FC002FFC01F080F801F07EF8012301934023DC
:10030C0000938023584A0021002000F0A7FA00F047
:10031C0087FB012001F01CFC01F06DF80123019317
:10032C00402300938023514A0021002000F096FACC
:10033C0000F076FB012001F00BFC01F05CF80123CE
:10034C000193402300938023494A0021002000F0B0
:10035C0085FA00F065FB012001F0FAFB01F04BF887
:10036C0001230193402300938023424A0021002063
:10037C0000F074FA00F054FB012001F0E9FB01F0ED
:10038C003AF8012301934023009380233A4A002139
:10039C00002000F063FA00F043FB012001F0D8FBD1
:1003AC0001F029F801230193402300938023334A61
:1003BC000021002000F052FA00F032FB012001F085
:1003CC00C7FB01F018F8012301934023009380230D
:1003DC002B4A0021002000F041FA00F021FB012003
:1003EC0001F0B6FB01F007F80123019340230093C1
:1003FC008023244A0021002000F030FA00F010FB8A
:10040C00012001F0A5FB00F0F6FF0123019340232E
:10041C00009380231C4A0021002000F01FFA00F0FA
:10042C00FFFA012001F094FB00F0E5FF012301939A
:10043C00402300938023154A0021002000F00EFA7F
:10044C0000F0EEFA012001F083FB54E700000020DD
:10045C00C0360008D0360008D8360008E836000848
:10046C00FC36000808370008783E0008784200087F
:10047C0078460008784A0008784E00087852000840
:10048C0078560008785A0008785E000878620008F0
:10049C0080B590B000AF07F1180328220021184650
:1004AC0002F06AFC3B1D00221A605A609A60DA6006
:1004BC001A610223BB610123BB621023FB6202237E
:1004CC007B630023BB634FF4C013FB6307F118037A
:1004DC00184601F0D9FD0346002B01D000F080F83E
:1004EC000F237B600223BB600023FB6000233B6176
:1004FC0000237B613B1D0121184602F047F803469F
:10050C00002B01D000F06CF800BF4037BD4680BD19
:10051C0080B500AF174B184A1A60164B4FF4827215
:10052C005A60144B00229A60124B0022DA60114B75
:10053C0000221A610F4B00225A610E4B4FF40072CD
:10054C009A610C4B0022DA610A4B00221A62094BA9
:10055C0000225A62074B00229A62064B0A22DA6288
:10056C00044802F06FF90346002B01D000F038F874
:10057C0000BF80BD800000200030014080B586B0F7
:10058C0000AF07F1080300221A605A609A60DA6023
:10059C00114B9B69104A43F0040393610E4B9B690A
:1005AC0003F004037B607B68002218210B4801F0E8
:1005BC0053FD1823BB600123FB6000233B61022326
:1005CC007B6107F108031946044801F0C9FB00BF21
:1005DC001837BD4680BD00BF001002400008014026
:1005EC0080B400AF72B600BFFEE7000080B500AF6C
:1005FC0000221021024801F02FFD00BF80BD00BF7A
:10060C000008014080B500AF01221021024801F022
:10061C0023FD00BF80BD00BF0008014080B500AFC6
:10062C0001220821024801F017FD00BF80BD00BF68
:10063C000008014080B500AF00220821024801F0FB
:10064C000BFD00BF80BD00BF0008014080B582B02B
:10065C0000AF7860396000BF0C4802F0BAFA03466C
:10066C00012BF9D13B689AB24FF0FF3379680748F8
:10067C0002F06CF900BF054802F0ABFA0346012BFF
:10068C00F9D100BF00BF0837BD4680BD80000020F7
:10069C0080B582B000AF0346FB71FFF7CBFFFFF7CD
:1006AC00A5FFFB1D01211846FFF7D0FFFFF7AAFF9E
:1006BC0000BF0837BD4680BD80B582B000AF786002
:1006CC000B467B80FFF7AAFFFFF790FF7B8819464C
:1006DC007868FFF7BBFFFFF795FF00BF0837BD46F3
:1006EC0080BD80B582B000AF03460A46FB7113464D
:1006FC00BB712620FFF7CCFF0020FFF7C9FFFB7969
:10070C001846FFF7C5FF0020FFF7C2FFBB7918465C
:10071C00FFF7BEFF0020FFF7BBFFFF20FFF7B8FF7E
:10072C002F20FFF7B5FF00BF0837BD4680BD80B551
:10073C0082B000AF03460A46FB711346BB712720FB
:10074C00FFF7A6FF0020FFF7A3FFFB791846FFF782
:10075C009FFF0020FFF79CFFBB791846FFF798FF1F
:10076C000020FFF795FFFF20FFF792FF2F20FFF7E8
:10077C008FFF00BF0837BD4680BD80B582B000AF8B
:10078C0003460A46FB711346BB71A320FFF780FF9B
:10079C000020FFF77DFF4020FFF77AFF2920FFF7AD
:1007AC0077FF0020FFF774FFFB791846FFF770FF07
:1007BC000020FFF76DFFBB791846FFF769FF01209A
:1007CC00FFF766FF2F20FFF763FF00BF0837BD461A
:1007DC0080BD80B582B000AF03460A46FB7113465C
:1007EC00BB71A320FFF754FF0020FFF751FF4020FF
:1007FC00FFF74EFF2A20FFF74BFF0020FFF748FFC3
:10080C00FB791846FFF744FF0020FFF741FFBB7947
:10081C001846FFF73DFF0120FFF73AFF2F20FFF7A7
:10082C0037FF00BF0837BD4680BD80B500AF2E2016
:10083C00FFF72EFF00BF80BD80B582B000AF78609F
:10084C007B68002B03D0A720FFF722FF02E0A62035
:10085C00FFF71EFF00BF0837BD4680BD80B586B0D0
:10086C0000AFBA601A460346FB810B46BB811346A8
:10087C00FB80B7F906300733002B00DA0733DB10A7
:10088C003B820023FB750023BB8244E000237B8268
:10089C002FE07B8A03F00703002B03D0FB7D5B006A
:1008AC00FB7512E0B7F91430B7F9102003FB02F214
:1008BC00B7F91230002B00DA0733DB101BB21344EC
:1008CC001A46BB6813441B78FB7597F91730002B3D
:1008DC0009DAFA897B8A13449BB2B989BA8CD2B2F1
:1008EC00184600F0DDF8B7F912309BB201339BB219
:1008FC007B82B7F91220B7F906309A42C9DBB7F9F7
:10090C0014309BB201339BB2BB82B7F90C309BB253
:10091C0001339BB2BB81B7F91420B7F920309A424E
:10092C00B4DB00BF00BF1837BD4680BD80B582B0B8
:10093C0000AF40F6C4137B6002E07B68013B7B6038
:10094C007B68002BF9D1AE20FFF7A2FE2020FFF729
:10095C009FFE1020FFF79CFEB020FFF799FEC820E9
:10096C00FFF796FE0020FFF793FE1020FFF790FE96
:10097C004020FFF78DFE8120FFF78AFEFF20FFF756
:10098C0087FEA120FFF784FEA620FFF781FEA8209A
:10099C00FFF77EFE3F20FFF77BFEA420FFF778FEDB
:1009AC00D320FFF775FE0020FFF772FED520FFF76E
:1009BC006FFEF020FFF76CFED920FFF769FE2220B6
:1009CC00FFF766FEDA20FFF763FE1220FFF760FEEA
:1009DC00DB20FFF75DFE2020FFF75AFE8D20FFF78E
:1009EC0057FE1420FFF754FEAF20FFF751FE2E20C8
:1009FC00FFF74EFE002000F03BF800F011F8074B1B
:100A0C0000221A80054B00225A80044B01225A7195
:100A1C00012318460837BD4680BD00BFD80400200E
:100A2C0080B582B000AF0023FB7116E0FB79503B20
:100A3C00DBB21846FFF72CFE0020FFF729FE102032
:100A4C00FFF726FEFB79DB01084A13448021184688
:100A5C00FFF732FEFB790133FB71FB79072BE5D9EC
:100A6C0000BF00BF0837BD4680BD00BFD8000020C6
:100A7C0080B582B000AF0346FB71FB79002B01D12E
:100A8C00002300E0FF234FF480621946034802F074
:100A9C0073F900BF0837BD4680BD00BFD8000020E9
:100AAC0080B483B000AF0346FB800B46BB8013467B
:100ABC00FB70FB887F2B48D8BB883F2B45D8254B38
:100ACC001B79002B06D0FB78002B0CBF01230023D5
:100ADC00DBB2FB70FB78012B1AD1FA88BB88DB08E0
:100AEC0098B20346DB0113441B4AD35C5AB2BB8851
:100AFC0003F00703012101FA03F35BB2134359B26C
:100B0C00FA880346DB011344C9B2134AD1541DE0E1
:100B1C00FA88BB88DB0898B20346DB0113440E4A03
:100B2C00D35C5AB2BB8803F00703012101FA03F32B
:100B3C005BB2DB435BB2134059B2FA880346DB016C
:100B4C001344C9B2044AD15400E000BF0C37BD466F
:100B5C0080BC7047D8040020D800002080B483B03B
:100B6C0000AF03460A46FB801346BB80054AFB8850
:100B7C001380044ABB88538000BF0C37BD4680BC31
:100B8C00704700BFD804002080B586B000AF034684
:100B9C003960FB711346BB713A4B1B881A463B6894
:100BAC001B7813447F2B07DC364B5B881A463B685B
:100BBC005B7813443F2B01DD00235EE000237B6157
:100BCC004BE03B685A68FB79203B3968497801FB5C
:100BDC0003F319467B690B445B0013441B88FB60D1
:100BEC0000233B6130E0FA683B6902FA03F303F43B
:100BFC000043002B10D0234B1A883B699BB2134443
:100C0C0098B2204B5A887B699BB213449BB2BA7939
:100C1C001946FFF745FF14E01A4B1A883B699BB243
:100C2C00134498B2174B5A887B699BB2134499B200
:100C3C00BB79002B0CBF01230023DBB21A46FFF754
:100C4C002FFF3B6901333B613B681B781A463B69BC
:100C5C009342C8D37B6901337B613B685B781A464E
:100C6C007B699342ADD3074B1A883B681B789BB2C8
:100C7C0013449AB2034B1A80FB7918461837BD46B9
:100C8C0080BD00BFD804002080B584B000AFF860F0
:100C9C00B9601346FB7112E0FB681B78FA79B968EE
:100CAC001846FFF771FF03461A46FB681B789A42F9
:100CBC0002D0FB681B7808E0FB680133FB60FB6823
:100CCC001B78002BE8D1FB681B7818461037BD4603
:100CDC0080BD90B587B000AF0446084611461A4651
:100CEC002346FB800346BB800B467B8013463B8030
:100CFC00FB887F2B01D97F23FB807B887F2B01D93D
:100D0C007F237B80BB883F2B01D93F23BB803B8853
:100D1C003F2B01D93F233B80FA887B889A4205D22E
:100D2C007A88FB88D31A9BB21BB204E0FA887B88C2
:100D3C00D31A9BB21BB27B82BA883B889A4205D2EB
:100D4C003A88BB88D31A9BB21BB204E0BA883B88A2
:100D5C00D31A9BB21BB23B82FA887B889A4201D28F
:100D6C00012301E04FF0FF33FB81BA883B889A42A4
:100D7C0001D2012301E04FF0FF33BB81B7F9122000
:100D8C00B7F910309A4206DDB7F91230DA0F134476
:100D9C005B101BB206E0B7F91030DA0F13445B108E
:100DAC005B421BB2FB82B7F91230002B29D13A8877
:100DBC00BB889A4205D23B883B81BB883B803B89F0
:100DCC00BB807A88FB889A4205D27B883B81FB8862
:100DDC007B803B89FB80BB88BB820CE0B98A97F88F
:100DEC002820FB881846FFF75BFEB7F914309BB23E
:100DFC0001339BB2BB82B7F914203B889A42EDDDDC
:100E0C005FE0B7F91030002B29D13A88BB889A42A1
:100E1C0005D23B883B81BB883B803B89BB807A8871
:100E2C00FB889A4205D27B883B81FB887B803B897F
:100E3C00FB80FB88BB820CE0BB8A97F82820B98822
:100E4C001846FFF72DFEB7F914309BB201339BB255
:100E5C00BB82B7F914207B889A42EDDD31E097F81C
:100E6C002820B988FB881846FFF71AFEFA887B8879
:100E7C009A4203D1BA883B889A4221D0FB8A7B8163
:100E8C00B7F90A20B7F912305B429A4208DDFA8AA8
:100E9C003B8AD31A9BB2FB82FA89FB881344FB80F2
:100EAC00B7F90A20B7F910309A42D8DAFA8A7B8A55
:100EBC0013449BB2FB82BA89BB881344BB80CEE738
:100ECC0000BF1C37BD4690BD90B585B002AF04463F
:100EDC00084611461A462346FB800346BB800B4648
:100EEC007B8013463B80FB887F2B53D8BB883F2BE2
:100EFC0050D8FA887B8813447F2B03DDFB88C3F121
:100F0C0080037B80BA883B8813443F2B03DDBB886E
:100F1C00C3F140033B80FA887B8813449AB2BC88A7
:100F2C00B988F8883B7E00932346FFF7D2FEBA8837
:100F3C003B88134499B2FA887B8813449CB2BA88D4
:100F4C003B8813449AB2F8883B7E009313462246A2
:100F5C00FFF7BFFEBA883B8813449CB2FA88B98865
:100F6C00F8883B7E00932346FFF7B3FEFA887B8814
:100F7C00134498B2FA887B8813449CB2BA883B8895
:100F8C0013449AB2B9883B7E009313462246FFF76E
:100F9C00A0FE00E000BF0C37BD4690BD90B587B0F9
:100FAC0002AF0446084611461A462346FB80034608
:100FBC00BB800B467B8013463B80FB887F2B36D84F
:100FCC00BB883F2B33D8FA887B8813447F2B03DDF7
:100FDC00FB88C3F180037B80BA883B8813443F2B8A
:100FEC0003DDBB88C3F140033B800023FB7318E097
:100FFC00FB7B9AB2BB88134499B2FA887B88134462
:10100C009CB2FB7B9AB2BB8813449AB2F88897F8CF
:10101C002030009313462246FFF75BFEFB7B013327
:10102C00FB73FB7B9BB23A889A42E1D200E000BF93
:10103C001437BD4690BD90B585B002AF0446084646
:10104C0011461A462346FB800346BB800B467B8029
:10105C0013463B803C887A88B988F88897F820300A
:10106C0000932346FFF735FEBC8B3A8B3988788882
:10107C0097F8203000932346FFF72BFEBC88FA88A4
:10108C00B98B388B97F8203000932346FFF721FE5D
:10109C0000BF0C37BD4690BD90B587B000AF04467D
:1010AC00084611461A462346FB800346BB800B4676
:1010BC007B8013467B707B88C3F101039BB2FB8260
:1010CC000123BB827B881A46D203D31A5B009BB2E6
:1010DC007B8200233B827B88FB81F888BA887B88E3
:1010EC0013449BB27A781946FFF7DAFCF888BA8871
:1010FC007B88D31A9BB27A781946FFF7D1FCFA8811
:10110C007B8813449BB2B9887A781846FFF7C8FCE1
:10111C00FA887B88D31A9BB2B9887A781846FFF77D
:10112C00BFFC81E0B7F91630002B0EDBB7F90E309F
:10113C009BB2013B9BB2FB817B8A02339BB27B82CD
:10114C00FA8A7B8A13449BB2FB82B7F910309BB2AC
:10115C0001339BB23B82BB8A02339BB2BB82FA8ABD
:10116C00BB8A13449BB2FB82FA883B8A134498B225
:10117C00BA88FB8913449BB27A781946FFF790FC26
:10118C00FA883B8AD31A98B2BA88FB8913449BB26B
:10119C007A781946FFF784FCFA883B8A134498B294
:1011AC00BA88FB89D31A9BB27A781946FFF778FC78
:1011BC00FA883B8AD31A98B2BA88FB89D31A9BB2A5
:1011CC007A781946FFF76CFCFA88FB89134498B2BD
:1011DC00BA883B8A13449BB27A781946FFF760FCB5
:1011EC00FA88FB89D31A98B2BA883B8A13449BB20B
:1011FC007A781946FFF754FCFA88FB89134498B2A5
:10120C00BA883B8AD31A9BB27A781946FFF748FC06
:10121C00FA88FB89D31A98B2BA883B8AD31A9BB244
:10122C007A781946FFF73CFCB7F91020B7F90E3065
:10123C009A42FFF677AF00BF00BF1C37BD4690BD8A
:10124C0090B589B002AF0446084611461A462346AB
:10125C00FB800346BB800B467B8013467B707B88F0
:10126C00C3F101039BB2FB820123BB827B881A462C
:10127C00D203D31A5B009BB27B8200233B827B8818
:10128C00FB81F888BA887B8813449BB27A7819461C
:10129C00FFF706FCF888BA887B88D31A9BB27A7859
:1012AC001946FFF7FDFBFA887B8813449BB2B9887B
:1012BC007A781846FFF7F4FBFA887B88D31A9BB22E
:1012CC00B9887A781846FFF7EBFBFA887B88D31A33
:1012DC0098B2B988FA887B8813449AB2BC887B7818
:1012EC0000932346FFF7F5FC79E0B7F91630002B95
:1012FC000EDBB7F90E309BB2013B9BB2FB817B8AB4
:10130C0002339BB27B82FA8A7B8A13449BB2FB82A8
:10131C00B7F910309BB201339BB23B82BB8A0233CC
:10132C009BB2BB82FA8ABB8A13449BB2FB82FA88BB
:10133C003B8AD31A98B2BA88FB89134499B2FA88BB
:10134C003B8A13449CB2BA88FB8913449AB27B78CB
:10135C00009313462246FFF7BCFCFA883B8A1344E1
:10136C0098B2BA88FB89D31A99B2FA883B8AD31AF5
:10137C009CB2BA88FB89D31A9AB27B780093134635
:10138C002246FFF7A6FCFA88FB89134498B2BA8868
:10139C003B8A134499B2FA88FB89D31A9CB2BA8857
:1013AC003B8A13449AB27B78009313462246FFF78C
:1013BC0090FCFA88FB89134498B2BA883B8AD31AFA
:1013CC0099B2FA88FB89D31A9CB2BA883B8AD31A91
:1013DC009AB27B78009313462246FFF77AFCB7F952
:1013EC001020B7F90E309A42FFF67FAF00BF00BF56
:1013FC001C37BD4690BD80B500AF0020FFF738FB11
:10140C00FFF70EFB00BF80BD80B485B000AF154B5D
:10141C009B69144A43F001039361124B9B6903F0DF
:10142C000103BB60BB680F4BDB690E4A43F0805372
:10143C00D3610C4BDB6903F080537B607B680A4BF8
:10144C005B68FB60FB6823F0E063FB60FB6843F0C8
:10145C008063FB60044AFB68536000BF1437BD46D1
:10146C0080BC7047001002400000014080B588B07D
:10147C0000AF786007F1100300221A605A609A607E
:10148C00DA607B681B68154A934223D1144B9B6925
:10149C00134A43F480539361114B9B6903F48053BB
:1014AC00FB60FB680E4B9B690D4A43F00403936190
:1014BC000B4B9B6903F00403BB60BB68A0233B612F
:1014CC0002237B610323FB6107F1100319460548D6
:1014DC0000F046FC00BF2037BD4680BD0030014007
:1014EC00001002400008014080B400AFFEE780B459
:1014FC0000AFFEE780B400AFFEE780B400AFFEE7BC
:10150C0080B400AFFEE780B400AF00BFBD4680BC26
:10151C00704780B400AF00BFBD4680BC704780B43C
:10152C0000AF00BFBD4680BC704780B500AF00F077
:10153C00F3FA00BF80BD000080B586B000AF7860C4
:10154C00144A154BD31A7B617B693B61134B1B68A7
:10155C00002B02D1114B124A1A60104B1A687B688F
:10156C0013443A699A4207D201F00EFC03460C224E
:10157C001A604FF0FF3309E0084B1B68FB60074B08
:10158C001A687B681344054A1360FB6818461837C1
:10159C00BD4680BD0028002000040000E0040020AF
:1015AC003006002080B400AF00BFBD4680BC704741
:1015BC0090B587B002AF0346FB71FFF71CFF002309
:1015CC007B737B7B3B733F23BB730023FB7314E068
:1015DC003B7B98B27B7B99B2FB7B9AB2BB7B9CB278
:1015EC00FB7900932346FFF774FB012000F0B0FA5F
:1015FC00FFF716FAFB7B0633FB7397F90F30002BC2
:10160C00E6DA7F23FB730023BB7314E03B7B98B2B9
:10161C007B7B99B2FB7B9AB2BB7B9CB2FB79009330
:10162C002346FFF756FB012000F092FAFFF7F8F97A
:10163C00BB7B0633BB73BB7B3F2BE7D90A2000F087
:10164C0087FAFFF7D8FE7F233B7300237B733F237E
:10165C00BB730023FB7314E03B7B98B27B7B99B28A
:10166C00FB7B9AB2BB7B9CB2FB7900932346FFF7C2
:10167C0030FBFFF7D5F9012000F06AFAFB7B06334B
:10168C00FB7397F90F30002BE6DA0023FB73002372
:10169C00BB7314E03B7B98B27B7B99B2FB7B9AB219
:1016AC00BB7B9CB2FB7900932346FFF712FBFFF741
:1016BC00B7F9012000F04CFABB7B0633BB73BB7B44
:1016CC003F2BE7D90A2000F043FAFFF794FE0023E2
:1016DC003B733F237B730023BB730023FB7314E02A
:1016EC003B7B98B27B7B99B2FB7B9AB2BB7B9CB267
:1016FC00FB7900932346FFF7ECFA012000F028FA5F
:10170C00FFF78EF9FB7B0633FB7397F90F30002B39
:10171C00E6DA7F23FB730023BB7314E03B7B98B2A8
:10172C007B7B99B2FB7B9AB2BB7B9CB2FB7900931F
:10173C002346FFF7CEFA012000F00AFAFFF770F902
:10174C00BB7B0633BB73BB7B3F2BE7D90A2000F076
:10175C00FFF9FFF750FE7F233B733F237B7300237E
:10176C00BB730023FB7314E03B7B98B27B7B99B279
:10177C00FB7B9AB2BB7B9CB2FB7900932346FFF7B1
:10178C00A8FA012000F0E4F9FFF74AF9FB7B0633D5
:10179C00FB7397F90F30002BE6DA0023FB73002361
:1017AC00BB7314E03B7B98B27B7B99B2FB7B9AB208
:1017BC00BB7B9CB2FB7900932346FFF78AFA01208E
:1017CC0000F0C6F9FFF72CF9BB7B0633BB73BB7B70
:1017DC003F2BE7D900BF00BF1437BD4690BD90B575
:1017EC0087B002AF0346FB71FFF705FE4023BB73C6
:1017FC000223FB731DE0FB7B5B087B737B7B9BB243
:10180C00C3F1400398B27B7B9BB2C3F1200399B226
:10181C00FB7B9AB2FB7B9CB2FB7900932346FFF7D0
:10182C0053FBFFF7FDF80A2000F092F9FB7B06331F
:10183C00FB73FA7BBB7B9A42DDD300BF00BF14372E
:10184C00BD4690BD90B587B002AF0346FB713F23F8
:10185C00BB731F237B73FFF7CEFD40233B733B7B96
:10186C00FB731FE0FB7B5B08FB72BB7B9AB2FB7AC2
:10187C009BB2D31A98B27B7B9AB2FB7A9BB2D31AE7
:10188C0099B2FB7B9AB2FB7B9CB2FB79009323460B
:10189C00FFF784FBFFF7C4F80A2000F059F9FB7B33
:1018AC00063BFB73FB7B002BDCD100BF00BF143766
:1018BC00BD4690BD80B584B000AF03460A46FB71AF
:1018CC001346BB8080237B7340233B73FB795B0007
:1018DC00FB72FFF790FDFB79FB731DE0FB79BB738B
:1018EC0012E0FB7B18B2BB7B19B2FB791AB2BB8836
:1018FC00DBB2FFF7A5FCFFF793F80A2000F028F9FC
:10190C00BA7BFB7A1344BB73BA7B3B7B9A42E8D31A
:10191C00FA7BFB7A1344FB73FA7B7B7B9A42DDD315
:10192C0000BF00BF1037BD4680BD80B584B000AF8E
:10193C0003460A46FB711346BB80FFF75CFDFB793F
:10194C005B007B73FB79803B3B73FB794033FB7211
:10195C000023FB731DE00023BB7312E0FB7B18B26A
:10196C00BB7B19B2FB791AB2BB88DBB2FFF794FBD5
:10197C00FFF756F80A2000F0EBF8BA7B7B7B134498
:10198C00BB73BA7BFB7A9A42E8D3FA7B7B7B13441A
:10199C00FB73FA7B3B7B9A42DDD300BF00BF103751
:1019AC00BD4680BDF0B589B004AF0346FB713F2343
:1019BC00BB731F237B73FFF71EFD7A7BBB7B9342AC
:1019CC0028BF13463B730023FB7330E0BB7B98B2FC
:1019DC007B7B9AB2FB7B9BB2D31A9CB2BB7B9AB239
:1019EC00FB7B9BB2D31A9DB27B7B9AB2FB7B9BB2E7
:1019FC0013449EB2BB7B9AB2FB7B9BB213449BB24B
:101A0C007A7B91B2FA7B92B20A4492B2F979029142
:101A1C000192009333462A462146FFF70CFBFEF752
:101A2C00FFFF0A2000F094F8FB7B0533FB73FA7B75
:101A3C003B7B9A42CAD300BF00BF1437BD46F0BDF2
:101A4C00FFF7B0FD0B480C490C4A002302E0D458B8
:101A5C00C4500433C4188C42F9D3094A094C0023EE
:101A6C0001E013600432A242FBD301F093F9FEF7BC
:101A7C0067FB70470000002064000020D866000857
:101A8C006400002030060020FEE7000080B500AFA7
:101A9C00084B1B68074A43F010031360032000F047
:101AAC002BF90F2000F008F8FFF7AEFC00231846C6
:101ABC0080BD00BF0020024080B582B000AF7860CE
:101ACC00124B1A68124B1B7819464FF47A73B3FBFE
:101ADC00F1F3B2FBF3F3184600F035F90346002B93
:101AEC0001D001230EE07B680F2B0AD80022796805
:101AFC004FF0FF3000F00BF9064A7B6813600023AF
:101B0C0000E0012318460837BD4680BD08000020C0
:101B1C00100000200C00002080B400AF054B1B7897
:101B2C001A46054B1B681344034A136000BFBD469D
:101B3C0080BC704710000020E404002080B400AF8B
:101B4C00024B1B681846BD4680BC7047E40400205D
:101B5C0080B584B000AF7860FFF7F0FFB8607B68A9
:101B6C00FB60FB68B3F1FF3F05D00A4B1B781A46AC
:101B7C00FB681344FB6000BFFFF7E0FF0246BB6845
:101B8C00D31AFA689A42F7D800BF00BF1037BD4687
:101B9C0080BD00BF1000002080B485B000AF78601D
:101BAC007B6803F00703FB600C4BDB68BB60BA6817
:101BBC004FF6FF031340BB60FB681A02BB6813436C
:101BCC0043F0BF6343F40033BB60044ABB68D3608B
:101BDC0000BF1437BD4680BC704700BF00ED00E06D
:101BEC0080B400AF044BDB681B0A03F007031846F4
:101BFC00BD4680BC704700BF00ED00E080B483B0F0
:101C0C0000AF03463960FB7197F90730002B0ADBF4
:101C1C003B68DAB20C4997F907301201D2B20B4487
:101C2C0083F800230AE03B68DAB20849FB7903F039
:101C3C000F03043B1201D2B20B441A7600BF0C37CF
:101C4C00BD4680BC704700BF00E100E000ED00E045
:101C5C0080B489B000AFF860B9607A60FB6803F0BB
:101C6C000703FB61FB69C3F10703042B28BF0423A3
:101C7C00BB61FB690433062B02D9FB69033B00E013
:101C8C0000237B614FF0FF32BB6902FA03F3DA43A6
:101C9C00BB681A407B699A404FF0FF317B6901FAAF
:101CAC0003F3D9437B680B40134318462437BD46D6
:101CBC0080BC704780B582B000AF78607B68013B18
:101CCC00B3F1807F01D301230FE00A4A7B68013B0B
:101CDC0053600F214FF0FF30FFF790FF054B0022B0
:101CEC009A60044B07221A60002318460837BD4639
:101CFC0080BD00BF10E000E080B582B000AF78601E
:101D0C007868FFF749FF00BF0837BD4680BD80B536
:101D1C0086B000AF0346B9607A60FB7300237B6129
:101D2C00FFF75EFF78617A68B9687869FFF790FF12
:101D3C00024697F90F3011461846FFF75FFF00BFB8
:101D4C001837BD4680BD80B582B000AF786078682A
:101D5C00FFF7B0FF034618460837BD4680BD0000AC
:101D6C0080B48BB000AF7860396000237B620023B5
:101D7C003B6261E101227B6A02FA03F3FB613B687F
:101D8C001B68FA691340BB61BA69FB699A4240F05F
:101D9C0050813B685B68974A93425ED0954A934268
:101DAC0075D8954A934258D0934A93426FD8934A28
:101DBC00934252D0914A934269D8914A93424CD063
:101DCC008F4A934263D88F4A934246D08D4A9342AE
:101DDC005DD8122B2AD8122B59D801A252F823F015
:101DEC00671E0008411E0008531E0008951E0008BF
:101DFC009B1E00089B1E00089B1E00089B1E0008D3
:101E0C009B1E00089B1E00089B1E00089B1E0008C2
:101E1C009B1E00089B1E00089B1E00089B1E0008B2
:101E2C009B1E0008491E00085D1E0008764A93425E
:101E3C0013D02CE03B68DB683B6229E03B68DB6835
:101E4C0004333B6224E03B68DB6808333B621FE0F1
:101E5C003B68DB680C333B621AE03B689B68002BE9
:101E6C0002D104233B6213E03B689B68012B05D134
:101E7C0008233B627B68FA691A6109E008233B621C
:101E8C007B68FA695A6103E000233B6200E000BF03
:101E9C00BB69FF2B01D87B6801E07B6804337B6155
:101EAC00BB69FF2B02D87B6A9B0002E07B6A083B74
:101EBC009B003B617B691A680F213B6901FA03F3B4
:101ECC00DB431A40396A3B6901FA03F31A437B6915
:101EDC001A603B685B6803F08053002B00F0A9800C
:101EEC004A4B9B69494A43F001039361474B9B69F9
:101EFC0003F00103BB60BB68454A7B6A9B08023355
:101F0C0052F82330FB607B6A03F003039B000F2223
:101F1C0002FA03F3DB43FA681340FB607B683D4A2B
:101F2C0093420DD07B683C4A934207D07B683B4A76
:101F3C00934201D1022304E0032302E0012300E0D9
:101F4C0000237A6A02F0030292009340FA6813436A
:101F5C00FB602F497B6A9B080233FA6841F8232007
:101F6C003B685B6803F48013002B06D02C4B9A68FB
:101F7C002B49BB6913438B6006E0294B9A68BB69FC
:101F8C00DB43274913408B603B685B6803F4001309
:101F9C00002B06D0224BDA682149BB691343CB6076
:101FAC0006E01F4BDA68BB69DB431D491340CB606D
:101FBC003B685B6803F40033002B06D0184B5A685F
:101FCC001749BB6913434B6006E0154B5A68BB6954
:101FDC00DB43134913404B603B685B6803F480336D
:101FEC00002B1FD00E4B1A680D49BB6913430B60B5
:101FFC001FE000BF00003210000031100000221062
:10200C0000002110000012100000111000100240FE
:10201C000000014000080140000C0140001001408C
:10202C00000401400B4B1A68BB69DB4309491340A0
:10203C000B607B6A01337B623B681A687B6A22FA0D
:10204C0003F3002B7FF496AE00BF00BF2C37BD46C8
:10205C0080BC70470004014080B483B000AF78604E
:10206C000B467B8013467B707B78002B03D07A88E1
:10207C007B681A6103E07B881A047B681A6100BFD5
:10208C000C37BD4680BC704780B586B000AF786019
:10209C007B68002B01D1012372E27B681B6803F083
:1020AC000103002B00F08780924B5B6803F00C035C
:1020BC00042B0CD08F4B5B6803F00C03082B12D154
:1020CC008C4B5B6803F48033B3F5803F0BD1894BA9
:1020DC001B6803F40033002B6CD07B685B68002B0F
:1020EC0068D101234CE27B685B68B3F5803F06D175
:1020FC00804B1B687F4A43F4803313602EE07B686F
:10210C005B68002B0CD17B4B1B687A4A23F4803321
:10211C001360784B1B68774A23F4802313601DE00F
:10212C007B685B68B3F5A02F0CD1724B1B68714AAE
:10213C0043F4802313606F4B1B686E4A43F4803367
:10214C0013600BE06B4B1B686A4A23F480331360FB
:10215C00684B1B68674A23F4802313607B685B68B9
:10216C00002B13D0FFF7EAFC386108E0FFF7E6FC20
:10217C0002463B69D31A642B01D9032300E25D4B61
:10218C001B6803F40033002BF0D014E0FFF7D6FCEF
:10219C00386108E0FFF7D2FC02463B69D31A642B86
:1021AC0001D90323ECE1534B1B6803F40033002BE0
:1021BC00F0D100E000BF7B681B6803F00203002B2A
:1021CC0063D04C4B5B6803F00C03002B0BD0494BDA
:1021DC005B6803F00C03082B1CD1464B5B6803F4C3
:1021EC008033002B16D1434B1B6803F00203002BEA
:1021FC0005D07B681B69012B01D00123C0E13D4B4D
:10220C001B6823F0F8027B685B69DB0039491343D8
:10221C000B603AE07B681B69002B20D0364B012207
:10222C001A60FFF78BFC386108E0FFF787FC024669
:10223C003B69D31A022B01D90323A1E12D4B1B6857
:10224C0003F00203002BF0D02A4B1B6823F0F8029A
:10225C007B685B69DB00274913430B6015E0264B59
:10226C0000221A60FFF76AFC386108E0FFF766FC91
:10227C0002463B69D31A022B01D9032380E11D4B83
:10228C001B6803F00203002BF0D17B681B6803F082
:10229C000803002B3AD07B689B69002B19D0174B95
:1022AC0001221A60FFF74AFC386108E0FFF746FC90
:1022BC0002463B69D31A022B01D9032360E10D4B73
:1022CC005B6A03F00203002BF0D0012000F09CFAB3
:1022DC001CE00A4B00221A60FFF730FC38610FE05B
:1022EC00FFF72CFC02463B69D31A022B08D90323B7
:1022FC0046E100BF0010024000004242800442420E
:10230C00924B5B6A03F00203002BE9D17B681B68DC
:10231C0003F00403002B00F0A6800023FB758B4B0D
:10232C00DB6903F08053002B0DD1884BDB69874AA6
:10233C0043F08053D361854BDB6903F08053BB6062
:10234C00BB680123FB75824B1B6803F48073002B65
:10235C0018D17F4B1B687E4A43F480731360FFF7E0
:10236C00EDFB386108E0FFF7E9FB02463B69D31A45
:10237C00642B01D9032303E1754B1B6803F48073B1
:10238C00002BF0D07B68DB68012B06D16F4B1B6AEE
:10239C006E4A43F0010313622DE07B68DB68002B6F
:1023AC000CD16A4B1B6A694A23F001031362674B19
:1023BC001B6A664A23F0040313621CE07B68DB682B
:1023CC00052B0CD1614B1B6A604A43F0040313626A
:1023DC005E4B1B6A5D4A43F0010313620BE05B4BDF
:1023EC001B6A5A4A23F001031362584B1B6A574A63
:1023FC0023F0040313627B68DB68002B15D0FFF716
:10240C009DFB38610AE0FFF799FB02463B69D31A42
:10241C0041F28832934201D90323B1E04B4B1B6A42
:10242C0003F00203002BEED014E0FFF787FB3861BA
:10243C000AE0FFF783FB02463B69D31A41F288326C
:10244C00934201D903239BE0404B1B6A03F0020328
:10245C00002BEED1FB7D012B05D13C4BDB693B4ABC
:10246C0023F08053D3617B68DB69002B00F08780FD
:10247C00364B5B6803F00C03082B61D07B68DB697F
:10248C00022B46D1334B00221A60FFF757FB386101
:10249C0008E0FFF753FB02463B69D31A022B01D924
:1024AC0003236DE0294B1B6803F00073002BF0D164
:1024BC007B681B6AB3F5803F08D1244B5B6823F41F
:1024CC0000327B689B68214913434B601F4B5B6850
:1024DC0023F474127B68196A7B685B6A0B431B4993
:1024EC0013434B601B4B01221A60FFF727FB38612B
:1024FC0008E0FFF723FB02463B69D31A022B01D9F4
:10250C0003233DE0114B1B6803F00073002BF0D04C
:10251C0035E0104B00221A60FFF710FB386108E021
:10252C00FFF70CFB02463B69D31A022B01D903239C
:10253C0026E0064B1B6803F00073002BF0D11EE065
:10254C007B68DB69012B07D1012319E000100240E5
:10255C0000700040600042420B4B5B68FB60FB6804
:10256C0003F480327B681B6A9A4206D1FB6803F441
:10257C0070127B685B6A9A4201D0012300E0002351
:10258C0018461837BD4680BD0010024080B584B097
:10259C0000AF786039607B68002B01D10123D0E05B
:1025AC006A4B1B6803F007033A689A4210D9674BD1
:1025BC001B6823F0070265493B6813430B60634BB0
:1025CC001B6803F007033A689A4201D00123B8E074
:1025DC007B681B6803F00203002B20D07B681B6810
:1025EC0003F00403002B05D0594B5B68584A43F4A5
:1025FC00E06353607B681B6803F00803002B05D075
:10260C00534B5B68524A43F460535360504B5B68C6
:10261C0023F0F0027B689B684D4913434B607B6849
:10262C001B6803F00103002B40D07B685B68012B17
:10263C0007D1474B1B6803F40033002B15D1012342
:10264C007FE07B685B68022B07D1414B1B6803F072
:10265C000073002B09D1012373E03D4B1B6803F081
:10266C000203002B01D101236BE0394B5B6823F093
:10267C0003027B685B68364913434B60FFF75EFAD5
:10268C00F8600AE0FFF75AFA0246FB68D31A41F2E7
:10269C008832934201D9032353E02D4B5B6803F03E
:1026AC000C027B685B689B009A42EBD1274B1B6842
:1026BC0003F007033A689A4210D2244B1B6823F0AC
:1026CC00070222493B6813430B60204B1B6803F045
:1026DC0007033A689A4201D0012332E07B681B68F9
:1026EC0003F00403002B08D0194B5B6823F4E06261
:1026FC007B68DB68164913434B607B681B6803F0EF
:10270C000803002B09D0124B5B6823F460527B68E2
:10271C001B69DB000E4913434B6000F021F80246A5
:10272C000B4B5B681B0903F00F030A49CB5C22FAC5
:10273C0003F3094A1360094B1B681846FFF7BCF9F1
:10274C00002318461037BD4680BD00BF0020024054
:10275C000010024078660008080000200C000020E1
:10276C0080B487B000AF0023FB600023BB60002364
:10277C007B6100237B6000233B611E4B5B68FB602D
:10278C00FB6803F00C03042B02D0082B03D027E0CA
:10279C00194B3B6127E0FB689B0C03F00F03174AB6
:1027AC00D35C7B60FB6803F48033002B10D0114B9F
:1027BC005B685B0C03F00103114AD35CBB607B6864
:1027CC000D4A03FB02F2BB68B2FBF3F37B6104E03E
:1027DC007B680C4A02FB03F37B617B693B6102E083
:1027EC00054B3B6100BF3B6918461C37BD4680BC9E
:1027FC00704700BF0010024000127A008866000883
:10280C009866000800093D0080B485B000AF786080
:10281C000A4B1B680A4AA2FB03235B0A7A6802FB79
:10282C0003F3FB6000BFFB685A1EFA60002BF9D162
:10283C0000BF00BF1437BD4680BC704708000020A5
:10284C00D34D621080B582B000AF78607B68002BEE
:10285C0001D1012376E07B685B6A002B08D17B6891
:10286C005B68B3F5827F09D07B680022DA6105E0F2
:10287C007B6800221A617B6800225A617B68002207
:10288C009A627B6893F85130DBB2002B06D17B68DF
:10289C00002283F850207868FEF7E8FD7B6802225E
:1028AC0083F851207B681B681A687B681B6822F0D0
:1028BC0040021A607B685B6803F482727B689B68D9
:1028CC0003F404431A437B68DB6803F400631A4384
:1028DC007B681B6903F002031A437B685B6903F096
:1028EC0001031A437B689B6903F400731A437B68EA
:1028FC00DB6903F038031A437B681B6A03F080031F
:10290C0042EA03017B689B6A03F400527B681B68F4
:10291C000A431A607B689B691A0C7B681B6802F07F
:10292C0004025A607B681B68DA697B681B6822F4B6
:10293C000062DA617B6800225A657B68012283F8A9
:10294C005120002318460837BD4680BD80B588B09D
:10295C0000AFF860B9603B601346FB800023FB7747
:10296C00FB6893F85030012B01D102232DE1FB6859
:10297C00012283F85020FFF7E1F8B861FB88FB8255
:10298C00FB6893F85130DBB2012B02D00223FB77AA
:10299C0016E1BB68002B02D0FB88002B02D101236F
:1029AC00FB770DE1FB68032283F85120FB680022C2
:1029BC005A65FB68BA681A63FB68FA889A86FB68E2
:1029CC00FA88DA86FB6800229A63FB6800229A87F1
:1029DC00FB680022DA87FB6800225A64FB6800223D
:1029EC001A64FB689B68B3F5004F0FD1FB681B683A
:1029FC001A68FB681B6822F040021A60FB681B68AF
:102A0C001A68FB681B6842F480421A60FB681B68FA
:102A1C001B6803F04003402B07D0FB681B681A6847
:102A2C00FB681B6842F040021A60FB68DB68B3F578
:102A3C00006F4FD1FB685B68002B02D0FB8A012B27
:102A4C0042D1FB681B6B1A88FB681B68DA60FB6859
:102A5C001B6B9A1CFB681A63FB68DB8E9BB2013BF9
:102A6C009AB2FB68DA862FE0FB681B689B6803F060
:102A7C000203022B12D1FB681B6B1A88FB681B68C4
:102A8C00DA60FB681B6B9A1CFB681A63FB68DB8EB5
:102A9C009BB2013B9AB2FB68DA8615E0FFF74EF861
:102AAC000246BB69D31A3A689A4203D83B68B3F121
:102ABC00FF3F02D13B68002B06D10323FB77FB6859
:102ACC00012283F851207BE0FB68DB8E9BB2002B4C
:102ADC00CAD150E0FB685B68002B02D0FB8A012B4B
:102AEC0044D1FB681A6BFB681B680C3312781A70A4
:102AFC00FB681B6B5A1CFB681A63FB68DB8E9BB272
:102B0C00013B9AB2FB68DA8630E0FB681B689B6875
:102B1C0003F00203022B13D1FB681A6BFB681B68D2
:102B2C000C3312781A70FB681B6B5A1CFB681A6307
:102B3C00FB68DB8E9BB2013B9AB2FB68DA8615E030
:102B4C00FEF7FCFF0246BB69D31A3A689A4203D8D7
:102B5C003B68B3F1FF3F02D13B68002B06D1032346
:102B6C00FB77FB68012283F8512029E0FB68DB8EA0
:102B7C009BB2002BC9D1BA693968F86800F0BEF86D
:102B8C000346002B02D0FB6820225A65FB689B6829
:102B9C00002B0AD100233B61FB681B68DB683B619F
:102BAC00FB681B689B683B613B69FB685B6D002B9A
:102BBC0002D00123FB7703E0FB68012283F851204C
:102BCC00FB68002283F85020FB7F18462037BD4657
:102BDC0080BD80B483B000AF78607B6893F85130CF
:102BEC00DBB218460C37BD4680BC704780B588B048
:102BFC0000AFF860B9603B601346FB71FEF79EFFB7
:102C0C000246BB6A9B1A3A681344FB61FEF796FFB7
:102C1C00B861394B1B685B011B0DFA6902FB03F3AE
:102C2C007B6154E03B68B3F1FF3F50D0FEF786FF69
:102C3C000246BB69D31AFA699A4202D9FB69002B86
:102C4C003DD1FB681B685A68FB681B6822F0E002E8
:102C5C005A60FB685B68B3F5827F11D1FB689B6897
:102C6C00B3F5004F04D0FB689B68B3F5806F07D1B8
:102C7C00FB681B681A68FB681B6822F040021A602C
:102C8C00FB689B6AB3F5005F0FD1FB681B681A6881
:102C9C00FB681B6822F400521A60FB681B681A68F8
:102CAC00FB681B6842F400521A60FB68012283F82F
:102CBC005120FB68002283F85020032317E07B6926
:102CCC00002B01D10023FB617B69013B7B61FB681D
:102CDC001B689A68BB681340BA689A420CBF012300
:102CEC000023DBB21A46FB799A429BD1002318468B
:102CFC002037BD4680BD00BF0800002080B586B0DF
:102D0C0002AFF860B9607A607B680093BB68002200
:102D1C008021F868FFF76AFF0346002B07D0FB6899
:102D2C005B6D43F02002FB685A65032300E000232F
:102D3C0018461037BD4680BD0EB46FF0004100B58B
:102D4C009CB01DAB0290069007910491084809496C
:102D5C0053F8042B0591006802A9019300F08EF939
:102D6C000022029B1A701CB05DF804EB03B0704794
:102D7C00600000200802FFFF03460244934200D18A
:102D8C00704703F8011BF9E7014B1868704700BF47
:102D9C006000002070B500260C4D0D4C641BA41077
:102DAC00A64209D100F07AFC00260A4D0A4C641B9D
:102DBC00A410A64205D170BD55F8043B98470136C6
:102DCC00EEE755F8043B98470136F2E7D066000869
:102DDC00D0660008D0660008D466000870477047BB
:102DEC0038B50546002940D051F8043C0C1F002B87
:102DFC00B8BFE41800F0DCF81C4A136833B9636000
:102E0C0014602846BDE8384000F0D8B8A34208D971
:102E1C00206821188B4201BF19685B680918216072
:102E2C00EDE71A465B680BB1A342FAD9116850184A
:102E3C00A0420BD120680144501883421160E0D1AC
:102E4C0018685B68084410605360DAE702D90C23F9
:102E5C002B60D6E7206821188B4201BF19685B688C
:102E6C000918216063605460CBE738BD2806002048
:102E7C0070B50E4E0C463168054611B900F0AAFB30
:102E8C0030602146284600F0A5FB431C0AD0C41C28
:102E9C0024F00304A04207D0211A284600F09AFB24
:102EAC00013001D14FF0FF34204670BD2C060020BC
:102EBC002DE9F843CD1C25F0030508350C2D38BF42
:102ECC000C25002D074601DBA94205D90C23002651
:102EDC003B603046BDE8F883DFF8D08000F068F83E
:102EEC00D8F800301C465CBB29463846FFF7C0FFBB
:102EFC00431C044655D1D8F800402646002E45D137
:102F0C00002C48D023683146384604EB030900F006
:102F1C0061FB81453FD1216838466D1A2946FFF780
:102F2C00A7FF013037D023682B442360D8F800303A
:102F3C00002B38D05A68A2422BD100225A600FE0E5
:102F4C002268521B1FD40B2A17D96119A342256082
:102F5C0018BF5960636808BFC8F8001062514B6015
:102F6C00384604F10B0600F029F826F00706231D5D
:102F7C00F21AAED09B1BA350ABE7A3426268DDD123
:102F8C00C8F80020ECE723466468ACE73446766862
:102F9C00B4E71346CCE70C2338463B6000F00EF840
:102FAC0097E72560DCE75B60FFDE00BF28060020AA
:102FBC000148FFF713BF00BF240600200148FFF7AC
:102FCC000EBF00BF240600202DE9F0471F468E6877
:102FDC008246BE420C4690460B682CD88A8912F465
:102FEC00906F26D06569096905EB4505A3EB0109CE
:102FFC0005EBD5757B1C4B446D109D4238BF1D46AF
:10300C00530527D52946FFF753FF064660B34A46BA
:10301C00216900F0FDFAA38923F4906343F0800347
:10302C00A38126614E4426603E466561A5EB0905E9
:10303C00A560BE4200D93E4632464146206800F0AB
:10304C00AFFA0020A3689B1BA36023683344236062
:10305C00BDE8F0872A4600F0E9FA06460028E0D1E0
:10306C0050462169FFF7BCFE0C23CAF80030A38937
:10307C004FF0FF3043F04003A381E9E72DE9F04F17
:10308C0098468B8907461B060D4614469DB00ED5F7
:10309C000B6963B94021FFF70BFF2860286120B949
:1030AC000C233B604FF0FF30D0E040236B610023DA
:1030BC00099320238DF8293030234FF00109CDF8E6
:1030CC000C80DFF8A0818DF82A3023469A4613F83D
:1030DC00012B0AB1252AF9D1BAEB040B0BD05B46B4
:1030EC00224629463846FFF76FFF013000F0A980D1
:1030FC00099A5A4409929AF80030002B00F0A180EA
:10310C0000234FF0FF32CDE905230AF1010A0493A5
:10311C0007938DF853301A935446052214F8011B6B
:10312C00504800F067FA049AD8B9D00644BF20235F
:10313C008DF85330110744BF2B238DF853309AF878
:10314C0000302A2B15D0544600204FF00A0C079A59
:10315C00214611F8013B303B092B4DD9B0B10792F8
:10316C0014E0A0EB080309FA03F31343A2460493FB
:10317C00D2E7039B191D1B680391002BBBBF5B425D
:10318C0042F0020207930793B8BF049223782E2BC8
:10319C000CD163782A2B34D1039B02341A1D1B6883
:1031AC000392002BB8BF4FF0FF330593DFF8B8A0A4
:1031BC0003225046217800F01DFA38B14022049BBE
:1031CC00A0EB0A00824013430134049314F8011B52
:1031DC00062226488DF8281000F00CFA002838D06A
:1031EC00234B1BBB039B073323F0070308330393C9
:1031FC00099B3344099368E70C4601200CFB02320F
:10320C00A6E700234FF00A0C19460134059320461B
:10321C0010F8012B303A092A03D9002BC6D005919E
:10322C00C4E7044601230CFB0121F0E703AB009338
:10323C002A4638460F4B04A9AFF30080421C0646C1
:10324C00D6D1AB895B063FF52DAF09981DB0BDE813
:10325C00F08F03AB00932A463846064B04A900F0C6
:10326C007DF8EBE79A660008A0660008A4660008E3
:10327C0000000000D52F00082DE9F04716469946AE
:10328C008A680B6907469342B8BF1346336091F8BE
:10329C0043200C46DDF820800AB1013333602368EB
:1032AC00990642BF336802333360256815F0060572
:1032BC0006D104F1190AE36832689B1AAB422BDC85
:1032CC0094F84320131E226818BF0123920630D4B1
:1032DC004946384604F14302C047013023D02368E5
:1032EC00226903F00603042B14BF002533684FF04A
:1032FC00000608BFE56804F11A0408BFED1A54F87B
:10330C00123C08BF25EAE5759342C4BF9B1AED1821
:10331C00B5421AD1002008E00123524649463846EE
:10332C00C047013003D14FF0FF30BDE8F0870135C5
:10333C00C1E73020E11881F843005A1C94F845107D
:10334C002244023382F84310C2E701232246494645
:10335C003846C0470130E6D00136D9E72DE9FF47A2
:10336C000F7E9146782F80460C469A460C9D01F1B3
:10337C00430207D8622F0AD8002F00F0D580582FAF
:10338C0000F0C18004F1420584F842703AE0A7F1E4
:10339C006303152BF6D801A151F823F00134000872
:1033AC00153400089133000891330008913300085C
:1033BC00913300081534000891330008913300084C
:1033CC0091330008913300081B3500084134000884
:1033DC00D534000891330008913300083D350008BE
:1033EC0091330008413400089133000891330008F0
:1033FC00DD3400082B681A1D1B682A6004F1420595
:10340C0084F842300123A0E020682B68070603F102
:10341C000401296001D51E6803E04606FBD5B3F90B
:10342C000060002E03DA2D23764284F843300A2301
:10343C00594812E02B682068191D2960050601D532
:10344C001E6802E04106FBD51E886F2F0CBF0823B7
:10345C000A235148002184F843106568002DA8BF49
:10346C002168A560A4BF21F0040121600EB9002DD4
:10347C004BD01546B6FBF3F103FB1167C75D05F89E
:10348C00017D3746BB420E46F4D9082B0BD123687D
:10349C00DE0708D5236961689942DEBF302305F841
:1034AC00013C05F1FF35521B22614B46214640463B
:1034BC00CDF800A003AAFFF7DFFE01304AD14FF090
:1034CC00FF3004B0BDE8F087236843F0200323608D
:1034DC007827324884F84570236829681F0651F80C
:1034EC00046B02D45F0648BFB6B2DF0748BF43F097
:1034FC002003296048BF23601EB9236823F02003F2
:10350C0023601023A6E72448E4E71546BDE72B68A3
:10351C002668181D6169286035061B6801D519607D
:10352C0002E07006FBD51980002315462361BCE729
:10353C002B6800211A1D2A601D686268284600F05D
:10354C0059F808B1401B606063682361002384F85C
:10355C004330AAE72A46494640462369D047013002
:10356C00ADD023689B0713D4E068039B9842B8BF87
:10357C001846A6E70123324649464046D04701305B
:10358C009DD00135E36803995B1AAB42F2DCEBE7A3
:10359C00002504F11906F5E7AB660008BC660008C7
:1035AC00884210B501EB020402D98442234607D8A5
:1035BC00431EA14208D011F8012B03F8012FF8E7A4
:1035CC00014602448A4200D110BD13F8014D02F8A5
:1035DC00014DF7E738B50023054D044608462B602E
:1035EC00FDF7AAFF431C02D12B6803B1236038BD41
:1035FC0020060020034610B5C9B202449342184677
:10360C0001D1002003E0047801338C42F6D110BDC7
:10361C000A44914200F1FF3300D1704710B511F804
:10362C00014B914203F8014FF9D110BD2DE9F04146
:10363C00804614460E4621B91146BDE8F041FFF70D
:10364C0037BC2AB9FFF7CCFB25462846BDE8F081EC
:10365C0000F01BF88442074602D8B4EB500F12D886
:10366C0021464046FFF724FC05460028EDD0BC421D
:10367C002246314628BF3A46FFF7CAFF314640463C
:10368C00FFF7AEFBE1E73546DFE751F8043C181FC6
:10369C00002BBCBF0B58C01870470000F8B500BF1A
:1036AC00F8BC08BC9E467047F8B500BFF8BC08BC17
:0436BC009E4670476F
:1036C00054484520456D62656464656400000000EF
:1036D0005448494E475300004F4C454420446973B9
:1036E000706C6179000000004C494B452026262073
:1036F000535542534352494245000000636F756E73
:103700007420746F20393900256900000000000022
:1037100000000000000000000000000000000000A9
:103720000010001000100010001000100000001029
:103730000000000000280028002800000000000011
:10374000000000000000000000240024007C002491
:103750000048007C00480048000000000038005489
:1037600000500038001400540054003800100000CD
:1037700000200054005800300028005400140008B5
:10378000000000000010002800280010003400484D
:10379000004800340000000000100010001000007D
:1037A0000000000000000000000000000008001001
:1037B0000020002000200020002000200010000831
:1037C0000020001000080008000800080008000899
:1037D0000010002000100038001000280000000039
:1037E00000000000000000000000000000100010B9
:1037F000007C00100010000000000000000000002D
:103800000000000000000000000000100010001088
:103810000000000000000000000000380000000070
:103820000000000000000000000000000000000098
:103830000000001000000000000800080010001048
:10384000001000100020002000000000003800449C
:1038500000440054004400440044003800000000CC
:103860000010003000500010001000100010001078
:10387000000000000038004400440004000800106C
:103880000020007C00000000003800440004001804
:103890000004000400440038000000000008001884
:1038A000002800280048007C0008000800000000F4
:1038B000007C004000400078000400040044003810
:1038C000000000000038004400400078004400443C
:1038D0000044003800000000007C000400080010D4
:1038E00000100020002000200000000000380044EC
:1038F0000044003800440044004400380000000048
:103900000038004400440044003C000400440038F7
:103910000000000000000000001000000000000097
:103920000000001000000000000000000000001077
:103930000000000000000010001000100000000057
:10394000000C003000400030000C000000000000BF
:10395000000000000000007C0000007C000000006F
:1039600000000000000000000060001800040018C3
:10397000006000000000000000380044000400085F
:10398000001000100000001000000000003800448B
:10399000004C0054005C0040004000380000000073
:1039A00000100028002800280028007C0044004463
:1039B0000000000000780044004400780044004407
:1039C000004400780000000000380044004000403F
:1039D0000040004000440038000000000070004833
:1039E000004400440044004400480070000000000F
:1039F000007C00400040007C004000400040007C13
:103A000000000000007C00400040007800400040C2
:103A1000004000400000000000380044004000402A
:103A2000005C0044004400380000000000440044F2
:103A30000044007C004400440044004400000000B6
:103A400000380010001000100010001000100038A6
:103A5000000000000004000400040004000400044E
:103A6000004400380000000000440048005000609E
:103A700000500048004800440000000000400040A2
:103A800000400040004000400040007C000000007A
:103A90000044006C006C00540044004400440044A6
:103AA0000000000000440064006400540054004C16
:103AB000004C004400000000003800440044004472
:103AC0000044004400440038000000000078004436
:103AD0000044004400780040004000400000000026
:103AE00000380044004400440044004400540038BE
:103AF00000040000007800440044004400780048BE
:103B0000004800440000000000380044004000303D
:103B1000000800040044003800000000007C001091
:103B20000010001000100010001000100000000035
:103B30000044004400440044004400440044003871
:103B40000000000000440044004400280028002831
:103B50000010001000000000004400440054005415
:103B60000054006C002800280000000000440028D9
:103B70000028001000100028002800440000000069
:103B8000004400440028002800100010001000101D
:103B900000000000007C000400080010001000205D
:103BA0000040007C00000000001800100010001011
:103BB000001000100010001000100018002000205D
:103BC00000100010001000100008000800000000A5
:103BD0000030001000100010001000100010001045
:103BE00000100030001000280028004400000000F1
:103BF00000000000000000000000000000000000C5
:103C00000000000000000000000000FE0020001086
:103C100000000000000000000000000000000000A4
:103C20000000000000380044003C0044004C003418
:103C300000000000004000400058006400440044C0
:103C4000006400580000000000000000003800443C
:103C50000040004000440038000000000004000460
:103C60000034004C00440044004C003400000000CC
:103C70000000000000380044007C00400044003890
:103C800000000000000C0010007C0010001000106C
:103C90000010001000000000000000000034004C84
:103CA00000440044004C0034000400780040004010
:103CB0000058006400440044004400440000000038
:103CC0000010000000700010001000100010001024
:103CD0000000000000100000007000100010001034
:103CE00000100010001000E00040004000480050AC
:103CF0000060005000480044000000000070001008
:103D00000010001000100010001000100000000053
:103D10000000000000780054005400540054005487
:103D2000000000000000000000580064004400444F
:103D3000004400440000000000000000003800447F
:103D4000004400440044003800000000000000006F
:103D500000580064004400440064005800400040E3
:103D6000000000000034004C00440044004C0034CB
:103D700000040004000000000058006400400040FF
:103D80000040004000000000000000000038004437
:103D9000003000080044003800000000002000202F
:103DA0000078002000200020002000180000000003
:103DB000000000000044004400440044004C003473
:103DC000000000000000000000440044002800281B
:103DD0000028001000000000000000000054005403
:103DE0000054006C002800280000000000000000C3
:103DF00000440028001000100028004400000000CB
:103E000000000000004400440028002800100010BA
:103E10000010006000000000007C0008001000207E
:103E20000040007C0000000000180010001000108E
:103E300000200020001000100010001800100010DA
:103E400000100010001000100010001000100010F2
:103E500000300010001000100008000800100010D2
:103E6000001000300000000000000074004C000052
:103E70000000000000000000000000000000000042
:103E80000000000000000000000000000000000032
:103E90000000000000000000000000000000000022
:103EA0000000000000000000000000000000000012
:103EB0000000000000000000000000000000000002
:103EC00000000000000000000000000000000000F2
:103ED00000000000000000000000000000000000E2
:103EE00000000000000000000000000000000000D2
:103EF00000000000000000000000000000000000C2
:103F000000000000000000000000000000000000B1
:103F100000000000000000000000000000000000A1
:103F20000000000000000000000000000000000091
:103F30000000000000000000000000000000000081
:103F40000000000000000000000000003FF86000DA
:103F500000000000000000000000001FFFFFF00054
:103F600000000000000000000000007FFFFFC00014
:103F70000000000000000000000005FFFFFFE4005B
:103F8000000000000000000000000FFFFFFF8000A5
:103F9000000000000000000000000F000FFF000004
:103FA00000000000000000000000060000FF80008C
:103FB000000000000000000000001860001FF80072
:103FC000000000000000000000003C7800078000B6
:103FD00000000000000000000000306E0000000043
:103FE000000000000000000000005073800000008E
:103FF000000000000000000000008000C00005FF7D
:104000000037F000001F800000010000FC000000ED
:104010000007FF8003F030000000080038000000B7
:104020000000BFFFFFE004000001900060000000FE
:10403000000087FFFFFE00000001E00060000000BC
:10404000000001FFFFFFC00000004000600600000C
:104050000000001FFC00080000000000E006000057
:10406000100080000000000000000000600600005A
:104070003001800000000000000000007006000019
:104080003007000000000000000000007FC60000B4
:10409000E00F0000000000000000000F81CC0010C5
:1040A000E0380000000000000000000FC00886009B
:1040B00000600000000000000000001FF62000006B
:1040C00021C00000000000000000001FC000000030
:1040D00000000000000000000000003E00000000A2
:1040E0000401000000000000000000F800000000D3
:1040F0004800000000000000000001F00000000087
:104100007000000000000000000007200000000018
:10411000F00078000000000000003C3800000000C3
:10412000F00078000000000000007830000000017E
:10413000C0007800000000000001E0000000000363
:1041400080007000000000000003C00000000006B6
:104150000000700000000000000000000000001CD3
:104160000000300000000000000000000000003CE3
:104170000000300000000000000000000000007897
:10418000000070000000000000000000000001E0DE
:104190000000F0000000000000000000000003C06C
:1041A0000003F00000000000000000000000060016
:1041B0000007800000000000000000000000000078
:1041C00000000000000000000000000000000000EF
:1041D00000000000000000000000000000000000DF
:1041E00000000000000000000000000000000000CF
:1041F00000000000000000000000000000000000BF
:1042000000000000000000000000000000000000AE
:10421000000000000000000000000000000000009E
:10422000000000000000000000000000000000008E
:10423000000000000000000000000000000000007E
:10424000000000000000000000000000000000006E
:10425000000000000000000000000000000000005E
:10426000000000000000000000000000000000004E
:10427000000000000000000000000000000000003E
:10428000000000000000000000000000000000002E
:10429000000000000000000000000000000000001E
:1042A000000000000000000000000000000000000E
:1042B00000000000000000000000000000000000FE
:1042C00000000000000000000000000000000000EE
:1042D00000000000000000000000000000000000DE
:1042E00000000000000000000000000000000000CE
:1042F00000000000000000000000000000000000BE
:1043000000000000000000000000000000000000AD
:10431000000000000000000000000000000000009D
:10432000000000000000000000000000000000008D
:10433000000000000000000000000000000000007D
:104340000000000000000000000000003FF86000D6
:1043500000000000000000000000001FFFFFF00050
:1043600000000000000000000000007FFFFFC00010
:104370000000000000000000000005FFFFFFE40057
:10438000000000000000000000000FFFFFFF8000A1
:10439000000000000000000000000F000FFF000000
:1043A00000000000000000000000060000FF800088
:1043B000000000000000000000001860001FF8006E
:1043C000000000000000000000003C7800078000B2
:1043D00000000000000000000000306E000000003F
:1043E000000000000000000000005073800000008A
:1043F000000000000000000000008000C00005FF79
:104400000037F000001F800000010000FC000000E9
:104410000007FF8003F030000000080038000000B3
:104420000000BFFFFFE004000001900060000000FA
:10443000000087FFFFFE00000001E00060000000B8
:10444000000001FFFFFFC000000040006006000008
:104450000000001FFC00080000000000E006000053
:104460001000800000000000000000006006000056
:104470003001800000000000000000007006000015
:104480003007000000000000000000007FC60000B0
:10449000E00F0000000000000000000F81CC0010C1
:1044A000E0380000000000000000000FC008860097
:1044B00000600000000000000000001FF620000067
:1044C00021C00000000000000000001FC00000002C
:1044D00000000000000000000000003E000000009E
:1044E0000401000000000000000000F800000000CF
:1044F0004800000000000000000001F00000000083
:104500007000000000000000000007200000000014
:10451000F00078000000000000003C3800000000BF
:10452000F00078000000000000007830000000017A
:10453000C0007800000000000001E000000000035F
:1045400080007000000000000003C00000000006B2
:104550000000700000000000000000000000001CCF
:104560000000300000000000000000000000003CDF
:104570000000300000000000000000000000007893
:10458000000070000000000000000000000001E0DA
:104590000000F0000000000000000000000003C068
:1045A0000003F00000000000000000000000060012
:1045B0000007800000000000000000000000000074
:1045C00000000000000000000000000000000000EB
:1045D00000000000000000000000000000000000DB
:1045E00000000000000000000000000000000000CB
:1045F00000000000000000000000000000000000BB
:1046000000000000000000000000000000000000AA
:10461000000000000000000000000000000000009A
:10462000000000000000000000000000000000008A
:10463000000000000000000000000000000000007A
:10464000000000000000000000000000000000006A
:10465000000000000000000000000000000000005A
:10466000000000000000000000000000000000004A
:10467000000000000000000000000000000000003A
:10468000000000000000000000000000000000002A
:10469000000000000000000000000000000000001A
:1046A000000000000000000000000000000000000A
:1046B00000000000000000000000000000000000FA
:1046C00000000000000000000000000000000000EA
:1046D00000000000000000000000000000000000DA
:1046E00000000000000000000000000000000000CA
:1046F00000000000000000000000000000000000BA
:1047000000000000000000000000000000000000A9
:104710000000000000000000000000000000000099
:104720000000000000000000000000000000000089
:104730000000000000000000000000000000000079
:104740000000000000000000000000000006000063
:104750000000000000000000000000000FFFB0009B
:1047600000000000000000000000007FFFFC0000CF
:104770000000000000000000000001FFFFF81FC063
:10478000000000000000000000000FFFFFFFF80025
:10479000000000000000000000001FE01FFFC0003C
:1047A000000000000000000000001E83887F8000E1
:1047B000000000000000000000003C00000FF000BE
:1047C00000000000000000000000F8FA000387006D
:1047D00000000000000000000000F8FE0000C00023
:1047E00000000000000000000001E0E706003000CB
:1047F000000000000000FF0000010003CE00078061
:104800000FF7FFF0000FFC0000020200DC00007F49
:10481000C007FFFFF1FF80000004180078000000CF
:104820000000DFFFFFFC0000000740003000000038
:10483000000043FFFFF000000003C0002000040060
:104840001800603FFF800000000180005FFFFF0054
:10485000187FA003E0000000000000007FEFFF8051
:104860001CFFA0000000000000000000601C000011
:104870000C00600000000000000000003F18000075
:104880000E00E000000000000000003FC038000003
:104890000601E0000000000000000078003C000578
:1048A000FE21A00000000000000000E3FCA3E7F0F0
:1048B0001FFFD00000000000000001803F801800B2
:1048C0000183080000000000000003004200000017
:1048D00000C306000000000000000F00C40000003C
:1048E0000023FCF00000000000001E00900000000B
:1048F000001103F00000000000001C012000000077
:10490000000D00F80000000000007C0180000000A5
:1049100000078038000000000000700380000000E5
:104920000007C018000000000000000700000000A1
:104930000007C00C000000000000000E0000000096
:104940000007C00C000000000000001C0000000078
:104950000007800E0000000000000038000000008A
:104960000007000E000000000000007000000000C2
:10497000000E000E00000000000001E0000000003A
:10498000001E000E00000000000007800000000074
:10499000003C001E000000000000000000000000BD
:1049A00001FC003E000000000000000000000000CC
:1049B0000F80003800000000000000000000000030
:1049C0001F000000000000000000000000000000C8
:1049D00000000000000000000000000000000000D7
:1049E00000000000000000000000000000000000C7
:1049F00000000000000000000000000000000000B7
:104A000000000000000000000000000000000000A6
:104A10000000000000000000000000000000000096
:104A20000000000000000000000000000000000086
:104A30000000000000000000000000000000000076
:104A40000000000000000000000000000000000066
:104A50000000000000000000000000000000000056
:104A60000000000000000000000000000000000046
:104A70000000000000000000000000000000000036
:104A80000000000000000000000000000000000026
:104A90000000000000000000000000000000000016
:104AA0000000000000000000000000000000000006
:104AB00000000000000000000000000000000000F6
:104AC00000000000000000000000000000000000E6
:104AD00000000000000000000000000000000000D6
:104AE00000000000000000000000000000000000C6
:104AF00000000000000000000000000000000000B6
:104B000000000000000000000000000000000000A5
:104B10000000000000000000000000000000000095
:104B20000000000000000000000000000000000085
:104B30000000000000000000000000000000000075
:104B40000000000000000000000000000000000065
:104B50000000000000000000000000000000000055
:104B600000000000000000000000007FF01DC000F9
:104B7000000000000000000000001FFFFFFF000019
:104B8000000000000000000000001FFFFFFFF00019
:104B9000000000000000000000001F803FFFFFC079
:104BA000000000000000000000001E8388FFE000FD
:104BB0000000000000000000000078C0001FF800A6
:104BC00000000000000000000000F1E20003E60029
:104BD00000000000000000000001F1F8000060008B
:104BE00000000000000000000003418F0C001800CE
:104BF0000000000000000000000600038C00078099
:104C00000001FFFF80000800000C0200F800000F08
:104C1000C03FFFFFF0183000000E400030000000E1
:104C20000000FFFFFFE1C000000F80003000000027
:104C300000003FFFFFFF004000078000200004004D
:104C40000000103FFFFE1E00000000005FFDFF009F
:104C5000007FF000FFFFE000000000007FEFFF801A
:104C600000FFF0000000000000000000401C0000F9
:104C7000000010000000000000000000701800009C
:104C800001801800000000000000000060300000FB
:104C9000018018000000000000000001807E00007C
:104CA000F1C01C000000000000000007FFFDF5FE41
:104CB0000FFFEE000000000000000028FBE80E00DF
:104CC00000100F80000000000000007E01080000BE
:104CD000000C070E00000000000001E001100000C1
:104CE000000303FF000000000000070001100000A7
:104CF000000041CF0000000000003C0001900000D7
:104D0000000011E3800000000001F80000A0000096
:104D1000000007E1C00000000007E00000E0000024
:104D2000000003E0E0000000001F000000E00000C1
:104D3000000001E0700000000000000000E0000042
:104D4000000000E03C0000000000000000C0000087
:104D5000000000E00FC000000000000000C00000E4
:104D6000000000E007E000000000000000800000FC
:104D70000000007000E00000000000000180000062
:104D80000000007000000000000000000180000032
:104D90000000007800000000000000000380000018
:104DA000000003C000000000000000001F00000021
:104DB00000000F0000000000000000003E000000A6
:104DC00000001F00000000000000000000000000C4
:104DD00000000000000000000000000000000000D3
:104DE00000000000000000000000000000000000C3
:104DF00000000000000000000000000000000000B3
:104E000000000000000000000000000000000000A2
:104E10000000000000000000000000000000000092
:104E20000000000000000000000000000000000082
:104E30000000000000000000000000000000000072
:104E40000000000000000000000000000000000062
:104E50000000000000000000000000000000000052
:104E60000000000000000000000000000000000042
:104E70000000000000000000000000000000000032
:104E80000000000000000000000000000000000022
:104E90000000000000000000000000000000000012
:104EA0000000000000000000000000000000000002
:104EB00000000000000000000000000000000000F2
:104EC00000000000000000000000000000000000E2
:104ED00000000000000000000000000000000000D2
:104EE00000000000000000000000000000000000C2
:104EF00000000000000000000000000000000000B2
:104F000000000000000000000000000000000000A1
:104F10000000000000000000000000000000000091
:104F20000000000000000000000000000000000081
:104F30000000000000000000000000000000000071
:104F40000000000000000000000000000000000061
:104F50000000000000000000000000000000000051
:104F60000000000000000000000003FFF00000004F
:104F7000000000000000000000000FFFFF800000A4
:104F8000000000000000000000001FFFFFFFF00015
:104F9000000000000000000000001FFFFFFFF00005
:104FA000000000000000000000001E383FFFFE006F
:104FB00000000000000000000000700000FF88807A
:104FC00000000000000000000000F1E00C5FC000E5
:104FD00000000000000000000001F1F01C4B800008
:104FE0000000000000000000000381BC0C00400035
:104FF00000000000000000000000023F0002180056
:105000001F800007F800000000181807D8000100F2
:105010001001FFFFFF800000001C0000F8000008E6
:10502000100027FFFFE00000001F0000744A102856
:105030001488007FFFFC0000000600002000000034
:1050400000001018FFFFF000000000002800000022
:10505000000010000007F0000000000048580008A1
:105060001600100000000000000000004C5B081C4F
:105070003690100000000000000000004C7209187B
:105080001790000000000000000000007C300008C5
:105090000300000000000000000000007830000362
:1050A0001F80030000000000000000004C3E00C014
:1050B00000400018000000000000000080FFC00059
:1050C000000F801C00000000000000010B10800099
:1050D000000003BC000000000000000104084000C4
:1050E0000000003E00000000000000021000400030
:1050F0000000001E0000000000000004400220002C
:105100000000000F00000000000000090001200066
:105110000000000F800000000000001E0000900052
:1051200000000007C00000000000003C0000780004
:1051300000000007F00000000000007000003800D0
:1051400000000007FC000000000000C00000380064
:1051500000000007FE0000000000078000001800AB
:10516000000000078000000000000F0000000C009D
:1051700000000001C00000000000780000000E00E8
:1051800000000000F00000000000F8000000070030
:1051900000000000F00000000000000000000F0010
:1051A00000000000300000000000000000003E0091
:1051B00000000000000000000000000000007C0073
:1051C00000000000000000000000000000000000DF
:1051D00000000000000000000000000000000000CF
:1051E00000000000000000000000000000000000BF
:1051F00000000000000000000000000000000000AF
:10520000000000000000000000000000000000009E
:10521000000000000000000000000000000000008E
:10522000000000000000000000000000000000007E
:10523000000000000000000000000000000000006E
:10524000000000000000000000000000000000005E
:10525000000000000000000000000000000000004E
:10526000000000000000000000000000000000003E
:10527000000000000000000000000000000000002E
:10528000000000000000000000000000000000001E
:10529000000000000000000000000000000000000E
:1052A00000000000000000000000000000000000FE
:1052B00000000000000000000000000000000000EE
:1052C00000000000000000000000000000000000DE
:1052D00000000000000000000000000000000000CE
:1052E00000000000000000000000000000000000BE
:1052F00000000000000000000000000000000000AE
:10530000000000000000000000000000000000009D
:10531000000000000000000000000000000000008D
:10532000000000000000000000000000000000007D
:10533000000000000000000000000000000000006D
:10534000000000000000000000000000000000005D
:1053500000000000000000000000007C00000000D1
:105360000000000000000000000001FF80000000BD
:105370000000000000000000000003FFF800000033
:105380000000000000000000000007FFFFFE00001A
:10539000000000000000000000000F80FFFFC7C0F9
:1053A000000000000000000000003E8387FFFC00BA
:1053B000000000000000000000007CE000FFF8009A
:1053C00000000000000000000000FCF2001FC2000E
:1053D0000000000000000000000180F80003E00071
:1053E00000000000000000000002009E0000E0003D
:1053F0000000000000000000000C030F80001C01F2
:10540000800FFFFFFFF800000006B003C00000702F
:105410000000FFFFFFFF000000078000EC0000001D
:10542000000047FFFFFFC000000300007C000000F9
:10543000000041FFFFF060000000000038000400A1
:105440000000403FFFFE1800000000001FFBFF00AF
:105450001C7F4000F800C400000000003FFDFF80FA
:105460000CFFC0000000000000000000200C000045
:10547000060040000000000000000000100C0000CA
:10548000030020000000000000000000180C0000D5
:105490000F00300000000000000000000E0C0001B2
:1054A000FCC007F0000000000000000007FDFF9CAA
:1054B000003FFFF00000000000000000040FA7C044
:1054C000000007F80000000000000000041BF800C6
:1054D0000000063800000000000000000234080050
:1054E0000000061C00000000000000000223040071
:1054F0000000070E00000000000000000220C200B3
:105500000000070700000000000000000240320019
:1055100000000703C00000000000000002400D80F2
:1055200000000383E00000000000000003C003C08F
:10553000000000F87F0000000000000003C001E050
:105540000000003C0F000000000000000380003855
:105550000000000000000000000000000300000F39
:105560000000000000000000000000000300000731
:1055700080000000000000000000000007000001A3
:10558000C000000000000000000000000600000055
:10559000E000000000000000000000003E000000ED
:1055A000E00000000000000000000000F800000023
:1055B00020000000000000000000000000000000CB
:1055C00000000000000000000000000000000000DB
:1055D00000000000000000000000000000000000CB
:1055E00000000000000000000000000000000000BB
:1055F00000000000000000000000000000000000AB
:10560000000000000000000000000000000000009A
:10561000000000000000000000000000000000008A
:10562000000000000000000000000000000000007A
:10563000000000000000000000000000000000006A
:10564000000000000000000000000000000000005A
:10565000000000000000000000000000000000004A
:10566000000000000000000000000000000000003A
:10567000000000000000000000000000000000002A
:10568000000000000000000000000000000000001A
:10569000000000000000000000000000000000000A
:1056A00000000000000000000000000000000000FA
:1056B00000000000000000000000000000000000EA
:1056C00000000000000000000000000000000000DA
:1056D00000000000000000000000000000000000CA
:1056E00000000000000000000000000000000000BA
:1056F00000000000000000000000000000000000AA
:105700000000000000000000000000000000000099
:105710000000000000000000000000000000000089
:105720000000000000000000000000000000000079
:105730000000000000000000000000000000000069
:105740000000000000000000000000000000000059
:105750000000000000000000000000FFC00000008A
:105760000000000000000000000001FFF800000041
:105770000000000000000000000003FFFE00000029
:105780000000000000000000000007FFFF80000094
:10579000000000000000000000000783FFE0070099
:1057A000000000000000000000001E839FFC0E00AF
:1057B000000000000000000000003E3003FFFC007D
:1057C000000000000000000000007CBE003FF00070
:1057D00000000000000000000000803E0007FC0008
:1057E00000000000000000000001000F0000E000C9
:1057F000F1F01FE00000000000020303000020069B
:10580000000FFFFC0000000000038001800007E0A3
:105810000001CFFFFFFFC0000003C000C000000078
:10582000000081FFFFFFF800000080006000000022
:105830003000807FFFFF3E00000000006000040099
:105840003000801FFFFF8100000000003FFFFF00CD
:10585000387F8007FE002000000000001FFFBF808F
:1058600018FE800000000000000000000C01C000D5
:105870001801000000000000000000000400C0004B
:10588000180E000000000000000000000400E0000E
:105890005E03FF0000000000000000000400600341
:1058A00000E0FF00000000000000000003FF7F9800
:1058B000000FE780000000000000000000C07FC073
:1058C0000001C38000000000000000000020700004
:1058D0000001C1C0000000000000000000107000C6
:1058E000000380E0000000000000000000086800E5
:1058F00000030070000000000000000000046800C9
:1059000000070070000000000000000000023800E6
:105910000006007C00000000000000000001F8000C
:105920000007003E00000000000000000000FE0430
:105930000007000600000000000000000000FFFF5C
:10594000F007000000000000000000000000701FD1
:10595000E003000000000000000000000000300034
:10596000000000000000000000000000000018001F
:1059700000000000000000000000000000000C001B
:1059800000000000000000000000000000000E0009
:1059900000000000000000000000000000001C00EB
:1059A0000000000000000000000000000000F00007
:1059B0000000000000000000000000000001F000F6
:1059C00000000000000000000000000000000000D7
:1059D00000000000000000000000000000000000C7
:1059E00000000000000000000000000000000000B7
:1059F00000000000000000000000000000000000A7
:105A00000000000000000000000000000000000096
:105A10000000000000000000000000000000000086
:105A20000000000000000000000000000000000076
:105A30000000000000000000000000000000000066
:105A40000000000000000000000000000000000056
:105A50000000000000000000000000000000000046
:105A60000000000000000000000000000000000036
:105A70000000000000000000000000000000000026
:105A80000000000000000000000000000000000016
:105A90000000000000000000000000000000000006
:105AA00000000000000000000000000000000000F6
:105AB00000000000000000000000000000000000E6
:105AC00000000000000000000000000000000000D6
